:0400000079EF00F0A4
:10000800FACF99F0FBCF9AF0E9CF9BF0D3ED10F03F
:10001800D8CF23F0E8CF24F0E0CF25F0FACF26F0B0
:10002800FBCF27F0E9CF28F0EACF29F0E1CF2AF07B
:10003800E2CF2BF0D9CF2CF0DACF2DF0F3CF2EF082
:10004800F4CF2FF0F6CF30F0F7CF31F0F8CF32F011
:10005800F5CF33F09EA001D001D004D09E90C5EC1E
:1000680014F000D09EAC01D001D004D09E9C17ECB7
:1000780014F000D09EAA01D001D004D09E9A1EECA4
:100088000FF000D09EA801D001D004D09E98F7ECC4
:1000980011F000D0F2A401D001D004D0F294AAEC5F
:1000A80014F000D033C0F5FF32C0F8FF31C0F7FFBD
:1000B80030C0F6FF2FC0F4FF2EC0F3FF2DC0DAFFCB
:1000C8002CC0D9FF2BC0E2FF2AC0E1FF29C0EAFFFC
:1000D80028C0E9FF27C0FBFF26C0FAFF25C0E0FFC4
:1000E80024C0E8FF23C0D8FF100085EF15F00001F9
:1000F8007D6F000E00010001986F00017D51000125
:100108007D6F000E00010001906F00017D5100011C
:100118007D6F000E00010001976F00017D51000105
:100128007D6F000E00010001966F00017D510001F6
:100138007D6F000E00010001916F00017D51C6AC7A
:1001480001D001D02AD0C69C000120EE0DF000019C
:10015800E251D9260001E351DA22050EDF6E0001D3
:100168007D6F010E00010001916F00017D510001BA
:1001780020EE0FF00001E251D9260001E351DA2206
:10018800DF2A000120EE0EF00001E251D92600011D
:10019800E351DA22040EDF6E00D0C7A001D001D0EF
:1001A8000BD0C9CF94F000017D6F010E0001000152
:1001B800986F00017D5100D000010001916701D0C6
:1001C80001D051D239D238D2C7A601D001D04BD2F2
:1001D80098C060F00001B1EC0EF0000120EE0DF0C7
:1001E8000001E251D9260001E351DA22080EDF624C
:1001F80001D001D038D200017D6F000E000100014E
:10020800986F00017D5100017D6F010E0001000112
:10021800966F00017D5127D226D225D2C7A801D0DA
:1002280001D040D0000120EE0CF00001E251D926A7
:100238000001E351DA22DF2A000100019851D8B405
:1002480001D001D023D0C7BA01D001D009D0000114
:100258007D6F010E00010001976F00017D5116D0DE
:10026800000120EE0FF00001E251D9260001E35110
:10027800DA22DF2A000120EE0EF00001E251D92631
:100288000001E351DA22060EDF6E00D0000120EEF5
:100298000DF00001E251D9260001E351DA22050EE2
:1002A800DF6EE1D1000100019851D8B401D001D02E
:1002B800DAD1000120EE0CF00001E251D92600014C
:1002C800E351DA22DF2AC7BA01D001D02DD0C7B452
:1002D80001D001D00CD0000120EE0DF00001E25158
:1002E800D9260001E351DA22070EDF6EBCD10001E6
:1002F80020EE0DF00001E251D9260001E351DA2287
:10030800080EDF6E00017D6F010E00010001966F7F
:1003180000017D5100017D6F000E00010001986F02
:1003280000017D51A0D19FD1000120EE0FF0000106
:10033800E251D9260001E351DA22DF2A000120EE3A
:100348000DF00001E251D9260001E351DA22050E31
:10035800DF6E000120EE0EF00001E251D926000107
:10036800E351DA22060EDF6E7ED17DD17CD17BD1BE
:10037800000120EE1BF00001E251D9260001E351F3
:10038800DA22DF5000017D6F000120EE1AF0000133
:10039800E251D9260001E351DA22DF5000017D5DE8
:1003A800D8B001D001D032D0000120EE1BF00001FE
:1003B800E251D9260001E351DA22DF5000017D6FB6
:1003C80000017D51010D100EF326000EF422F350AA
:1003D80000010001E225D96EF45000010001E3217B
:1003E800DA6EDF50C96E000120EE1BF00001E25109
:1003F800D9260001E351DA22DF2A00017D6F010EC0
:1004080000010001906F00017D512DD1000120EE07
:100418000DF00001E251D9260001E351DA22050E60
:10042800DF6E21D120D1C7A801D001D07BD0000137
:1004380020EE0CF00001E251D9260001E351DA2246
:10044800DF2A000100019851D8B401D001D055D05D
:10045800C7AA01D001D02FD0000120EE0AF0000178
:10046800E251D9260001E351DA22DF5000017D6F05
:1004780000017D51010DF35000010001E225D96E04
:10048800F45000010001E321DA6E000194C0DFFF9F
:10049800000120EE0AF00001E251D9260001E351E3
:1004A800DA22DF2A00017D6F010E00010001976F3B
:1004B80000017D512BD0000120EE0FF00001E25128
:1004C800D9260001E351DA22DF2A000120EE0EF0DE
:1004D8000001E251D9260001E351DA22060EDF6E4F
:1004E800000120EE0DF00001E251D9260001E35190
:1004F800DA22050EDF6E0AD009D000017D6F010EE9
:1005080000010001976F00017D5100D0000120EE2D
:100518000DF00001E251D9260001E351DA22050E5F
:10052800DF6EA1D0000100019851D8B401D001D0EC
:100538009AD0000120EE0CF00001E251D92600010A
:10054800E351DA22DF2AC7AA01D001D027D000015F
:1005580020EE0AF00001E251D9260001E351DA2227
:10056800DF5000017D6F00017D51010DF350000146
:100578000001E225D96EF45000010001E321DA6E92
:10058800000194C0DFFF000120EE0AF00001E251F3
:10059800D9260001E351DA22DF2A65D0C7A401D0A9
:1005A80001D024D0000120EE0DF00001E251D9263F
:1005B8000001E351DA22080EDF6E00017D6F010EA3
:1005C80000010001976F00017D5100017D6F010E50
:1005D80000010001966F00017D5100017D6F000E42
:1005E80000010001986F00017D513DD0000120EE0F
:1005F8000FF00001E251D9260001E351DA22DF2A87
:10060800000120EE0EF00001E251D9260001E3516D
:10061800DA22060EDF6E000120EE0DF00001E25135
:10062800D9260001E351DA22050EDF6E1CD01BD05B
:100638001AD019D018D017D0000120EE0DF0000103
:10064800E251D9260001E351DA22DF50050AD8B475
:10065800BBD5030AD8B4E2D5010AD8B4E4D60F0A48
:10066800D8B486D600D000010001986701D001D027
:1006780007D0000100019051D8B401D001D007D0B3
:10068800C6B801D001D003D0C68801D000D000017F
:1006980020EE0AF00001E251D9260001E351DA22E6
:1006A800080EDF6401D001D027D000010001976750
:1006B80001D001D021D0000120EE0DF00001E2515F
:1006C800D9260001E351DA22050EDF6E000120EE83
:1006D8000FF00001E251D9260001E351DA22DF2AA6
:1006E800000120EE0EF00001E251D9260001E3518D
:1006F800DA22070EDF6E00D0000100019751D8B44E
:1007080001D001D002D05FD05ED0000120EE0FF002
:100718000001E251D9260001E351DA22DF50D8B4B2
:1007280001D001D050D0000120EE0FF00001E251BD
:10073800D9260001E351DA22DF50000100018D6F54
:10074800000120EE0EF00001E251D9260001E3512C
:10075800DA22DF50000100018E6F000120EE0CF05C
:100768000001E251D9260001E351DA22DF500001ED
:1007780000018F6F00017D6F030E00010001766F8D
:1007880000017D5100017E6F290E00010001776F85
:1007980000017E510001000E00010001796F000187
:1007A8008D0E0001786F00016FEC15F0000120EE4E
:1007B8000FF00001E251D9260001E351DA22000EC0
:1007C800DF6E01D000D0000100019651D8B401D0ED
:1007D80001D073D000017D6F0A0E00010001786F0F
:1007E80000017D510001000E000100017A6F000137
:1007F800950E0001796F0001000E000100017C6F69
:1008080000017F0E00017B6F000141EC15F0000133
:100818000001926F0001936B000192BF93070001E2
:1008280000019351800A800F010ED8B4925DD8A0C0
:1008380001D001D00FD092C060F00001000E00017D
:100848000001626F00017F0E0001616F0001B2ECD0
:100858000CF02AD000010001A82BA8C08AF00001E2
:100868007D6F000E000100018B6F00017D510001BA
:100878007D6F000E000100018C6F00017D510001A9
:100888007D6F040E00010001606F00017D510001C1
:10089800000E00010001626F0001890E0001616F06
:1008A8000001B2EC0CF000D000017D6F000E0001D9
:1008B8000001966F00017D5100D01200EED20001B8
:1008C80020EE0DF00001E251D9260001E351DA22B1
:1008D800090EDF6E000120EE1CF00001E251D9265E
:1008E8000001E351DA22DF50FE0BC96EFCD2C5BC11
:1008F80001D001D079D0000120EE1BF00001E251B7
:10090800D9260001E351DA22DF5000017A6F000195
:1009180020EE1AF00001E251D9260001E351DA2253
:10092800DF5000017A5DD8B001D001D02AD0000193
:1009380020EE1BF00001E251D9260001E351DA2232
:10094800DF5000017A6F00017A51010D100EF32675
:10095800000EF422F35000010001E225D96EF45094
:1009680000010001E321DA6EDF50C96E000120EEBC
:100978001BF00001E251D9260001E351DA22DF2AF7
:10098800B2D200017A6F000E00010001766F0001FB
:100998007A5100017B6F2B0E00010001776F000177
:1009A8007B51000E00010001796F000E0001786F85
:1009B80000016FEC15F0000120EE1AF00001E25181
:1009C800D9260001E351DA22000EDF6E000120EE85
:1009D8000DF00001E251D9260001E351DA22050E9B
:1009E800DF6EC58480D27FD200017A6F000E0001CD
:1009F8000001766F00017A5100017B6F2C0E000117
:100A08000001776F00017B51000E00010001796F32
:100A1800000E0001786F00016FEC15F0000120EE68
:100A28000FF00001E251D9260001E351DA22DF2A52
:100A3800000120EE0EF00001E251D9260001E35139
:100A4800DA22090EDF6E000120EE0DF00001E251FE
:100A5800D9260001E351DA22050EDF6EC58443D2A0
:100A680042D2C5BC01D001D018D0000120EE0DF053
:100A78000001E251D9260001E351DA22140EDF6E9B
:100A8800000120EE1CF00001E251D9260001E351DB
:100A9800DA22DF50FE0BC96E26D200017A6F000EF3
:100AA80000010001766F00017A5100017B6F2E0E64
:100AB80000010001776F00017B51000E0001000169
:100AC800796F000E0001786F00016FEC15F00001DE
:100AD80020EE0FF00001E251D9260001E351DA229D
:100AE800DF2A000120EE0EF00001E251D9260001B4
:100AF800E351DA22090EDF6E000120EE0DF000014D
:100B0800E251D9260001E351DA22050EDF6EC584D1
:100B1800EAD1E9D1C5BC01D001D022D0000120EE34
:100B28000DF00001E251D9260001E351DA22150E39
:100B3800DF6E000120EE1AF00001E251D926000113
:100B4800E351DA22000EDF6E000120EE10F0000102
:100B5800E251D9260001E351DA22DF50C96EC3D130
:100B680000017A6F000E00010001766F00017A51D2
:100B780000017B6F2E0E00010001776F00017B5191
:100B8800000E00010001796F000E0001786F00016E
:100B98006FEC15F0000120EE0FF00001E251D926AC
:100BA8000001E351DA22DF2A000120EE0EF00001F5
:100BB800E251D9260001E351DA22090EDF6E000165
:100BC80020EE0DF00001E251D9260001E351DA22AE
:100BD800050EDF6EC58487D186D1C5BC01D001D092
:100BE8000DD0000120EE0DF00001E251D9260001E0
:100BF800E351DA22160EDF6EC58275D100017A6FD5
:100C0800000E00010001766F00017A5100017B6F30
:100C18002E0E00010001776F00017B51000E0001CC
:100C28000001796F000E0001786F00016FEC15F07C
:100C3800000120EE0FF00001E251D9260001E35136
:100C4800DA22DF2A000120EE0EF00001E251D92657
:100C58000001E351DA22090EDF6E000120EE0DF0EB
:100C68000001E251D9260001E351DA22050EDF6EB8
:100C7800C58439D138D1000120EE0DF00001E251D0
:100C8800D9260001E351DA22170EDF6E000120EEAB
:100C98001CF00001E251D9260001E351DA22DF50AD
:100CA8000109C96E20D1C5BC01D001D00DD0000109
:100CB80020EE0DF00001E251D9260001E351DA22BD
:100CC800180EDF6EC5860FD100017A6F000E000185
:100CD8000001766F00017A5100017B6F2E0E000132
:100CE8000001776F00017B51000E00010001796F50
:100CF800000E0001786F00016FEC15F0000120EE86
:100D08000FF00001E251D9260001E351DA22DF2A6F
:100D1800000120EE0EF00001E251D9260001E35156
:100D2800DA22090EDF6E000120EE0DF00001E2511B
:100D3800D9260001E351DA22050EDF6EC584D3D02F
:100D4800D2D0C7A001D001D0CED0000120EE0DF046
:100D58000001E251D9260001E351DA22190EDF6EB3
:100D6800000120EE0BF00001E251D9260001E35109
:100D7800DA22DF5000017A6F00017A51010DF35039
:100D880000010001E225D96EF45000010001E321C1
:100D9800DA6EC9CFDFFF000120EE0BF00001E2514F
:100DA800D9260001E351DA22DF2A000120EE0BF0F8
:100DB8000001E251D9260001E351DA22DF50000197
:100DC8007A6F000120EE0AF00001E251D9260001F5
:100DD800E351DA22DF5000017A5DD8B001D001D0AA
:100DE80003D0C59AC5887FD0C58AC5887CD07BD0FA
:100DF8007AD0000120EE0BF00001E251D926000163
:100E0800E351DA22DF5000017A6F000120EE0AF088
:100E18000001E251D9260001E351DA22DF50000136
:100E28007A5DD8B001D001D00DD0000120EE0DF0D0
:100E38000001E251D9260001E351DA22180EDF6ED3
:100E4800C58651D0000120EE0AF00001E251D926F2
:100E58000001E351DA22DF5000010001766F000142
:100E68007A6F2D0E00010001776F00017A51E2C000
:100E780078F0E3C079F000016FEC15F0000120EE86
:100E88000DF00001E251D9260001E351DA22050EE6
:100E9800DF6EC58428D027D026D0000120EE0DF0C3
:100EA8000001E251D9260001E351DA22DF50090A94
:100EB800D8B41DD5180AD8B402D5030AD8B4D1D5E8
:100EC800060AD8B427D6010AD8B487D6030AD8B4F4
:100ED800D2D6010AD8B4E7D60F0AD8B432D7010A55
:100EE800D8B487D700D01200FC0ED36E9B8C0201B9
:100EF800020E01010101A46F0201170E0101A36F87
:100F0800010120EC16F00201020E01010101A46F9B
:100F180002011C0E0101A36F01018CEC16F0020105
:100F2800020E01010101A46F0201230E0101A36F4A
:100F380001016EEC12F00201020E01010101A46F21
:100F48000201150E0101A36F0101E0EC14F002018A
:100F5800020E01010101A46F0201130E0101A36F2A
:100F68000101E6EC15F035EC12F0000E936E000E60
:100F78008A6E000E806E000E896E0F0EC16E0F0E07
:100F8800926E0101CF6F900E01010101A36F010163
:100F9800CF5101019AEC15F00101CF6FD50E010177
:100FA8000101A36F0101CF51010137EC14F087EC67
:100FB80016F09F909F9C9F9A9F869D860101CF6FF8
:100FC8006C0E01010101A36F0101CF51000E010157
:100FD8000101A56F330E0101A46F010179EC0FF037
:100FE8000101CF6F000E02010201106F0101CF5104
:100FF80000D041EC0EF00101CF6F0A0E0101010192
:10100800BB6F0101CF510201020E01010101BD6F49
:101018000201210E0101BC6F0201020E0101010152
:10102800BF6F0201010E0101BE6F0101F9EC14F05E
:1010380002010201226F0201020122AF01D001D098
:101048009AD0B3D0B2D0B1D096D0AFD0AED0020142
:1010580002012251030AD8A401D001D035D00201DF
:101068000201102B0101CF6F100E020102010C6F5B
:101078000101CF5110C20DF202C20EF203C20FF2EB
:101088000201020E01010101AA6F0201110E010104
:10109800A96F000E01010101AC6F1F0E0101AB6FBA
:1010A800000E01010101AE6F040E0101AD6F0201D6
:1010B800020E01010101B06F02010C0E0101AF6FB8
:1010C8000101F7EC13F071D00201020E01010101D8
:1010D800AA6F0201110E0101A96F000E01010101A1
:1010E800AC6F1F0E0101AB6F020102012251010119
:1010F8000101AD6F0101AE6B0101ADBFAE07020189
:10110800020E01010101B06F0201010E0101AF6F72
:101118000101F7EC13F049D048D00201020E010199
:101128000101BE6F0201130E0101BD6F0201010131
:1011380021C2BFF101010101C06B0201020122516C
:1011480001010101C16F0101C26B0101C1BFC207E9
:101158000201020E01010101C46F0201010E010129
:10116800C36F01012EEC0AF020D001C200F21DD09D
:101178001CD01BD01AD00201020121510A0AD8B48E
:10118800CCD7220AD8B4F1D7010AD8B4EED7030ACB
:10119800D8B40BD0010AD8B408D0070AD8B405D0FF
:1011A800010AD8B454D701D000D00101CF6F0A0E7C
:1011B80001010101BB6F0101CF510201020E0101C2
:1011C8000101BD6F0201210E0101BC6F0201020E77
:1011D80001010101BF6F0201010E0101BE6F010192
:1011E80011EC15F002010201226F0201020122AF87
:1011F80001D001D050D0FDD6FCD6FBD64CD0020190
:10120800020E01010101C16F0201150E0101C06F3B
:101218000201010121C2C2F101010101C36B0201F6
:101228000201225101010101C46F0101C56B0101D5
:10123800C4BFC5070201020E01010101C76F020107
:10124800010E0101C66F010164EC09F0D2D622C279
:10125800B9F121C2BAF10201020E01010101BC6F0C
:101268000201010E0101BB6F010159EC15F000D01C
:1012780022C2B9F121C2BAF10201020E0101010133
:10128800BC6F0201010E0101BB6F010159EC15F0A1
:10129800B0D6AFD6AED60201020121510B0AD8B49E
:1012A800AED7150AD8B4E4D7010AD8B4E1D7370ABB
:1012B800D8B4CDD79ED69DD69CD69BD679EF00F0D4
:1012C800C6C1D9FFC7C1DAFFDF500101C86FC96BBA
:1012D800C0C1D9FFC1C1DAFFC8C1DEFFC9C1DDFF86
:1012E8000101C86F0A0E01010101BB6F0101C8515C
:1012F8000101010E01010101BD6F0101CE0E0101C5
:10130800BC6FC6C1BEF1C7C1BFF1010129EC15F020
:1013180001010101C46F0101C56B0101C4BFC5070B
:1013280001010101C551800A800F010ED8B4C45DC6
:10133800D8A001D001D08DD07AD079D00101C86F62
:10134800AA0E01010101A36F0101C8510101C96F72
:10135800040E01010101A46F0101C951010185ECCD
:1013680010F077D00101C86F9E0E01010101A36F33
:101378000101C8510101AFEC13F0C4C1A3F1C6C10A
:10138800A4F1C7C1A5F1010121EC0CF062D0010163
:10139800C86FE00E01010101A36F0101C8510101ED
:1013A800AFEC13F00101C86F000E01010101CA6F13
:1013B8000101C8510101C86F510E01010101CB6F34
:1013C8000101C8510101C86F020E01010101A36F9B
:1013D8000101C8510101010E01010101A56F0101BF
:1013E800CA0E0101A46F010121EC0CF032D00101F9
:1013F800C86FE00E01010101A36F0101C85101018D
:10140800AFEC13F00101C86F010E01010101A36FD8
:101418000101C8510101C96F030E01010101A46F47
:101428000101C951010185EC10F013D012D001015E
:101438000101CE511F0AD8B495D7350AD8B47ED742
:10144800050AD8B4A4D71F0AD8B4D1D702D001D07E
:1014580000D0120096D00101C56F010E01010101F3
:10146800B96F0101C5510101C66F2F0E01010101BC
:10147800BA6F0101C651C3C1BBF1C4C1BCF10101BE
:1014880059EC15F0000E01010101D16F020E0101A6
:10149800D06F92D00101C56F010E01010101B96F32
:1014A8000101C5510101C66F300E01010101BA6F7A
:1014B8000101C651C3C1BBF1C4C1BCF1010159EC62
:1014C80015F0000E01010101D16F030E0101D06F6B
:1014D80073D00101C56F9C0E01010101A36F0101C9
:1014E800C5510101AFEC13F00101C56F120E0101E6
:1014F8000101C76F0101C55100C1C8F10101C56FE4
:10150800000E01010101C96F0101C5510101C56F3B
:10151800000E01010101CA6F0101C551000E010150
:101528000101D16F040E0101D06F46D00101C56FD2
:101538009E0E01010101A36F0101C5510101AFEC2C
:1015480013F00101C56F010E01010101B96F01011D
:10155800C5510101C66F2A0E01010101BA6F0101CF
:10156800C651C3C1BBF1C4C1BCF1010159EC15F0AE
:10157800000E01010101D16F010E0101D06F1CD0D5
:101588001BD00101D0C1C5F10101D1C1C6F10101D2
:10159800C651000AD8B401D00FD00101C551010AC3
:1015A800D8B459D7030AD8B475D7010AD8B491D793
:1015B800070AD8B4BBD700D01200010120EE35F0DD
:1015C8000101AD51D9260101AE51DA22DF500101E6
:1015D8000101B66F01010101B6510D0DF350010172
:1015E8000101AD2501010101B96FF45001010101AB
:1015F800AE210101BA6F010EB9C1D9FFBAC1DAFF34
:10160800DF6201D001D075D0010120EE01F00101A7
:10161800B951D9260101BA51DA22DF50010101017D
:10162800AF6101D001D003D0FD0E66D065D00101B5
:1016380020EE01F00101B951D9260101BA51DA228F
:10164800DF500101B46F0101B45101010101B76F0D
:101658000101B86BB2C1A3F1B3C1A4F1030E01013A
:101668000101B9250101B46F000E01010101BA2180
:101678000101B56FB4C1A5F1B5C1A6F1B7C1A7F114
:10168800B8C1A8F1010159EC13F0010120EE35F0C1
:101698000101AD51D9260101AE51DA22010110EE46
:1016A80035F00101AD51E1260101AE51E222E750CA
:1016B8000101B46F0101B429030BDF6E010120EEB3
:1016C80002F00101B951D9260101BA51DA22B0C19B
:1016D800E1FFB1C1E2FFDFCFE7FFB9C1D9FFBAC16E
:1016E800DAFF000EDF6E01010101B75105D004D009
:1016F80003D0FC0E01D000D01200000120EE35F01E
:1017080000016A51D92600016B51DA22DF5000012D
:101718000001736F0001000173510D0DF3500001BA
:1017280000016A2500010001766FF45000010001F4
:101738006B210001776F010E76C0D9FF77C0DAFF01
:10174800DF6201D001D075D0000120EE01F0000168
:101758007651D92600017751DA22DF5000010001C5
:101768006C6101D001D003D0FD0E66D065D00001B8
:1017780020EE01F000017651D92600017751DA22D6
:10178800DF500001716F0001715100010001746F99
:101798000001756B6FC060F070C061F0030E00014E
:1017A800000176250001716F000E0001000177210C
:1017B8000001726F71C062F072C063F074C064F0AF
:1017C80075C065F0000184EC13F0000120EE35F0DF
:1017D80000016A51D92600016B51DA22000110EE8E
:1017E80035F000016A51E12600016B51E222E75011
:1017F8000001716F00017129030BDF6E000120EEFB
:1018080002F000017651D92600017751DA226DC025
:10181800E1FF6EC0E2FFDFCFE7FF76C0D9FF77C0F8
:10182800DAFF000EDF6E00010001745105D004D00C
:1018380003D0FC0E01D000D01200C7A401D001D003
:1018480002D08BD08AD0000120EE1AF00001E251BC
:10185800D9260001E351DA22000EDF6E43D00001E1
:1018680020EE1AF00001E251D9260001E351DA22F4
:10187800DF500101A66F0101A651010DF3500101CE
:101888000101A425D96EF45001010101A521DA6EE8
:10189800000110EE1AF00001E251E1260001E351C7
:1018A800E222E7500101A76F0101A751010D100EB7
:1018B800F326000EF422F35000010001E225E16E48
:1018C800F45000010001E321E26EDFCFE7FF0001E1
:1018D80020EE1AF00001E251D9260001E351DA2284
:1018E800DF2A00D0000120EE1AF00001E251D926CB
:1018F8000001E351DA22DF500101A66F0101010165
:10190800A3510101A65DD8A001D001D0A8D700D06D
:10191800000120EE1AF00001E251D9260001E3513E
:10192800DA220101A3C1DFFF000120EE1BF0000154
:10193800E251D9260001E351DA22000EDF6E0001E0
:1019480020EE0DF00001E251D9260001E351DA2220
:10195800110EDF6EC596C58000D01200000120EE82
:101968001AF00001E251D9260001E351DA22000EF3
:10197800DF6E43D0000120EE1AF00001E251D926B3
:101988000001E351DA22DF500001636F0001635167
:10199800010DF350000100016125D96EF4500001DA
:1019A80000016221DA6E000110EE1AF00001E25126
:1019B800E1260001E351E222E7500001646F0001D3
:1019C8006451010D100EF326000EF422F3500001AD
:1019D8000001E225E16EF45000010001E321E26E0E
:1019E800DFCFE7FF000120EE1AF00001E251D9260F
:1019F8000001E351DA22DF2A00D0000120EE1AF0BC
:101A08000001E251D9260001E351DA22DF5000013A
:101A1800636F0001000160510001635DD8A001D02F
:101A280001D0A8D700D0000120EE1AF00001E25141
:101A3800D9260001E351DA22000160C0DFFF00016E
:101A480020EE1BF00001E251D9260001E351DA2211
:101A5800010EDF6E000120EE10F00001E251D926E0
:101A68000001E351DA22DF50C96EC6881200010175
:101A78000101AFC1B4F101010101B56B010120EE13
:101A880034F00101AD51D9260101AE51DA22DF50FF
:101A980001010101B66F01010101B6510D0DF350AD
:101AA80001010101AD2501010101B76FF4500101E8
:101AB8000101AE210101B86FB7C1D9FFB8C1DAFF82
:101AC800DF50D8B401D001D003D0FF0E52D051D08E
:101AD800010120EE01F00101B751D9260101B851E9
:101AE800DA220101AFC1DFFF010120EE02F001019E
:101AF800B751D9260101B851DA220101B0C1DFFF7F
:101B0800030E01010101B72501010101A36F000EB8
:101B180001010101B8210101A46FB1C1A5F1B2C150
:101B2800A6F1B4C1A7F1B5C1A8F1010159EC13F0B0
:101B3800010120EE34F00101AD51D9260101AE5169
:101B4800DA22010110EE34F00101AD51E126010164
:101B5800AE51E222E7500101B36F0101B329030B33
:101B6800DF6EB7C1D9FFB8C1DAFF010EDF6E010E13
:101B780000D01200000100016CC071F000010001EA
:101B8800726B000120EE34F000016A51D926000181
:101B98006B51DA22DF5000010001736F0001000170
:101BA80073510D0DF350000100016A250001000179
:101BB800746FF450000100016B210001756F74C04F
:101BC800D9FF75C0DAFFDF50D8B401D001D003D0F7
:101BD800FF0E52D051D0000120EE01F000017451E7
:101BE800D92600017551DA2200016CC0DFFF00011F
:101BF80020EE02F000017451D92600017551DA2255
:101C080000016DC0DFFF030E000100017425000113
:101C18000001606F000E0001000175210001616F75
:101C28006EC062F06FC063F071C064F072C065F09E
:101C3800000184EC13F0000120EE34F000016A5139
:101C4800D92600016B51DA22000110EE34F00001B0
:101C58006A51E12600016B51E222E7500001706FE2
:101C680000017029030BDF6E74C0D9FF75C0DAFF5D
:101C7800010EDF6E010E00D0120001012DEC13F0F1
:101C880001010101A8510101A711D8A401D001D077
:101C980002D062D061D08A860101A96F010E0001CD
:101CA8000001A76F0101A95100D00101010E010136
:101CB8000101A46F0101370E0101A36F010156EC68
:101CC80014F00009D8B401D001D00BD00101A96FDC
:101CD800000E00010001A76F0101A9518A963CD0AE
:101CE8003BD00101010E01010101A46F01016D0E3C
:101CF8000101A36F010156EC14F00009D8B401D01A
:101D080001D00BD00101A96F000E00010001A76FDF
:101D18000101A9518A9620D01FD00101A96F0A0E8E
:101D280001010101A36F0101A951010137EC16F06E
:101D38008AA601D002D0010E01D0000E0101A96FC0
:101D48000101A947A947A9478A500101A919F70B19
:101D5800A9198A6EAAD7A9D71200000120EE0CF0A3
:101D68000001E251D9260001E351DA22010EDF6EAB
:101D7800000120EE0AF00001E251D9260001E351EA
:101D8800DA22000EDF6E000100016051D8B401D0E4
:101D980001D043D0C7AA01D001D021D0000120EE44
:101DA8000DF00001E251D9260001E351DA22050EB7
:101DB800DF6E000120EE0FF00001E251D92600018C
:101DC800E351DA22DF2A000120EE0EF00001E25191
:101DD800D9260001E351DA22050EDF6E2AD0C7A406
:101DE80001D001D00CD0000120EE0DF00001E2512D
:101DF800D9260001E351DA22080EDF6E1AD000015D
:101E080020EE0DF00001E251D9260001E351DA225B
:101E1800070EDF6E0ED00DD00CD0000120EE0DF0B5
:101E28000001E251D9260001E351DA22060EDF6EE5
:101E380000D012009EAA01D001D041D020EE04F0BB
:101E48003B50D9263C50DA22DF501B6E1B50010D47
:101E5800F3503B24D96EF4503C20DA6E72EC14F047
:101E6800DF6E20EE04F03B50D9263C50DA22DF2A00
:101E780020EE04F03B50D9263C50DA22040EDF62F3
:101E880001D001D01CD020EE04F03B50D9263C50A4
:101E9800DA22DF50176E1B6E1F0E186E1B503BC0E8
:101EA80019F03CC01AF0C2EC15F020EE04F03B50DB
:101EB800D9263C50DA22000EDF6E01D000D037A6BA
:101EC80001D001D011D0AB98AB881B6E000E176EF5
:101ED8001B501C6E1E0E186E1C50000E1A6E000E43
:101EE800196EC2EC15F000D01200000EAC6E000E98
:101EF800AB6E01010101A3A101D001D001D0AC88D2
:101F080001010101A3A301D001D002D0AC8CAB8C9C
:101F180001010101A3A501D001D001D0AC8E0101BE
:101F28000101A3A701D001D002D0AB8801D0AB8AB0
:101F380001010101A3A901D001D001D0AC849E9870
:101F480001010101A3AB01D001D001D0AB86010191
:101F58000101A3AD01D001D002D09D8A01D09D9A84
:101F68009E9A01010101A3AF01D001D002D09D8842
:101F780001D09D98A4C1AFFF01010101A551B06E28
:101F8800AC8AAB8E949C948EACA801D001D006D0BC
:101F9800ACBE01D001D002D0948C00D01200000158
:101FA80020EE04F00001E451D9260001E551DA22BF
:101FB8000101A4C1DFFF0101A76F000E01010101AA
:101FC800A86F0101A75122D001010101A851010DFB
:101FD800F35001010101A525D96EF4500101010159
:101FE800A621DA6E01010101A851010DF35000018B
:101FF8000001E425E16EF45000010001E521E26EE4
:10200800DFCFE7FF01010101A82B00D00101010189
:10201800A45101010101A85DD8A001D001D0D4D7F5
:1020280000D0E4C0D9FFE5C0DAFFDF5001010101AB
:10203800A36F0101F6EC15F0000120EE04F0000199
:10204800E451D9260001E551DA22DF069D88120005
:102058000DC012F0136A20EE34F00B50D9260C5044
:10206800DA22DF50146E14500D0DF3500B24156E48
:10207800F4500C20166E15C0D9FF16C0DAFFDF50D9
:10208800D8B401D001D003D0FF0E3AD039D020EE19
:1020980001F01550D9261650DA220DC0DFFF20EEC8
:1020A80002F01550D9261650DA220EC0DFFF030EB3
:1020B8001524016E000E1620026E0FC003F010C02A
:1020C80004F012C005F013C006F0D3EC13F020EEB4
:1020D80034F00B50D9260C50DA2210EE34F00B50A5
:1020E800E1260C50E222E750116E1128030BDF6E37
:1020F80015C0D9FF16C0DAFF010EDF6E010E00D041
:102108001200C7A401D001D002D048D047D00001A6
:1021180020EE0AF00001E251D9260001E351DA224B
:102128000101A4C1DFFF000120EE0BF00001E25124
:10213800D9260001E351DA22000EDF6E000120EEFD
:102148001AF00001E251D9260001E351DA22010E0A
:10215800DF6E000120EE10F00001E251D9260001E7
:10216800E351DA220101A3C1DFFF000120EE1BF0D9
:102178000001E251D9260001E351DA22000EDF6E98
:10218800000120EE0DF00001E251D9260001E351D3
:10219800DA22120EDF6EC586C58000D01200060056
:1021A800EACF9CF0E1CF9DF0E2CF9EF0D9CF9FF02F
:1021B800DACFA0F0F3CFA1F0F4CFA2F0F6CFA3F0DE
:1021C800F7CFA4F0F8CFA5F0F5CFA6F09EA601D0E2
:1021D80001D004D09E96AFEC15F000D0F2A401D047
:1021E80001D004D0F2949FEC12F000D09EA801D048
:1021F80001D004D09E986EEC11F000D021EC11F0C3
:10220800A6C0F5FFA5C0F8FFA4C0F7FFA3C0F6FF5E
:10221800A2C0F4FFA1C0F3FFA0C0DAFF9FC0D9FF9E
:102228009EC0E2FF9DC0E1FF9CC0EAFF9BC0E9FFA2
:102238009AC0FBFF99C0FAFF110000010001A767CF
:1022480001D001D002D045D044D00001FEEC12F0FC
:1022580000010001635100016211D8B401D001D01E
:1022680002D037D036D0000141EC16F00001000151
:10227800615100016011D8A401D001D002D029D049
:1022880028D00101010E00010001616F0101370E24
:102298000001606F00018EEC14F00009D8B401D081
:1022A80001D002D016D015D00101010E00010001A5
:1022B800616F01016D0E0001606F00018EEC14F07A
:1022C8000009D8B401D001D002D003D002D091ECDB
:1022D80016F01200000120EE04F00001E451D926A6
:1022E8000001E551DA22DF50D8B401D001D035D051
:1022F800000120EE04F00001E451D9260001E55167
:10230800DA22DF500001616F626B0001611F621FFA
:10231800614B622B040E00016127000E622300014D
:10232800615100010001E425D96E000162510001EC
:102338000001E521DA6EDF5000010001606F000145
:1023480012EC16F0000120EE04F00001E451D92649
:102358000001E551DA22DF0602D09D9800D0120074
:10236800010120EE34F00101A351D9260101A45145
:10237800DA22000EDF6E010120EE35F00101A351D3
:10238800D9260101A451DA22000EDF6E0101A56FE2
:10239800000E01010101A66F0101A551030E010103
:1023A8000101A66501D001D002D01CD01BD00101CB
:1023B8000101A6510D0DF35001010101A325D96EAC
:1023C800F45001010101A421DA6E000EDF6E010153
:1023D8000101A62B030E01010101A66501D001D060
:1023E800E6D700D01200000120EE04F00001E4510D
:1023F800D9260001E551DA22DF50D8B401D001D046
:102408002DD0000120EE04F00001E451D92600018E
:10241800E551DA22DF50026E036A021E031E024AE9
:10242800032A040E0226000E0322025000010001B6
:10243800E425D96E035000010001E521DA6EDF5072
:10244800016E04EC16F0000120EE04F00001E451E6
:10245800D9260001E551DA22DF0602D09D9800D086
:1024680012000101A76F000E00010001A76F010112
:10247800A7510101010E01010101A46F01016D0EB7
:102488000101A36F0101B4EC11F00101010E01017A
:102498000101A46F0101370E0101A36F0101B4EC22
:1024A80011F00101010E01010101A46F0101010EEA
:1024B8000101A36F0101B4EC11F00001000E01014C
:1024C8000101A46F0001AC0E0101A36F0101B4EC7E
:1024D80011F01200A3C1E2F0A4C1E3F0000120EE64
:1024E8000AF00001E251D9260001E351DA22000E78
:1024F800DF6E000120EE0CF00001E251D926000148
:10250800E351DA22000EDF6E000120EE0DF000012B
:10251800E251D9260001E351DA22050EDF6E0001EF
:1025280020EE0FF00001E251D9260001E351DA2232
:10253800000EDF6E1200000E00010001616F000E38
:102548000001606F000178EC16F000016FEC16F0E6
:10255800000160C07CF0000161C07DF000017A6F6D
:10256800020E00010001766F00017A5100017B6FB5
:102578000A0E00010001776F00017B510001000E77
:1025880000010001796F00017C0E0001786F0001E5
:102598006FEC15F01200F2AC01D001D00AD0000E99
:1025A80001010101A66F000E0101A56F22D021D003
:1025B80020D001012DEC16F001010101A451010107
:1025C800A311D8B401D001D00AD0000E0101010135
:1025D800A66F000E0101A56F0CD00BD00AD0000E1B
:1025E80001010101A66F010E0101A56F02D001D002
:1025F80000D01200F2AC01D001D00AD0000E0001C8
:102608000001636F000E0001626F22D021D020D03C
:10261800000141EC16F00001000161510001601158
:10262800D8B401D001D00AD0000E00010001636FB8
:10263800000E0001626F0CD00BD00AD0000E000112
:102648000001636F010E0001626F02D001D000D05B
:1026580012000101CFEC12F001010101A6510101A4
:10266800A511D8A401D001D016D001012DEC16F087
:1026780001010101A4510101A311D8A401D001D085
:102688000AD0000E01010101A86F010E0101A76F18
:102698000BD00AD009D0000E01010101A86F000E6D
:1026A8000101A76F01D000D01200A5C1ABF1A6C1EE
:1026B800ACF1A3C1A9F1A4C1AAF113D0ABC1D9FF50
:1026C800ACC1DAFFA9C1E1FFAAC1E2FFDFCFE7FF92
:1026D80001010101AB4BAC2B01010101A94BAA2B54
:1026E80000D001010101A707D8A0A8070101A72967
:1026F800D8B4A829D8A401D001D0E0D700D01200BE
:1027080062C068F063C069F060C066F061C067F0DD
:1027180013D068C0D9FF69C0DAFF66C0E1FF67C09F
:10272800E2FFDFCFE7FF00010001684B692B0001E2
:102738000001664B672B00D0000100016407D8A098
:10274800650700016429D8B46529D8A401D001D04F
:10275800E0D700D012000101A46F020E00010001B1
:10276800AA6F0101A4511D0EC86E000EC76E000E9F
:10277800C66E000EC56EC686C78EC68A94869488B5
:102788008B868B88000120EE1CF00001E251D926CF
:102798000001E351DA220101A3C1DFFF120003C0E7
:1027A80009F004C00AF001C007F002C008F00FD019
:1027B80009C0D9FF0AC0DAFF07C0E1FF08C0E2FF7D
:1027C800DFCFE7FF094A0A2A074A082A00D0050688
:1027D800D8A006060528D8B40628D8A401D001D068
:1027E800E7D700D0120001010101AB511E0AAC115C
:1027F800D8A401D001D002D015D014D00101010114
:10280800AB511F0AAC11D8A401D001D00BD0ADC177
:10281800A4F1AFC1A5F1B0C1A6F10101D3EC0FF04D
:1028280001D000D0120081EC16F001C021F002C0E6
:1028380022F0010E226E230E216E21C01FF02250BD
:10284800206E38C01EF0382A1B6E040E176E1B50FF
:102858001C6E280E186E1C50000E1A6E1D0E196E76
:10286800C2EC15F0120001010101A3517E0BCD6EDF
:1028780001010101A3AD01D001D002D0CD8E02D05B
:10288800CD9E00D0000ECF6E000ECE6E9E90010140
:102898000101A3AF01D001D002D09D8001D09D904D
:1028A800CD801200010120EE35F00101A351D92697
:1028B8000101A451DA22DF500101A56F0101A551E0
:1028C8000D0DF35001010101A325D96EF45001014A
:1028D8000101A421DA6EDF5000D01200F20E371683
:1028E800ABAC01D001D007D03790ABA001D001D05C
:1028F80002D0378000D0ABA401D001D001D03784FA
:10290800ABA201D001D001D03786AECF01F0015083
:1029180000D01200000120EE35F000016051D926E8
:1029280000016151DA22DF500001626F000162513B
:102938000D0DF350000100016025D96EF45000011F
:1029480000016121DA6EDF5000D01200000E026E25
:10295800000E016E4BEC16F054EC16F001C01DF0A1
:1029680002C01EF01B6E020E176E1B501C6E0A0E64
:10297800186E1C50000E1A6E1D0E196ED4EC15F050
:1029880012005DEC16F001C01DF002C01EF0000E32
:10299800026E000E016E66EC16F01B6E020E176ECC
:1029A8001B501C6E0B0E186E1C50000E1A6E1D0E5E
:1029B800196EC2EC15F012000101A56F000E00019E
:1029C8000001AB6F0101A5510101A56F000E0001C7
:1029D8000001A96F0101A551A3C1D9FFA4C1DAFF64
:1029E800000EDE6E000EDD6E12000101010E010107
:1029F8000101AE6F0101370E0101AD6FBBC1AFF12F
:102A0800BCC1B0F1BDC1B1F1BEC1B2F1BFC1B3F13A
:102A18000101E1EC0AF000D012000101010E0101F0
:102A28000101AE6F01016D0E0101AD6FBBC1AFF1C8
:102A3800BCC1B0F1BDC1B1F1BEC1B2F1BFC1B3F10A
:102A48000101E1EC0AF000D012000101010E0101C0
:102A58000101AE6F0101010E0101AD6FBBC1AFF104
:102A6800BCC1B0F1BDC1B1F1BEC1B2F1BFC1B3F1DA
:102A78000101E1EC0AF000D012000101010E000191
:102A880000016B6F0101010E00016A6F78C06CF0E4
:102A980079C06DF07AC06EF07BC06FF07CC070F0CA
:102AA800000181EC0BF000D012000101010E0101C0
:102AB8000101AE6F0101010E0101AD6FB9C1AFF1A6
:102AC800BAC1B0F1BBC1B1F1BCC1B2F101013BEC7B
:102AD8000DF000D012000101010E000100016B6F22
:102AE8000101370E00016A6F76C06CF077C06DF097
:102AF80078C06EF079C06FF00001BEEC0DF000D028
:102B0800120001EE00F0A30EEE6AE806FDE100EE09
:102B1800A7F03B0EEE6AE806FDE100EE34F0070E82
:102B2800EE6AE806FDE1000178EF07F00101010116
:102B3800A3517F0BD56E000ED76E000ED66EF294A1
:102B480001010101A3AF01D001D002D0F28A01D066
:102B5800F29AD58E120007D07BEC00F00ED062EC12
:102B680004F00BD00AD000010001AA51010AD8B420
:102B7800F3D7030AD8B4F3D700D012000101010E2D
:102B88000C6E01016D0E0B6E17C00DF018C00EF023
:102B980019C00FF01AC010F02CEC10F000D0120081
:102BA8000101010E0C6E0101370E0B6E17C00DF0FE
:102BB80018C00EF019C00FF01AC010F02CEC10F06D
:102BC80000D01200000E01010101D16F010E0101B8
:102BD800D06F0101A56F000E01010101006F010115
:102BE800A5511200ACAC01D001D007D0AC9037A2EF
:102BF80001D001D002D0AC8000D0A3C1ADFF12003B
:102C0800ACAC01D001D007D0AC9037A201D001D034
:102C180002D0AC8000D001C0ADFF1200ACAC01D036
:102C280001D007D0AC9037A201D001D002D0AC803F
:102C380000D060C0ADFF1200A3C13BF0A4C13CF0BE
:102C480020EE04F03B50D9263C50DA22000EDF6E0D
:102C58001200000EF2AE010E01010101A36F010185
:102C6800A46B00D01200FA0E00F0E82EFDD7010187
:102C78000101A32FF8D700D01200000EF2AE010E0A
:102C880000010001606F0001616B00D0120001C0FB
:102C980003F002C004F004C0D7FF03C0D6FF12003F
:102CA800D6CF03F0D7CF04F003C001F004C002F080
:102CB8001200CECF03F0CFCF04F003C001F004C060
:102CC80002F0120001C003F002C004F004C0CFFFFC
:102CD80003C0CEFF1200D6CF62F0D7CF63F062C038
:102CE80060F063C061F0120060C062F061C063F020
:102CF80063C0D7FF62C0D6FF1200C450026EC35033
:102D0800016E00D01200D08EF28EF28CF194120077
:102D1800A3C1E4F0A4C1E5F01200D38E03001200B1
:020000040020DA
:08000000FFFFFFFFFFFFFFFF00
:020000040030CA
:0E000000FF08191EFF8080FF0FC00FE00F40A9
:00000001FF
