:0400000069EF00F0B4
:10000800FACF99F0FBCF9AF0E9CF9BF023ED0EF0F1
:10001800D8CF1FF0E8CF20F0E0CF21F0FACF22F0C0
:10002800FBCF23F0E9CF24F0EACF25F0E1CF26F08B
:10003800E2CF27F0D9CF28F0DACF29F0F3CF2AF092
:10004800F4CF2BF0F6CF2CF0F7CF2DF0F8CF2EF021
:10005800F5CF2FF09EA001D001D004D09E90FAECED
:1000680010F000D09EAC01D001D004D09E9C6CEC66
:1000780012F000D09EAA01D001D004D09E9AC8ECFC
:100088000CF000D02FC0F5FF2EC0F8FF2DC0F7FFF1
:100098002CC0F6FF2BC0F4FF2AC0F3FF29C0DAFFFB
:1000A80028C0D9FF27C0E2FF26C0E1FF25C0EAFF2C
:1000B80024C0E9FF23C0FBFF22C0FAFF21C0E0FFF4
:1000C80020C0E8FF1FC0D8FF1000B9EF11F00001F1
:1000D8007D6F000E00010001986F00017D51000145
:1000E8007D6F000E00010001906F00017D5100013D
:1000F8007D6F000E00010001976F00017D51000126
:100108007D6F000E00010001966F00017D51000116
:100118007D6F000E00010001916F00017D51C6AC9A
:1001280001D001D02AD0C69C000120EE0DF00001BC
:10013800E151D9260001E251DA22050EDF6E0001F5
:100148007D6F010E00010001916F00017D510001DA
:1001580020EE0FF00001E151D9260001E251DA2228
:10016800DF2A000120EE0EF00001E151D92600013E
:10017800E251DA22040EDF6E00D0C7A001D001D010
:100188000BD0C9CF94F000017D6F010E0001000172
:10019800986F00017D5100D000010001916701D0E6
:1001A80001D051D239D238D2C7A601D001D04BD212
:1001B80098C060F000015BEC0CF0000120EE0DF03F
:1001C8000001E151D9260001E251DA22080EDF626E
:1001D80001D001D038D200017D6F000E000100016E
:1001E800986F00017D5100017D6F010E0001000133
:1001F800966F00017D5127D226D225D2C7A801D0FB
:1002080001D040D0000120EE0CF00001E151D926C8
:100218000001E251DA22DF2A000100019851D8B426
:1002280001D001D023D0C7BA01D001D009D0000134
:100238007D6F010E00010001976F00017D5116D0FE
:10024800000120EE0FF00001E151D9260001E25132
:10025800DA22DF2A000120EE0EF00001E151D92652
:100268000001E251DA22060EDF6E00D0000120EE16
:100278000DF00001E151D9260001E251DA22050E04
:10028800DF6EE1D1000100019851D8B401D001D04E
:10029800DAD1000120EE0CF00001E151D92600016D
:1002A800E251DA22DF2AC7BA01D001D02DD0C7B473
:1002B80001D001D00CD0000120EE0DF00001E15179
:1002C800D9260001E251DA22070EDF6EBCD1000107
:1002D80020EE0DF00001E151D9260001E251DA22A9
:1002E800080EDF6E00017D6F010E00010001966FA0
:1002F80000017D5100017D6F000E00010001986F23
:1003080000017D51A0D19FD1000120EE0FF0000126
:10031800E151D9260001E251DA22DF2A000120EE5C
:100328000DF00001E151D9260001E251DA22050E53
:10033800DF6E000120EE0EF00001E151D926000128
:10034800E251DA22060EDF6E7ED17DD17CD17BD1DF
:10035800000120EE1BF00001E151D9260001E25115
:10036800DA22DF5000017D6F000120EE1AF0000153
:10037800E151D9260001E251DA22DF5000017D5D0A
:10038800D8B001D001D032D0000120EE1BF000011E
:10039800E151D9260001E251DA22DF5000017D6FD8
:1003A80000017D51010D100EF326000EF422F350CA
:1003B80000010001E125D96EF45000010001E2219D
:1003C800DA6EDF50C96E000120EE1BF00001E1512A
:1003D800D9260001E251DA22DF2A00017D6F010EE1
:1003E80000010001906F00017D512DD1000120EE28
:1003F8000DF00001E151D9260001E251DA22050E83
:10040800DF6E21D120D1C7A801D001D07BD0000157
:1004180020EE0CF00001E151D9260001E251DA2268
:10042800DF2A000100019851D8B401D001D055D07D
:10043800C7AA01D001D02FD0000120EE0AF0000198
:10044800E151D9260001E251DA22DF5000017D6F27
:1004580000017D51010DF35000010001E125D96E25
:10046800F45000010001E221DA6E000194C0DFFFC0
:10047800000120EE0AF00001E151D9260001E25105
:10048800DA22DF2A00017D6F010E00010001976F5B
:1004980000017D512BD0000120EE0FF00001E15149
:1004A800D9260001E251DA22DF2A000120EE0EF0FF
:1004B8000001E151D9260001E251DA22060EDF6E71
:1004C800000120EE0DF00001E151D9260001E251B2
:1004D800DA22050EDF6E0AD009D000017D6F010E09
:1004E80000010001976F00017D5100D0000120EE4E
:1004F8000DF00001E151D9260001E251DA22050E82
:10050800DF6EA1D0000100019851D8B401D001D00C
:100518009AD0000120EE0CF00001E151D92600012B
:10052800E251DA22DF2AC7AA01D001D027D0000180
:1005380020EE0AF00001E151D9260001E251DA2249
:10054800DF5000017D6F00017D51010DF350000166
:100558000001E125D96EF45000010001E221DA6EB4
:10056800000194C0DFFF000120EE0AF00001E15114
:10057800D9260001E251DA22DF2A65D0C7A401D0CA
:1005880001D024D0000120EE0DF00001E151D92660
:100598000001E251DA22080EDF6E00017D6F010EC4
:1005A80000010001976F00017D5100017D6F010E70
:1005B80000010001966F00017D5100017D6F000E62
:1005C80000010001986F00017D513DD0000120EE2F
:1005D8000FF00001E151D9260001E251DA22DF2AA9
:1005E800000120EE0EF00001E151D9260001E25190
:1005F800DA22060EDF6E000120EE0DF00001E15157
:10060800D9260001E251DA22050EDF6E1CD01BD07C
:100618001AD019D018D017D0000120EE0DF0000123
:10062800E151D9260001E251DA22DF50050AD8B497
:10063800BBD5030AD8B4E2D5010AD8B4E4D60F0A68
:10064800D8B486D600D000010001986701D001D047
:1006580007D0000100019051D8B401D001D007D0D3
:10066800C6B801D001D003D0C68801D000D000019F
:1006780020EE0AF00001E151D9260001E251DA2208
:10068800080EDF6401D001D027D000010001976770
:1006980001D001D021D0000120EE0DF00001E15180
:1006A800D9260001E251DA22050EDF6E000120EEA4
:1006B8000FF00001E151D9260001E251DA22DF2AC8
:1006C800000120EE0EF00001E151D9260001E251AF
:1006D800DA22070EDF6E00D0000100019751D8B46E
:1006E80001D001D020D0E1C0D9FFE2C0DAFFDF504D
:1006F800AA0AD8B401D001D074D0000120EE0AF0C3
:100708000001E151D9260001E251DA22DF5000014F
:100718000001616FE1C062F0E2C063F00001E5EC46
:100728000EF05FD05ED0000120EE0FF00001E15125
:10073800D9260001E251DA22DF50D8B401D001D025
:1007480050D0000120EE0FF00001E151D926000140
:10075800E251DA22DF50000100018D6F000120EE26
:100768000EF00001E151D9260001E251DA22DF50F2
:10077800000100018E6F000120EE0CF00001E15134
:10078800D9260001E251DA22DF50000100018F6F03
:1007980000017D6F030E00010001766F00017D519D
:1007A80000017E6F290E00010001776F00017E5164
:1007B8000001000E00010001796F00018D0E00019B
:1007C800786F0001A3EC11F0000120EE0FF000019A
:1007D800E151D9260001E251DA22000EDF6E01D084
:1007E80000D0000100019651D8B401D001D07BD0CF
:1007F80000017D6F0A0E00010001786F00017D5134
:100808000001000E000100017A6F0001950E000141
:10081800796F0001000E000100017C6F00017F0E5E
:1008280000017B6F00015FEC11F000010001926F85
:100838000001936B000192BF9307000100019351DF
:10084800800A800F010ED8B4925DD8A001D001D0E3
:100858000FD092C060F00001000E00010001626F2D
:1008680000017F0E0001616F00015CEC0AF032D0DC
:1008780000010001A82B00017D6F530E000100014B
:10088800896F00017D51A8C08AF000017D6F000EBC
:10089800000100018B6F00017D5100017D6F000E8A
:1008A800000100018C6F00017D5100017D6F040E75
:1008B80000010001606F00017D510001000E000180
:1008C8000001626F0001890E0001616F00015CEC9C
:1008D8000AF000D000017D6F000E00010001966F44
:1008E80000017D5100D01200EED2000120EE0DF083
:1008F8000001E151D9260001E251DA22090EDF6E2A
:10090800000120EE1CF00001E151D9260001E2515E
:10091800DA22DF50FE0BC96EFCD2C5BC01D001D073
:1009280079D0000120EE1BF00001E151D926000129
:10093800E251DA22DF5000017A6F000120EE1AF04E
:100948000001E151D9260001E251DA22DF5000010D
:100958007A5DD8B001D001D02AD0000120EE1BF07A
:100968000001E151D9260001E251DA22DF500001ED
:100978007A6F00017A51010D100EF326000EF42251
:10098800F35000010001E125D96EF4500001000187
:10099800E221DA6EDF50C96E000120EE1BF0000183
:1009A800E151D9260001E251DA22DF2AB2D2000150
:1009B8007A6F000E00010001766F00017A51000184
:1009C8007B6F2B0E00010001776F00017B51000E39
:1009D80000010001796F000E0001786F0001A3EC9F
:1009E80011F0000120EE1AF00001E151D9260001B2
:1009F800E251DA22000EDF6E000120EE0DF0000158
:100A0800E151D9260001E251DA22050EDF6EC584D4
:100A180080D27FD200017A6F000E00010001766F4C
:100A280000017A5100017B6F2C0E00010001776FE5
:100A380000017B51000E00010001796F000E0001DA
:100A4800786F0001A3EC11F0000120EE0FF0000117
:100A5800E151D9260001E251DA22DF2A000120EE15
:100A68000EF00001E151D9260001E251DA22090E07
:100A7800DF6E000120EE0DF00001E151D9260001E2
:100A8800E251DA22050EDF6EC58443D242D2C5BCDC
:100A980001D001D018D0000120EE0DF00001E15185
:100AA800D9260001E251DA22140EDF6E000120EE91
:100AB8001CF00001E151D9260001E251DA22DF5091
:100AC800FE0BC96E26D200017A6F000E00010001EC
:100AD800766F00017A5100017B6F2E0E0001000134
:100AE800776F00017B51000E00010001796F000E45
:100AF8000001786F0001A3EC11F0000120EE0FF067
:100B08000001E151D9260001E251DA22DF2A000171
:100B180020EE0EF00001E151D9260001E251DA225F
:100B2800090EDF6E000120EE0DF00001E151D9261B
:100B38000001E251DA22050EDF6EC584EAD1E9D15F
:100B4800C5BC01D001D022D0000120EE0DF000017B
:100B5800E151D9260001E251DA22150EDF6E0001BB
:100B680020EE1AF00001E151D9260001E251DA2203
:100B7800000EDF6E000120EE10F00001E151D926D1
:100B88000001E251DA22DF50C96EC3D100017A6F49
:100B9800000E00010001766F00017A5100017B6FA1
:100BA8002E0E00010001776F00017B51000E00013D
:100BB8000001796F000E0001786F0001A3EC11F0BD
:100BC800000120EE0FF00001E151D9260001E251A9
:100BD800DA22DF2A000120EE0EF00001E151D926C9
:100BE8000001E251DA22090EDF6E000120EE0DF05D
:100BF8000001E151D9260001E251DA22050EDF6E2B
:100C0800C58487D186D1C5BC01D001D00DD00001E3
:100C180020EE0DF00001E151D9260001E251DA225F
:100C2800160EDF6EC58275D100017A6F000E0001C5
:100C38000001766F00017A5100017B6F2E0E0001D2
:100C48000001776F00017B51000E00010001796FF0
:100C5800000E0001786F0001A3EC11F0000120EEF6
:100C68000FF00001E151D9260001E251DA22DF2A12
:100C7800000120EE0EF00001E151D9260001E251F9
:100C8800DA22090EDF6E000120EE0DF00001E151BD
:100C9800D9260001E251DA22050EDF6EC58439D16A
:100CA80038D1000120EE0DF00001E151D9260001F4
:100CB800E251DA22170EDF6E000120EE1CF000016F
:100CC800E151D9260001E251DA22DF500109C96E4B
:100CD80020D1C5BC01D001D00DD0000120EE0DF00F
:100CE8000001E151D9260001E251DA22180EDF6E27
:100CF800C5860FD100017A6F000E00010001766FE2
:100D080000017A5100017B6F2E0E00010001776F00
:100D180000017B51000E00010001796F000E0001F7
:100D2800786F0001A3EC11F0000120EE0FF0000134
:100D3800E151D9260001E251DA22DF2A000120EE32
:100D48000EF00001E151D9260001E251DA22090E24
:100D5800DF6E000120EE0DF00001E151D9260001FF
:100D6800E251DA22050EDF6EC584D3D0D2D0C7A0F7
:100D780001D001D0CED0000120EE0DF00001E151EC
:100D8800D9260001E251DA22190EDF6E000120EEA9
:100D98000BF00001E151D9260001E251DA22DF50BF
:100DA80000017A6F00017A51010DF3500001000132
:100DB800E125D96EF45000010001E221DA6EC9CFB5
:100DC800DFFF000120EE0BF00001E151D926000100
:100DD800E251DA22DF2A000120EE0BF00001E15196
:100DE800D9260001E251DA22DF5000017A6F0001B2
:100DF80020EE0AF00001E151D9260001E251DA2281
:100E0800DF5000017A5DD8B001D001D003D0C59A77
:100E1800C5887FD0C58AC5887CD07BD07AD00001B0
:100E280020EE0BF00001E151D9260001E251DA224F
:100E3800DF5000017A6F000120EE0AF00001E15155
:100E4800D9260001E251DA22DF5000017A5DD8B0DC
:100E580001D001D00DD0000120EE0DF00001E151CC
:100E6800D9260001E251DA22180EDF6EC58651D06C
:100E7800000120EE0AF00001E151D9260001E251FB
:100E8800DA22DF5000010001766F00017A6F2D0E23
:100E980000010001776F00017A51E1C078F0E2C0EB
:100EA80079F00001A3EC11F0000120EE0DF0000133
:100EB800E151D9260001E251DA22050EDF6EC58420
:100EC80028D027D026D0000120EE0DF00001E151F6
:100ED800D9260001E251DA22DF50090AD8B41DD51B
:100EE800180AD8B402D5030AD8B4D1D5060AD8B49A
:100EF80027D6010AD8B487D6030AD8B4D2D6010AAD
:100F0800D8B4E7D60F0AD8B432D7010AD8B487D7ED
:100F180000D01200FC0ED36E9B8C0101010E010162
:100F28000101A36F0101D80E0101A26F010115ECA7
:100F380012F00101010E01010101A36F0101DF0E91
:100F48000101A26F010119EC0FF0ACEC0EF0000EDC
:100F5800936E000E8A6E000E806E000E896E0F0E64
:100F6800C16E0F0E926E64EC12F09F909F9C9F9A38
:100F78009F860101C56F9E0E01010101A26F01014B
:100F8800C551010115EC11F09D860101C56F6C0E6C
:100F980001010101A26F0101C551000E010101010A
:100FA800A46F330E0101A36F010123EC0DF000D0F3
:100FB800EBEC0BF00101C56F0A0E01010101BA6FDC
:100FC8000101C5510101010E01010101BC6F0101BF
:100FD800DD0E0101BB6F0101010E01010101BE6FB0
:100FE8000101C70E0101BD6F01012FEC11F00101D4
:100FF8000101DE6F01010101DEAF01D001D05CD03B
:1010080075D074D073D058D071D070D00101010E52
:1010180001010101BD6F0101D60E0101BC6F000E77
:1010280001010101BF6F1F0E0101BE6F0101010126
:10103800DE5101010101C06F0101C16B0101C0BF97
:10104800C1070101010E01010101C36F0101C70EB2
:101058000101C26F01015AEC10F048D00101010EE4
:1010680001010101A36F0101D20E0101A26F01016B
:101078000101DDC1A4F101010101A56B010101011B
:10108800DE5101010101A66F0101A76B0101A6BF95
:10109800A7070101010E01010101A96F0101C70E96
:1010A8000101A86F01016BEC12F020D0C7C1C6F195
:1010B8001DD01CD01BD01AD001010101DD510A0A34
:1010C800D8B4CCD7220AD8B4F1D7010AD8B4EED70D
:1010D800030AD8B40BD0010AD8B408D0070AD8B488
:1010E80005D0010AD8B492D701D000D00101C56F4C
:1010F8000A0E01010101BA6F0101C5510101010E7A
:1011080001010101BC6F0101DD0E0101BB6F01018D
:10111800010E01010101BE6F0101C70E0101BD6F82
:10112800010147EC11F001010101DE6F010101012C
:10113800DEAF01D001D067D03BD73AD739D763D0DB
:101148000101010E01010101A36F0101D40E01018A
:10115800A26F01010101DDC1A4F101010101A56B2B
:1011680001010101DE5101010101A66F0101A76B17
:101178000101A6BFA7070101010E01010101A96F25
:101188000101C70E0101A86F0101CEEC11F010D7C3
:10119800DEC1B8F1DDC1B9F10101010E01010101A2
:1011A800BB6F0101C70E0101BA6F010177EC11F0A5
:1011B80000D00101010E01010101BD6F0101D60E30
:1011C8000101BC6F01010101DDC1BEF10101010195
:1011D800BF6B01010101DE5101010101C06F010175
:1011E800C16B0101C0BFC1070101010E010101016D
:1011F800C36F0101C70E0101C26F01015AEC10F063
:10120800D7D6D6D6D5D601010101DD510B0AD8B4FF
:1012180097D7150AD8B4CDD7010AD8B4CAD7370A90
:10122800D8B4B6D7C5D6C4D6C3D6C2D669EF00F0EF
:10123800010120EE35F00101AC51D9260101AD5173
:10124800DA22DF5001010101B56F01010101B55139
:101258000D0DF35001010101AC2501010101B86F29
:10126800F45001010101AD210101B96F010EB8C1AE
:10127800D9FFB9C1DAFFDF6201D001D075D0010111
:1012880020EE01F00101B851D9260101B951DA2245
:10129800DF5001010101AE6101D001D003D0FD0E84
:1012A80066D065D0010120EE01F00101B851D926C0
:1012B8000101B951DA22DF500101B36F0101B351C5
:1012C80001010101B66F0101B76BB1C1A2F1B2C151
:1012D800A3F1030E01010101B8250101B36F000E4E
:1012E80001010101B9210101B46FB3C1A4F1B4C175
:1012F800A5F1B6C1A6F1B7C1A7F1010104EC10F040
:10130800010120EE35F00101AC51D9260101AD51A2
:10131800DA22010110EE35F00101AC51E12601019C
:10132800AD51E222E7500101B36F0101B329030B6C
:10133800DF6E010120EE02F00101B851D92601014A
:10134800B951DA22AFC1E1FFB0C1E2FFDFCFE7FF59
:10135800B8C1D9FFB9C1DAFF000EDF6E0101010182
:10136800B65105D004D003D0FC0E01D000D0120035
:10137800000120EE35F000016A51D92600016B51B9
:10138800DA22DF5000010001736F00010001735180
:101398000D0DF350000100016A2500010001766F70
:1013A800F450000100016B210001776F010E76C037
:1013B800D9FF77C0DAFFDF6201D001D075D0000114
:1013C80020EE01F000017651D92600017751DA228A
:1013D800DF50000100016C6101D001D003D0FD0E87
:1013E80066D065D0000120EE01F000017651D926C3
:1013F80000017751DA22DF500001716F000171514D
:1014080000010001746F0001756B6FC060F070C05F
:1014180061F0030E0001000176250001716F000ED6
:101428000001000177210001726F71C062F072C083
:1014380063F074C064F075C065F000012FEC10F023
:10144800000120EE35F000016A51D92600016B51E8
:10145800DA22000110EE35F000016A51E1260001A0
:101468006B51E222E7500001716F00017129030BF3
:10147800DF6E000120EE02F000017651D92600014E
:101488007751DA226DC0E1FF6EC0E2FFDFCFE7FFE0
:1014980076C0D9FF77C0DAFF000EDF6E00010001C9
:1014A800745105D004D003D0FC0E01D000D0120036
:1014B800000120EE1AF00001E151D9260001E251A5
:1014C800DA22000EDF6E43D0000120EE1AF0000190
:1014D800E151D9260001E251DA22DF500001636FA1
:1014E80000016351010DF350000100016125D96E1F
:1014F800F450000100016221DA6E000110EE1AF0CA
:101508000001E151E1260001E251E222E750000129
:10151800646F00016451010D100EF326000EF422D1
:10152800F35000010001E125E16EF45000010001D3
:10153800E221E26EDFCFE7FF000120EE1AF00001A2
:10154800E151D9260001E251DA22DF2A00D0000158
:1015580020EE1AF00001E151D9260001E251DA2209
:10156800DF500001636F0001000160510001635DFD
:10157800D8A001D001D0A8D700D0000120EE1AF0E1
:101588000001E151D9260001E251DA22000160C0D0
:10159800DFFF000120EE1BF00001E151D926000118
:1015A800E251DA22010EDF6E000120EE10F0000198
:1015B800E151D9260001E251DA22DF50C96EC6880E
:1015C800120001010101AEC1B3F101010101B46BC7
:1015D800010120EE34F00101AC51D9260101AD51D1
:1015E800DA22DF5001010101B56F01010101B55196
:1015F8000D0DF35001010101AC2501010101B66F88
:10160800F45001010101AD210101B76FB6C1D9FF45
:10161800B7C1DAFFDF50D8B401D001D003D0FF0E34
:1016280052D051D0010120EE01F00101B651D92666
:101638000101B751DA220101AEC1DFFF010120EE3D
:1016480002F00101B651D9260101B751DA22010190
:10165800AFC1DFFF030E01010101B6250101010140
:10166800A26F000E01010101B7210101A36FB0C1F2
:10167800A4F1B1C1A5F1B3C1A6F1B4C1A7F10101AB
:1016880004EC10F0010120EE34F00101AC51D92630
:101698000101AD51DA22010110EE34F00101AC5123
:1016A800E1260101AD51E222E7500101B26F0101CB
:1016B800B229030BDF6EB6C1D9FFB7C1DAFF010E3D
:1016C800DF6E010E00D01200000100016CC071F045
:1016D80000010001726B000120EE34F000016A5134
:1016E800D92600016B51DA22DF5000010001736F27
:1016F8000001000173510D0DF350000100016A252E
:1017080000010001746FF450000100016B21000119
:10171800756F74C0D9FF75C0DAFFDF50D8B401D037
:1017280001D003D0FF0E52D051D0000120EE01F0BD
:1017380000017451D92600017551DA2200016CC0EC
:10174800DFFF000120EE02F000017451D9260001EC
:101758007551DA2200016DC0DFFF030E00010001A0
:10176800742500010001606F000E00010001752161
:101778000001616F6EC062F06FC063F071C064F009
:1017880072C065F000012FEC10F0000120EE34F07B
:1017980000016A51D92600016B51DA22000110EECE
:1017A80034F000016A51E12600016B51E222E75052
:1017B8000001706F00017029030BDF6E74C0D9FF40
:1017C80075C0DAFF010EDF6E010E00D012000101B4
:1017D800D8EC0FF001010101A7510101A611D8A40D
:1017E80001D001D002D062D061D08A860101A86FF1
:1017F800010E00010001A76F0101A85100D00001EE
:10180800000E01010101A36F0001AB0E0101A26FDF
:101818000101A6EC10F00009D8B401D001D00BD01A
:101828000101A86F000E00010001A76F0101A85176
:101838008A963CD03BD00101010E01010101A36F42
:1018480001016C0E0101A26F0101A6EC10F0000964
:10185800D8B401D001D00BD00101A86F000E00014F
:101868000001A76F0101A8518A9620D01FD001015D
:10187800A86F0A0E01010101A26F0101A85101011F
:101888002CEC12F08AA601D002D0010E01D0000E75
:101898000101A86F0101A847A847A8478A5001017C
:1018A800A819F70BA8198A6EAAD7A9D712000001A0
:1018B80020EE0CF00001E151D9260001E251DA22B4
:1018C800010EDF6E000120EE0AF00001E151D92679
:1018D8000001E251DA22000EDF6E000100016051C2
:1018E800D8B401D001D043D0C7AA01D001D021D0AB
:1018F800000120EE0DF00001E151D9260001E2516E
:10190800DA22050EDF6E000120EE0FF00001E15132
:10191800D9260001E251DA22DF2A000120EE0EF07A
:101928000001E151D9260001E251DA22050EDF6EED
:101938002AD0C7A401D001D00CD0000120EE0DF0B0
:101948000001E151D9260001E251DA22080EDF6ECA
:101958001AD0000120EE0DF00001E151D926000156
:10196800E251DA22070EDF6E0ED00DD00CD0000146
:1019780020EE0DF00001E151D9260001E251DA22F2
:10198800060EDF6E00D012009EAA01D001D041D011
:1019980020EE04F03B50D9263C50DA22DF501B6E73
:1019A8001B50010DF3503B24D96EF4503C20DA6EE5
:1019B800C2EC10F0DF6E20EE04F03B50D9263C500C
:1019C800DA22DF2A20EE04F03B50D9263C50DA22F6
:1019D800040EDF6201D001D01CD020EE04F03B5091
:1019E800D9263C50DA22DF50176E1B6E1F0E186E78
:1019F8001B503BC019F03CC01AF0F5EC11F020EE7A
:101A080004F03B50D9263C50DA22000EDF6E01D09C
:101A180000D035A601D001D011D0AB98AB881B6E91
:101A2800000E176E1B501C6E1E0E186E1C50000EFA
:101A38001A6E000E196EF5EC11F000D01200000EAF
:101A4800AC6E000EAB6E01010101A2A101D001D064
:101A580001D0AC8801010101A2A301D001D002D0BC
:101A6800AC8CAB8C01010101A2A501D001D001D041
:101A7800AC8E01010101A2A701D001D002D0AB8830
:101A880001D0AB8A01010101A2A901D001D001D086
:101A9800AC849E9801010101A2AB01D001D001D014
:101AA800AB8601010101A2AD01D001D002D09D8A0F
:101AB80001D09D9A9E9A01010101A2AF01D001D0E7
:101AC80002D09D8801D09D98A3C1AFFF01010101FB
:101AD800A451B06EAC8AAB8E949C948EACA801D005
:101AE80001D006D0ACBE01D001D002D0948C00D079
:101AF80012000DC012F0136A20EE34F00B50D926F4
:101B08000C50DA22DF50146E14500D0DF3500B24D4
:101B1800156EF4500C20166E15C0D9FF16C0DAFFEA
:101B2800DF50D8B401D001D003D0FF0E3AD039D05D
:101B380020EE01F01550D9261650DA220DC0DFFF2D
:101B480020EE02F01550D9261650DA220EC0DFFF1B
:101B5800030E1524016E000E1620026E0FC003F04E
:101B680010C004F012C005F013C006F082EC10F0AB
:101B780020EE34F00B50D9260C50DA2210EE34F057
:101B88000B50E1260C50E222E750116E1128030B8E
:101B9800DF6E15C0D9FF16C0DAFF010EDF6E010E29
:101BA80000D0120000010001A76701D001D002D0C7
:101BB80045D044D00001A9EC0FF0000100016351A9
:101BC80000016211D8B401D001D002D037D036D08C
:101BD800000136EC12F000010001615100016011B2
:101BE800D8A401D001D002D029D028D00001000EFD
:101BF80000010001616F0001AB0E0001606F000180
:101C0800DEEC10F00009D8B401D001D002D016D013
:101C180015D00101010E00010001616F01016C0E78
:101C28000001606F0001DEEC10F00009D8B401D0AB
:101C380001D002D003D002D068EC12F012000600E6
:101C4800EACF9CF0E1CF9DF0E2CF9EF0D9CF9FF094
:101C5800DACFA0F0F3CFA1F0F4CFA2F0F6CFA3F043
:101C6800F7CFA4F0F8CFA5F0F5CFA6F09EA601D047
:101C780001D004D09E96E2EC11F000D0F2A401D07D
:101C880001D004D0F2944AEC0FF000D0D6EC0DF05D
:101C9800A6C0F5FFA5C0F8FFA4C0F7FFA3C0F6FFD4
:101CA800A2C0F4FFA1C0F3FFA0C0DAFF9FC0D9FF14
:101CB8009EC0E2FF9DC0E1FF9CC0EAFF9BC0E9FF18
:101CC8009AC0FBFF99C0FAFF1100010120EE34F021
:101CD8000101A251D9260101A351DA22000EDF6EBB
:101CE800010120EE35F00101A251D9260101A351CD
:101CF800DA22000EDF6E0101A46F000E010101015E
:101D0800A56F0101A451030E01010101A56501D0D0
:101D180001D002D01CD01BD001010101A5510D0D2D
:101D2800F35001010101A225D96EF450010101010E
:101D3800A321DA6E000EDF6E01010101A52B030E4F
:101D480001010101A56501D001D0E6D700D012003C
:101D58000101A66F000E00010001A76F0101A65145
:101D68000101010E01010101A36F01016C0E0101C6
:101D7800A26F010169EC0EF00001000E01010101E2
:101D8800A36F0001AB0E0101A26F010169EC0EF017
:101D98000101010E01010101A36F0101360E0101CC
:101DA800A26F010169EC0EF00101010E01010101B0
:101DB800A36F0101000E0101A26F010169EC0EF091
:101DC80012000001646F000E00010001656F000140
:101DD80064511FD0000100016551010DF35000014D
:101DE80000016225D96EF450000100016321DA6E0A
:101DF800DF5000010001606F000107EC12F000D015
:101E0800ACA201D001D0FCD700D000010001652BA5
:101E180000D000010001615100010001655DD8A0FA
:101E280001D001D0D7D700D01200A2C1E1F0A3C1E0
:101E3800E2F0000120EE0AF00001E151D92600018C
:101E4800E251DA22000EDF6E000120EE0CF00001F4
:101E5800E151D9260001E251DA22000EDF6E0001BD
:101E680020EE0DF00001E151D9260001E251DA22FD
:101E7800050EDF6E000120EE0FF00001E151D926BA
:101E88000001E251DA22000EDF6E1200000E00019E
:101E98000001616F000E0001606F000152EC12F04A
:101EA80000015BEC12F0000160C07CF0000161C031
:101EB8007DF000017A6F020E00010001766F0001CB
:101EC8007A5100017B6F0A0E00010001776F000153
:101ED8007B510001000E00010001796F00017C0EAA
:101EE8000001786F0001A3EC11F01200F2AC01D0F0
:101EF80001D00AD0000E01010101A56F000E0101F9
:101F0800A46F22D021D020D0010122EC12F00101CF
:101F18000101A3510101A211D8B401D001D00AD006
:101F2800000E01010101A56F000E0101A46F0CD084
:101F38000BD00AD0000E01010101A56F010E0101AD
:101F4800A46F02D001D000D01200F2AC01D001D0B1
:101F58000AD0000E00010001636F000E0001626FDD
:101F680022D021D020D0000136EC12F0000100016F
:101F7800615100016011D8B401D001D00AD0000E1F
:101F880000010001636F000E0001626F0CD00BD0DE
:101F98000AD0000E00010001636F010E0001626F9C
:101FA80002D001D000D0120001017AEC0FF001013B
:101FB8000101A5510101A411D8A401D001D016D066
:101FC800010122EC12F001010101A3510101A2114A
:101FD800D8A401D001D00AD0000E01010101A76FD9
:101FE800010E0101A66F0BD00AD009D0000E010125
:101FF8000101A76F000E0101A66F01D000D01200E9
:10200800A4C1AAF1A5C1ABF1A2C1A8F1A3C1A9F1CC
:1020180013D0AAC1D9FFABC1DAFFA8C1E1FFA9C19A
:10202800E2FFDFCFE7FF01010101AA4BAB2B010162
:102038000101A84BA92B00D001010101A607D8A0D6
:10204800A7070101A629D8B4A729D8A401D001D08F
:10205800E0D700D0120062C068F063C069F060C0C9
:1020680066F061C067F013D068C0D9FF69C0DAFFB5
:1020780066C0E1FF67C0E2FFDFCFE7FF00010001B4
:10208800684B692B00010001664B672B00D00001EB
:1020980000016407D8A0650700016429D8B4652940
:1020A800D8A401D001D0E0D700D01200010101016D
:1020B800BE511E0ABF11D8A401D001D002D01DD034
:1020C8001CD001010101BE511F0ABF11D8A401D0C3
:1020D80001D013D0C0C1B8F10101C46F280E0101AD
:1020E8000101B96F0101C451C2C1BAF1C3C1BBF149
:1020F80001018DEC11F001D000D0120003C009F0ED
:1021080004C00AF001C007F002C008F00FD009C0EF
:10211800D9FF0AC0DAFF07C0E1FF08C0E2FFDFCF3E
:10212800E7FF094A0A2A074A082A00D00506D8A064
:1021380006060528D8B40628D8A401D001D0E7D7C8
:1021480000D01200010120EE35F00101A251D9267C
:102158000101A351DA22DF500101A46F0101A4514A
:102168000D0DF35001010101A225D96EF4500101B2
:102178000101A321DA6EDF5000D01200F20E3516ED
:10218800ABAC01D001D007D03590ABA001D001D0C5
:1021980002D0358000D0ABA401D001D001D0358465
:1021A800ABA201D001D001D03586AECF01F00150ED
:1021B80000D01200000120EE35F000016051D92650
:1021C80000016151DA22DF500001626F00016251A3
:1021D8000D0DF350000100016025D96EF450000187
:1021E80000016121DA6EDF5000D0120040EC12F0DD
:1021F80001C01DF002C01EF0000E026E000E016E3E
:1022080049EC12F01B6E020E176E1B501C6E0B0E63
:10221800186E1C50000E1A6E1D0E196EF5EC11F09A
:1022280012000101A36F010E00010001A96F010155
:10223800A35194869488A2C1C8FF000EC76E000EF1
:10224800C66E000EC56E0E0EC612C78E9486948892
:10225800C580C68A12000001000E01010101AD6FA0
:102268000001AB0E0101AC6FBAC1AEF1BBC1AFF159
:10227800BCC1B0F1BDC1B1F1BEC1B2F101011CECEC
:1022880009F000D012000101010E01010101AD6F3A
:1022980001016C0E0101AC6FBAC1AEF1BBC1AFF167
:1022A800BCC1B0F1BDC1B1F1BEC1B2F101011CECBC
:1022B80009F000D012000101010E000100016B6F4E
:1022C8000101360E00016A6F78C06CF079C06DF0BC
:1022D8007AC06EF07BC06FF07CC070F00001BCEC7F
:1022E80009F000D012000101010E01010101AD6FDA
:1022F8000101360E0101AC6FB8C1AEF1B9C1AFF141
:10230800BAC1B0F1BBC1B1F10101E5EC0AF000D0EE
:1023180012000101010E01010101AD6F01016C0EF6
:102328000101AC6FB8C1AEF1B9C1AFF1BAC1B0F13A
:10233800BBC1B1F10101E5EC0AF000D012000001C7
:10234800000E000100016B6F0001AB0E00016A6F07
:1023580076C06CF077C06DF078C06EF079C06FF021
:10236800000168EC0BF000D0120001EE00F0A20EA4
:10237800EE6AE806FDE100EEA7F03A0EEE6AE8061E
:10238800FDE100EE30F00B0EEE6AE806FDE100011B
:102398008EEF07F0A8C1D9FFA9C1DAFFDF5001010C
:1023A800AA6FAB6BA2C1D9FFA3C1DAFFAAC1DEFF36
:1023B800ABC1DDFF00010001AA2B120007D06BECB6
:1023C80000F00ED078EC04F00BD00AD00001000128
:1023D800A951010AD8B4F3D7030AD8B4F3D700D067
:1023E80012000101010E0C6E01016C0E0B6E17C07C
:1023F8000DF018C00EF019C00FF01AC010F07DECE7
:102408000DF000D01200ACAC01D001D007D0AC90D8
:1024180035A201D001D002D0AC8000D060C0ADFFA1
:102428001200A2C13BF0A3C13CF020EE04F03B50E7
:10243800D9263C50DA22000EDF6E1200000EF2AEF2
:10244800010E01010101A26F0101A36B00D012006E
:10245800FA0E00F0E82EFDD701010101A22FF8D7EE
:1024680000D01200000EF2AE010E00010001606FF4
:102478000001616B00D01200CECF03F0CFCF04F083
:1024880003C001F004C002F0120001C003F002C052
:1024980004F004C0CFFF03C0CEFF120060C062F09A
:1024A80061C063F063C0D7FF62C0D6FF1200D6CF09
:1024B80062F0D7CF63F062C060F063C061F01200D1
:1024C800D08EF28EF28C1200D38E0300120012000E
:0224D8001200F0
:020000040020DA
:08000000FFFFFFFFFFFFFFFF00
:020000040030CA
:0E000000FF08191EFF8080FF0FC00FE00F40A9
:00000001FF
