:0400000069EF00F0B4
:10000800FACF99F0FBCF9AF0E9CF9BF0A3ED0CF073
:10001800D8CF23F0E8CF24F0E0CF25F0FACF26F0B0
:10002800FBCF27F0E9CF28F0EACF29F0E1CF2AF07B
:10003800E2CF2BF0D9CF2CF0DACF2DF0F3CF2EF082
:10004800F4CF2FF0F6CF30F0F7CF31F0F8CF32F011
:10005800F5CF33F09EA001D001D004D09E904CEC97
:100068000FF000D09EAC01D001D004D09E9C0DECC6
:100078000FF000D09EAA01D001D004D09E9A48EC7F
:100088000BF000D033C0F5FF32C0F8FF31C0F7FFE6
:1000980030C0F6FF2FC0F4FF2EC0F3FF2DC0DAFFEB
:1000A8002CC0D9FF2BC0E2FF2AC0E1FF29C0EAFF1C
:1000B80028C0E9FF27C0FBFF26C0FAFF25C0E0FFE4
:1000C80024C0E8FF23C0D8FF10006BEF0FF0000139
:1000D8007D6F000E00010001986F00017D51000145
:1000E8007D6F000E00010001906F00017D5100013D
:1000F8007D6F000E00010001976F00017D51000126
:100108007D6F000E00010001956F00017D51000117
:100118007D6F000E00010001916F00017D51C6AC9A
:1001280001D001D02AD0C69C000120EE0CF00001BD
:10013800E051D9260001E151DA22050EDF6E0001F7
:100148007D6F010E00010001916F00017D510001DA
:1001580020EE0EF00001E051D9260001E151DA222B
:10016800DF2A000120EE0DF00001E051D926000140
:10017800E151DA22040EDF6E00D0C7A001D001D011
:100188000BD0C9CF94F000017D6F010E0001000172
:10019800986F00017D5100D000010001916701D0E6
:1001A80001D051D239D238D2C7A601D001D04BD212
:1001B80098C060F0000177EC0AF0000120EE0CF026
:1001C8000001E051D9260001E151DA22080EDF6270
:1001D80001D001D038D200017D6F000E000100016E
:1001E800986F00017D5100017D6F010E0001000133
:1001F800956F00017D5127D226D225D2C7A801D0FC
:1002080001D040D0000120EE0BF00001E051D926CA
:100218000001E151DA22DF2A000100019851D8B427
:1002280001D001D023D0C7BA01D001D009D0000134
:100238007D6F010E00010001976F00017D5116D0FE
:10024800000120EE0EF00001E051D9260001E15135
:10025800DA22DF2A000120EE0DF00001E051D92654
:100268000001E151DA22060EDF6E00D0000120EE17
:100278000CF00001E051D9260001E151DA22050E07
:10028800DF6EE1D1000100019851D8B401D001D04E
:10029800DAD1000120EE0BF00001E051D92600016F
:1002A800E151DA22DF2AC7BA01D001D02DD0C7B474
:1002B80001D001D00CD0000120EE0CF00001E0517B
:1002C800D9260001E151DA22070EDF6EBCD1000108
:1002D80020EE0CF00001E051D9260001E151DA22AC
:1002E800080EDF6E00017D6F010E00010001956FA1
:1002F80000017D5100017D6F000E00010001986F23
:1003080000017D51A0D19FD1000120EE0EF0000127
:10031800E051D9260001E151DA22DF2A000120EE5E
:100328000CF00001E051D9260001E151DA22050E56
:10033800DF6E000120EE0DF00001E051D92600012A
:10034800E151DA22060EDF6E7ED17DD17CD17BD1E0
:10035800000120EE1AF00001E051D9260001E15118
:10036800DA22DF5000017D6F000120EE19F0000154
:10037800E051D9260001E151DA22DF5000017D5D0C
:10038800D8B001D001D032D0000120EE1AF000011F
:10039800E051D9260001E151DA22DF5000017D6FDA
:1003A80000017D51010D0F0EF326000EF422F350CB
:1003B80000010001E025D96EF45000010001E1219F
:1003C800DA6EDF50C96E000120EE1AF00001E0512C
:1003D800D9260001E151DA22DF2A00017D6F010EE2
:1003E80000010001906F00017D512DD1000120EE28
:1003F8000CF00001E051D9260001E151DA22050E86
:10040800DF6E21D120D1C7A801D001D07BD0000157
:1004180020EE0BF00001E051D9260001E151DA226B
:10042800DF2A000100019851D8B401D001D055D07D
:10043800C7AA01D001D02FD0000120EE0AF0000198
:10044800E051D9260001E151DA22DF5000017D6F29
:1004580000017D51010DF35000010001E025D96E26
:10046800F45000010001E121DA6E000194C0DFFFC1
:10047800000120EE0AF00001E051D9260001E15107
:10048800DA22DF2A00017D6F010E00010001976F5B
:1004980000017D512BD0000120EE0EF00001E0514B
:1004A800D9260001E151DA22DF2A000120EE0DF001
:1004B8000001E051D9260001E151DA22060EDF6E73
:1004C800000120EE0CF00001E051D9260001E151B5
:1004D800DA22050EDF6E0AD009D000017D6F010E09
:1004E80000010001976F00017D5100D0000120EE4E
:1004F8000CF00001E051D9260001E151DA22050E85
:10050800DF6EA1D0000100019851D8B401D001D00C
:100518009AD0000120EE0BF00001E051D92600012D
:10052800E151DA22DF2AC7AA01D001D027D0000181
:1005380020EE0AF00001E051D9260001E151DA224B
:10054800DF5000017D6F00017D51010DF350000166
:100558000001E025D96EF45000010001E121DA6EB6
:10056800000194C0DFFF000120EE0AF00001E05115
:10057800D9260001E151DA22DF2A65D0C7A401D0CB
:1005880001D024D0000120EE0CF00001E051D92662
:100598000001E151DA22080EDF6E00017D6F010EC5
:1005A80000010001976F00017D5100017D6F010E70
:1005B80000010001956F00017D5100017D6F000E63
:1005C80000010001986F00017D513DD0000120EE2F
:1005D8000EF00001E051D9260001E151DA22DF2AAC
:1005E800000120EE0DF00001E051D9260001E15193
:1005F800DA22060EDF6E000120EE0CF00001E05159
:10060800D9260001E151DA22050EDF6E1CD01BD07D
:100618001AD019D018D017D0000120EE0CF0000124
:10062800E051D9260001E151DA22DF50050AD8B499
:10063800BBD5030AD8B4E2D5010AD8B4E4D60F0A68
:10064800D8B486D600D000010001986701D001D047
:1006580007D0000100019051D8B401D001D007D0D3
:10066800C6B801D001D003D0C68801D000D000019F
:1006780020EE0AF00001E051D9260001E151DA220A
:10068800080EDF6401D001D027D000010001976770
:1006980001D001D021D0000120EE0CF00001E05182
:1006A800D9260001E151DA22050EDF6E000120EEA5
:1006B8000EF00001E051D9260001E151DA22DF2ACB
:1006C800000120EE0DF00001E051D9260001E151B2
:1006D800DA22070EDF6E00D0000100019751D8B46E
:1006E80001D001D073D000017D6F0A0E0001000116
:1006F800786F00017D510001000E000100017A6F42
:100708000001960E0001796F0001000E0001000142
:100718007C6F00017F0E00017B6F000124EC10F05C
:1007280000010001926F0001936B000192BF9307D3
:10073800000100019351800A800F010ED8B4925D28
:10074800D8A001D001D00FD092C060F00001000EF7
:1007580000010001626F00017F0E0001616F00015E
:10076800F3EC07F091D000017D6F500E00010001FD
:10077800896F00017D51A8C08AF000017D6F000ECD
:10078800000100018B6F00017D5100017D6F000E9B
:10079800000100018C6F00017D5100010001A82BB0
:1007A80000017D6F040E00010001606F00017D51A2
:1007B8000001000E00010001626F0001890E0001B6
:1007C800616F0001F3EC07F05FD05ED0000120EE0E
:1007D8000EF00001E051D9260001E151DA22DF5084
:1007E800D8B401D001D050D0000120EE0EF00001A5
:1007F800E051D9260001E151DA22DF500001000161
:100808008D6F000120EE0DF00001E051D9260001A6
:10081800E151DA22DF50000100018E6F000120EE65
:100828000BF00001E051D9260001E151DA22DF5036
:10083800000100018F6F00017D6F030E00010001B0
:10084800766F00017D5100017E6F290E00010001C5
:10085800776F00017E510001000E00010001796FE1
:1008680000018D0E0001786F000152EC10F00001BC
:1008780020EE0EF00001E051D9260001E151DA2204
:10088800000EDF6E01D000D0000100019551D8B4F0
:1008980001D001D009D000017D6F000E00010001D8
:1008A800956F00017D5100D01200FC0ED36E9B8C19
:1008B8000101010E01010101A36F0101D20E010125
:1008C800A26F01018DEC10F00101010E010101017F
:1008D800A36F0101D90E0101A26F010164EC0DF0B3
:1008E8000101010E01010101A36F0101D00E0101F7
:1008F800A26F0101B8EC10F02BEC0DF0000E936E16
:10090800000E8A6E000E806E000E896E0F0EC16E8C
:100918000F0E926E0101BF6FF50E01010101A26F6A
:100928000101BF5101012DEC0FF0E7EC10F09F9091
:100938009F9C9F9A9F860101BF6F9C0E0101010138
:10094800A26F0101BF510101C3EC0EF09D860101A8
:10095800BF6F6C0E01010101A26F0101BF51000EB2
:1009680001010101A46F190E0101A36F0101A3EC9C
:100978000BF000D007EC0AF00101BF6F0A0E01016D
:100988000101BA6F0101BF510101010E010101010D
:10099800BC6F0101D80E0101BB6F0101010E0101FD
:1009A8000101BE6F0101C00E0101BD6F0101DCEC48
:1009B8000FF001010101D76F01010101D7AF01D08B
:1009C80001D03CD04CD04BD04AD038D00101010ED8
:1009D80001010101A36F0101CD0E0101A26F010107
:1009E8000101D8C1A4F101010101A56B01010101B7
:1009F800D75101010101A66F0101A76B0101A6BF33
:100A0800A7070101010E01010101A96F0101C00E33
:100A18000101A86F0101E2EC10F021D0C0C1CFF1B3
:100A28001ED002D01CD01BD001010101CF51AA0A4F
:100A3800D8B415D014D013D012D011D001010101AF
:100A4800D8510A0AD8B4C2D7220AD8B4E7D7010ABB
:100A5800D8B4E4D7030AD8B4E7D701D000D001014D
:100A6800BF6F0A0E01010101BA6F0101BF510101F7
:100A7800010E01010101BC6F0101D80E0101BB6F1C
:100A88000101010E01010101BE6F0101C00E01014A
:100A9800BD6F0101F4EC0FF001010101D76F0101F5
:100AA8000101D7AF01D001D068D064D763D762D72E
:100AB80064D00101010E01010101A86F0101D00EEE
:100AC8000101A76F01010101D8C1A9F101010101CB
:100AD800AA6B01010101D75101010101AB6F0101AD
:100AE800AC6B0101ABBFAC070101010E01010101B3
:100AF800AE6F0101C00E0101AD6F010175EC0EF082
:100B080039D7D7C1B8F1D8C1B9F10101010E010136
:100B18000101BB6F0101C00E0101BA6F01013CEC7C
:100B280010F001D000D00101010E01010101A36FF5
:100B38000101CB0E0101A26F01010101D8C1A4F18D
:100B480001010101A56B01010101D7510101010159
:100B5800A66F0101A76B0101A6BFA7070101010E3E
:100B680001010101A96F0101C00E0101A86F010176
:100B78009CEC0EF0FFD6FED6FDD601010101D8513E
:100B88000B0AD8B496D7150AD8B4CDD7010AD8B469
:100B9800CAD7370AD8B4B5D7EDD6ECD6EBD6EAD64D
:100BA80069EF00F0C1D0000120EE1BF00001E05118
:100BB800D9260001E151DA22DF50FE0BC96E00018F
:100BC80020EE0CF00001E051D9260001E151DA22B3
:100BD800090EDF6EC586C2D0C5BC01D001D05ED07B
:100BE800000120EE1AF00001E051D9260001E15180
:100BF800DA22DF500001606F000120EE19F00001D9
:100C0800E051D9260001E151DA22DF500001605D90
:100C1800D8B001D001D02AD0000120EE1AF000018E
:100C2800E051D9260001E151DA22DF500001606F5E
:100C380000016051010D0F0EF326000EF422F3504F
:100C480000010001E025D96EF45000010001E12106
:100C5800DA6EDF50C96E000120EE1AF00001E05193
:100C6800D9260001E151DA22DF2A78D0000120EEEE
:100C78000CF00001E051D9260001E151DA22100EF2
:100C8800DF6E000120EE1AF00001E051D9260001C4
:100C9800E151DA22000EDF6E61D060D0000120EE53
:100CA8000CF00001E051D9260001E151DA22050ECD
:100CB800DF6E000120EE1AF00001E051D926000194
:100CC800E151DA22000EDF6E49D048D0000120EE53
:100CD8001BF00001E051D9260001E151DA22DF5072
:100CE8000109C96E000120EE0CF00001E051D9267F
:100CF8000001E151DA22130EDF6E30D0C5502ED03C
:100D08002DD0C5BC01D001D029D0C584000120EE6A
:100D18000CF00001E051D9260001E151DA22050E5C
:100D2800DF6E1CD01BD01AD0000120EE0CF00001A1
:100D3800E051D9260001E151DA22DF50090AD8B47E
:100D48004BD7190AD8B4DDD7010AD8B42CD7030A6F
:100D5800D8B4BCD7010AD8B4D1D700D01200010149
:100D680020EE35F00101AC51D9260101AD51DA224E
:100D7800DF5001010101B56F01010101B5510D0DF0
:100D8800F35001010101AC2501010101B86FF450D4
:100D980001010101AD210101B96F010EB8C1D9FFEF
:100DA800B9C1DAFFDF6201D001D075D0010120EEB0
:100DB80001F00101B851D9260101B951DA22DF50F9
:100DC80001010101AE6101D001D003D0FD0E66D052
:100DD80065D0010120EE01F00101B851D9260101C9
:100DE800B951DA22DF500101B36F0101B35101019A
:100DF8000101B66F0101B76BB1C1A2F1B2C1A3F194
:100E0800030E01010101B8250101B36F000E0101B4
:100E18000101B9210101B46FB3C1A4F1B4C1A5F1B5
:100E2800B6C1A6F1B7C1A7F101011FEC0EF001018F
:100E380020EE35F00101AC51D9260101AD51DA227D
:100E4800010110EE35F00101AC51E1260101AD516F
:100E5800E222E7500101B36F0101B329030BDF6EF2
:100E6800010120EE02F00101B851D9260101B95162
:100E7800DA22AFC1E1FFB0C1E2FFDFCFE7FFB8C1BF
:100E8800D9FFB9C1DAFF000EDF6E01010101B651C9
:100E980005D004D003D0FC0E01D000D01200000110
:100EA80020EE35F000016A51D92600016B51DA2293
:100EB800DF5000010001736F0001000173510D0D37
:100EC800F350000100016A2500010001766FF4501B
:100ED800000100016B210001776F010E76C0D9FF78
:100EE80077C0DAFFDF6201D001D075D0000120EEB3
:100EF80001F000017651D92600017751DA22DF503E
:100F0800000100016C6101D001D003D0FD0E66D054
:100F180065D0000120EE01F000017651D9260001CC
:100F28007751DA22DF500001716F00017151000121
:100F38000001746F0001756B6FC060F070C061F0E4
:100F4800030E0001000176250001716F000E0001FB
:100F5800000177210001726F71C062F072C063F006
:100F680074C064F075C065F000014AEC0EF0000131
:100F780020EE35F000016A51D92600016B51DA22C2
:100F8800000110EE35F000016A51E12600016B51B5
:100F9800E222E7500001716F00017129030BDF6E37
:100FA800000120EE02F000017651D92600017751A8
:100FB800DA226DC0E1FF6EC0E2FFDFCFE7FF76C047
:100FC800D9FF77C0DAFF000EDF6E0001000174510F
:100FD80005D004D003D0FC0E01D000D012000001CF
:100FE80020EE19F00001E051D9260001E151DA2282
:100FF800000EDF6E43D0000120EE19F00001E05131
:10100800D9260001E151DA22DF500001636F0001A7
:101018006351010DF350000100016125D96EF450B0
:10102800000100016221DA6E000110EE19F00001E2
:10103800E051E1260001E151E222E7500001646F2E
:1010480000016451010D0F0EF326000EF422F35037
:1010580000010001E025E16EF45000010001E121EA
:10106800E26EDFCFE7FF000120EE19F00001E0514A
:10107800D9260001E151DA22DF2A00D0000120EE52
:1010880019F00001E051D9260001E151DA22DF50C0
:101098000001636F0001000160510001635DD8A089
:1010A80001D001D0A8D700D0000120EE19F000012E
:1010B800E051D9260001E151DA22000160C0DFFFCA
:1010C800000120EE1AF00001E051D9260001E1519B
:1010D800DA22010EDF6E000120EE0FF00001E05170
:1010E800D9260001E151DA22DF50C96EC688120004
:1010F800C7A401D001D002D07FD07ED0000120EE5D
:1011080019F00001E051D9260001E151DA22000E60
:10111800DF6E43D0000120EE19F00001E051D9261E
:101128000001E151DA22DF500101A56F0101A5514B
:10113800010DF35001010101A325D96EF4500101FD
:101148000101A421DA6E000110EE19F00001E0514E
:10115800E1260001E151E222E7500101A66F0101F9
:10116800A651010D0F0EF326000EF422F3500001D4
:101178000001E025E16EF45000010001E121E26E7A
:10118800DFCFE7FF000120EE19F00001E051D9267A
:101198000001E151DA22DF2A00D0000120EE19F027
:1011A8000001E051D9260001E151DA22DF500101A6
:1011B800A56F01010101A2510101A55DD8A001D0CF
:1011C80001D0A8D700D0000120EE1AF00001E051AC
:1011D800D9260001E151DA22000EDF6E000120EE6F
:1011E8000CF00001E051D9260001E151DA22110E7C
:1011F800DF6EC596C58000D0120001010101AEC1A5
:10120800B3F101010101B46B010120EE34F00101D9
:10121800AC51D9260101AD51DA22DF50010101019B
:10122800B56F01010101B5510D0DF3500101010127
:10123800AC2501010101B66FF45001010101AD2196
:101248000101B76FB6C1D9FFB7C1DAFFDF50D8B413
:1012580001D001D003D0FF0E52D051D0010120EEB1
:1012680001F00101B651D9260101B751DA22010175
:10127800AEC1DFFF010120EE02F00101B651D9260F
:101288000101B751DA220101AFC1DFFF030E0101ED
:101298000101B62501010101A26F000E0101010142
:1012A800B7210101A36FB0C1A4F1B1C1A5F1B3C1C8
:1012B800A6F1B4C1A7F101011FEC0EF0010120EE67
:1012C80034F00101AC51D9260101AD51DA220101F6
:1012D80010EE34F00101AC51E1260101AD51E222DA
:1012E800E7500101B26F0101B229030BDF6EB6C1ED
:1012F800D9FFB7C1DAFF010EDF6E010E00D0120070
:10130800000100016CC071F000010001726B000166
:1013180020EE34F000016A51D92600016B51DA221F
:10132800DF5000010001736F0001000173510D0DC2
:10133800F350000100016A2500010001746FF450A8
:10134800000100016B210001756F74C0D9FF75C0E1
:10135800DAFFDF50D8B401D001D003D0FF0E52D04D
:1013680051D0000120EE01F000017451D92600018E
:101378007551DA2200016CC0DFFF000120EE02F097
:1013880000017451D92600017551DA2200016DC09F
:10139800DFFF030E00010001742500010001606FEA
:1013A800000E0001000175210001616F6EC062F03E
:1013B8006FC063F071C064F072C065F000014AEC60
:1013C8000EF0000120EE34F000016A51D926000128
:1013D8006B51DA22000110EE34F000016A51E12667
:1013E80000016B51E222E7500001706F0001702983
:1013F800030BDF6E74C0D9FF75C0DAFF010EDF6E14
:10140800010E00D012000101F3EC0DF00101010101
:10141800A7510101A611D8A401D001D002D062D0F1
:1014280061D08A860101A86F010E00010001A76F33
:101438000101A85100D00001000E01010101A36FB4
:101448000001AA0E0101A26F010188EC0FF000094A
:10145800D8B401D001D00BD00101A86F000E000153
:101468000001A76F0101A8518A963CD03BD0010129
:10147800010E01010101A36F01016C0E0101A26FB0
:10148800010188EC0FF00009D8B401D001D00BD0CD
:101498000101A86F000E00010001A76F0101A8510A
:1014A8008A9620D01FD00101A86F0A0E0101010100
:1014B800A26F0101A8510101A4EC10F08AA601D085
:1014C80002D0010E01D0000E0101A86F0101A8474A
:1014D800A847A8478A500101A819F70BA8198A6ECE
:1014E800AAD7A9D71200000120EE0BF00001E051A5
:1014F800D9260001E151DA22010EDF6E000120EE4B
:101508000AF00001E051D9260001E151DA22000E6B
:10151800DF6E000100016051D8B401D001D043D082
:10152800C7AA01D001D021D0000120EE0CF00001A3
:10153800E051D9260001E151DA22050EDF6E0001E3
:1015480020EE0EF00001E051D9260001E151DA2227
:10155800DF2A000120EE0DF00001E051D92600013C
:10156800E151DA22050EDF6E2AD0C7A401D001D0DE
:101578000CD0000120EE0CF00001E051D92600014A
:10158800E151DA22080EDF6E1AD0000120EE0CF0CD
:101598000001E051D9260001E151DA22070EDF6E81
:1015A8000ED00DD00CD0000120EE0CF00001E0515F
:1015B800D9260001E151DA22060EDF6E00D01200B2
:1015C8008AA001D002D0010E01D0000E00017D6F6B
:1015D8008A5000017D19FE0B7D198A6E000E0001EC
:1015E8000001616F000E0001606F0001D3EC10F084
:1015F80000017D6F020E00010001786F00017D512E
:101608000001000E000100017A6F00017F0E000149
:10161800796F0001000E000100017C6F0001830E4C
:1016280000017B6F00010CEC10F000010001816FDC
:101638000001826B000181BF820700010001815116
:10164800020A8211D8A401D001D01DD000017D6FFB
:10165800020E00010001766F00017D5100017E6FCE
:101668000A0E00010001776F00017E510001000E93
:1016780000010001796F0001830E0001786F0001FD
:1016880052EC10F000D012009EAA01D001D041D037
:1016980020EE04F03950D9263A50DA22DF501B6E7A
:1016A8001B50010DF3503924D96EF4503A20DA6EEC
:1016B800A4EC0FF0DF6E20EE04F03950D9263A5032
:1016C800DA22DF2A20EE04F03950D9263A50DA22FD
:1016D800040EDF6201D001D01CD020EE04F0395096
:1016E800D9263A50DA22DF50176E1B6E1F0E186E7D
:1016F8001B5039C019F03AC01AF07BEC10F020EEFC
:1017080004F03950D9263A50DA22000EDF6E01D0A3
:1017180000D037A601D001D011D0AB98AB881B6E92
:10172800000E176E1B501C6E1E0E186E1C50000EFD
:101738001A6E000E196E7BEC10F000D01200000E2D
:10174800AC6E000EAB6E01010101A2A101D001D067
:1017580001D0AC8801010101A2A301D001D002D0BF
:10176800AC8CAB8C01010101A2A501D001D001D044
:10177800AC8E01010101A2A701D001D002D0AB8833
:1017880001D0AB8A01010101A2A901D001D001D089
:10179800AC849E9801010101A2AB01D001D001D017
:1017A800AB8601010101A2AD01D001D002D09D8A12
:1017B80001D09D9A9E9A01010101A2AF01D001D0EA
:1017C80002D09D8801D09D98A3C1AFFF01010101FE
:1017D800A451B06EAC8AAB8E949C948EACA801D008
:1017E80001D006D0ACBE01D001D002D0948C00D07C
:1017F80012000DC012F0136A20EE34F00B50D926F7
:101808000C50DA22DF50146E14500D0DF3500B24D7
:10181800156EF4500C20166E15C0D9FF16C0DAFFED
:10182800DF50D8B401D001D003D0FF0E3AD039D060
:1018380020EE01F01550D9261650DA220DC0DFFF30
:1018480020EE02F01550D9261650DA220EC0DFFF1E
:10185800030E1524016E000E1620026E0FC003F051
:1018680010C004F012C005F013C006F0E9EC0EF049
:1018780020EE34F00B50D9260C50DA2210EE34F05A
:101888000B50E1260C50E222E750116E1128030B91
:10189800DF6E15C0D9FF16C0DAFF010EDF6E010E2C
:1018A80000D0120000010001A76701D001D002D0CA
:1018B80045D044D00001C4EC0DF000010001635193
:1018C80000016211D8B401D001D002D037D036D08F
:1018D8000001AEEC10F0000100016151000160113F
:1018E800D8A401D001D002D029D028D00001000E00
:1018F80000010001616F0001AA0E0001606F000184
:10190800C0EC0FF00009D8B401D001D002D016D035
:1019180015D00101010E00010001616F01016C0E7B
:101928000001606F0001C0EC0FF00009D8B401D0CD
:1019380001D002D003D002D0EBEC10F01200060068
:10194800EACF9CF0E1CF9DF0E2CF9EF0D9CF9FF097
:10195800DACFA0F0F3CFA1F0F4CFA2F0F6CFA3F046
:10196800F7CFA4F0F8CFA5F0F5CFA6F09EA601D04A
:1019780001D004D09E9668EC10F000D0F2A401D0FB
:1019880001D003D0F294E4EC0AF056EC0CF0A6C0B7
:10199800F5FFA5C0F8FFA4C0F7FFA3C0F6FFA2C0DB
:1019A800F4FFA1C0F3FFA0C0DAFF9FC0D9FF9EC01B
:1019B800E2FF9DC0E1FF9CC0EAFF9BC0E9FF9AC01F
:1019C800FBFF99C0FAFF1100010120EE34F001017C
:1019D800A251D9260101A351DA22000EDF6E0101BE
:1019E80020EE35F00101A251D9260101A351DA22D6
:1019F800000EDF6E0101A46F000E01010101A56F49
:101A08000101A451030E01010101A56501D001D016
:101A180002D01CD01BD001010101A5510D0DF350BE
:101A280001010101A225D96EF45001010101A32190
:101A3800DA6E000EDF6E01010101A52B030E010114
:101A48000101A56501D001D0E6D700D0120001013F
:101A5800A66F000E00010001A76F0101A651010148
:101A6800010E01010101A36F01016C0E0101A26FBA
:101A78000101E8EC0CF00001000E01010101A36F67
:101A88000001AA0E0101A26F0101E8EC0CF00101AE
:101A9800010E01010101A36F0101360E0101A26FC0
:101AA8000101E8EC0CF00101010E01010101A36F35
:101AB8000101000E0101A26F0101E8EC0CF0120017
:101AC800A2C1E0F0A3C1E1F0000120EE0AF000019C
:101AD800E051D9260001E151DA22000EDF6E000143
:101AE80020EE0BF00001E051D9260001E151DA2285
:101AF800000EDF6E000120EE0CF00001E051D92647
:101B08000001E151DA22050EDF6E000120EE0EF031
:101B18000001E051D9260001E151DA22000EDF6E02
:101B28001200F2AC01D001D00AD0000E010101016F
:101B3800A56F000E0101A46F22D021D020D0010191
:101B48009AEC10F001010101A3510101A211D8B4CE
:101B580001D001D00AD0000E01010101A56F000ECD
:101B68000101A46F0CD00BD00AD0000E01010101B5
:101B7800A56F010E0101A46F02D001D000D01200A0
:101B8800F2AC01D001D00AD0000E00010001636F51
:101B9800000E0001626F22D021D020D00001AEECEF
:101BA80010F000010001615100016011D8B401D0AA
:101BB80001D00AD0000E00010001636F000E000181
:101BC800626F0CD00BD00AD0000E00010001636FC9
:101BD800010E0001626F02D001D000D01200010195
:101BE80095EC0DF001010101A5510101A411D8A442
:101BF80001D001D016D001019AEC10F001010101C9
:101C0800A3510101A211D8A401D001D00AD0000E1D
:101C180001010101A76F010E0101A66F0BD00AD0C7
:101C280009D0000E01010101A76F000E0101A66F86
:101C380001D000D01200A4C1AAF1A5C1ABF1A2C184
:101C4800A8F1A3C1A9F113D0AAC1D9FFABC1DAFF8A
:101C5800A8C1E1FFA9C1E2FFDFCFE7FF0101010150
:101C6800AA4BAB2B01010101A84BA92B00D0010104
:101C78000101A607D8A0A7070101A629D8B4A7295A
:101C8800D8A401D001D0E0D700D0120062C068F01B
:101C980063C069F060C066F061C067F013D068C0C7
:101CA800D9FF69C0DAFF66C0E1FF67C0E2FFDFCF96
:101CB800E7FF00010001684B692B00010001664B3A
:101CC800672B00D0000100016407D8A06507000158
:101CD8006429D8B46529D8A401D001D0E0D700D0B0
:101CE8001200ADC1D9FFAEC1DAFFDF500101AF6FFD
:101CF800B06BA7C1D9FFA8C1DAFFAFC1DEFFB0C181
:101D0800DDFFE2C0B1F10101AF6F010E0101010178
:101D1800A26F0101AF510101010E01010101A46F80
:101D28000101B10E0101A36F01017CEC08F0120062
:101D380001010101A4511E0AA511D8A401D001D0A6
:101D480002D01CD01BD001010101A4511F0AA5110A
:101D5800D8A401D001D012D001010101A65101017E
:101D68000101A825D96E01010101A7510101010155
:101D7800A921DA6E000EDF6E01D000D01200010139
:101D8800A36F020E00010001A96F0101A351010E0A
:101D9800C86E000EC66E000EC56E000EC76EC65029
:101DA8002009C66EC6500809C66EC7508009C76E9E
:101DB800000120EE1BF00001E051D9260001E1519D
:101DC800DA220101A2C1DFFF120003C009F004C03A
:101DD8000AF001C007F002C008F00FD009C0D9FF0F
:101DE8000AC0DAFF07C0E1FF08C0E2FFDFCFE7FF64
:101DF800094A0A2A074A082A00D00506D8A0060672
:101E08000528D8B40628D8A401D001D0E7D700D037
:101E18001200DCEC10F001C021F002C022F021C059
:101E28001FF02250206E1B6E100E1D6E1B5038C006
:101E38001EF0382A1B6E040E176E1B501C6E280EDF
:101E4800186E1C50000E1A6E1D0E196E7BEC10F0E9
:101E5800120001010101A2517E0BCD6E01010101A9
:101E6800A2AD01D001D002D0CD8E02D0CD9E00D03F
:101E7800000ECF6E000ECE6E9E9001010101A2AF42
:101E880001D001D002D09D8001D09D90CD8012005C
:101E9800C1EC10F001C01FF002C020F0000E1E6E51
:101EA800010E1D6E1DC001F01EC002F0CAEC10F03C
:101EB8001B6E020E176E1B501C6E0B0E186E1C50FC
:101EC800000E1A6E1F0E196E7BEC10F0120001EE58
:101ED80000F0A20EEE6AE806FDE100EEA7F0390E6A
:101EE800EE6AE806FDE1386A376A366A356A346AA6
:101EF800DC0EF66E210EF76E000EF86E0900F5CFB7
:101F0800E2F0000159EF04F0010120EE35F0010183
:101F1800A251D9260101A351DA22DF500101A46F91
:101F28000101A4510D0DF35001010101A225D96E43
:101F3800F45001010101A321DA6EDF5000D0120034
:101F4800F20E3716ABAC01D001D007D03790ABA05A
:101F580001D001D002D0378000D0ABA401D001D08D
:101F680001D03784ABA201D001D001D03786AECFE3
:101F780001F0015000D01200000120EE35F0000100
:101F88006051D92600016151DA22DF500001626FE9
:101F9800000162510D0DF350000100016025D96E5A
:101FA800F450000100016121DA6EDF5000D0120008
:101FB8000001000E01010101AD6F0001AA0E01012F
:101FC800AC6FBAC1AEF1BBC1AFF1BCC1B0F1BDC11C
:101FD800B1F1BEC1B2F10101B3EC06F000D01200BC
:101FE8000101010E01010101AD6F01016C0E01013A
:101FF800AC6FBAC1AEF1BBC1AFF1BCC1B0F1BDC1EC
:10200800B1F1BEC1B2F10101B3EC06F000D012008B
:102018000101010E000100016B6F0101000E0001BA
:102028006A6F78C06CF079C06DF07AC06EF07BC0D2
:102038006FF07CC070F0000153EC07F000D0120084
:102048000101010E000100016B6F0101360E000154
:102058006A6F78C06CF079C06DF07AC06EF07BC0A2
:102068006FF07CC070F0000153EC07F000D0120054
:102078000101010E01010101AD6F0101360E0101DF
:10208800AC6FB8C1AEF1B9C1AFF1BAC1B0F1BBC163
:10209800B1F1010101EC09F000D012000001000EBD
:1020A800000100016B6F0001AA0E00016A6F76C083
:1020B8006CF077C06DF078C06EF079C06FF00001F9
:1020C80084EC09F000D0120007D06BEC00F00ED0C1
:1020D800D6EC05F00BD00AD000010001A951010A85
:1020E800D8B4F3D7030AD8B4F3D700D0120001014B
:1020F800010E0C6E01016C0E0B6E17C00DF018C0AE
:102108000EF019C00FF01AC010F0FDEC0BF000D063
:102118001200A2C139F0A3C13AF020EE04F0395000
:10212800D9263A50DA22000EDF6E1200000EF2AE07
:10213800010E01010101A26F0101A36B00D0120081
:10214800FA0E00F0E82EFDD701010101A22FF8D701
:1021580000D01200000EF2AE010E00010001606F07
:102168000001616B00D01200A2C1D9FFA3C1DAFF40
:10217800000EDE6E000EDD6E1200CECF03F0CFCF64
:1021880004F003C001F004C002F0120001C003F023
:1021980002C004F004C0CFFF03C0CEFF120060C02D
:1021A80062F061C063F063C0D7FF62C0D6FF12005F
:1021B800C450026EC350016E00D01200A8C1AAF12B
:1021C800A9C1ABF11200D08EF28EF28C1200D38E20
:0621D80003001200AA0042
:020000040020DA
:08000000FFFFFFFFFFFFFFFF00
:020000040030CA
:0E000000FF08191EFF8080FF0FC00FE00F40A9
:00000001FF
