:0400000069EF00F0B4
:10000800FACFDCF0FBCFDDF0E9CFDEF0CAEF09F084
:10001800D8CF21F0E8CF22F0E0CF23F0FACF24F0B8
:10002800FBCF25F0E9CF26F0EACF27F0E1CF28F083
:10003800E2CF29F0D9CF2AF0DACF2BF0F3CF2CF08A
:10004800F4CF2DF0F6CF2EF0F7CF2FF0F8CF30F019
:10005800F5CF31F09EA001D001D004D09E9093EC52
:100068000CF000D09EAC01D001D004D09E9CEAECEC
:100078000CF000D09EAA01D001D004D09E9A69EC61
:1000880008F000D031C0F5FF30C0F8FF2FC0F7FFEF
:100098002EC0F6FF2DC0F4FF2CC0F3FF2BC0DAFFF3
:1000A8002AC0D9FF29C0E2FF28C0E1FF27C0EAFF24
:1000B80026C0E9FF25C0FBFF24C0FAFF23C0E0FFEC
:1000C80022C0E8FF21C0D8FF100049EF0DF0000161
:1000D800C26F000E00010001DB6F0001C251000178
:1000E800C26F000E00010001D36F0001C251000170
:1000F800C26F000E00010001DA6F0001C251000159
:10010800C26F000E00010001D96F0001C251000149
:10011800C26F000E00010001D46F0001C251C6ACCD
:1001280001D001D021D0C69C20EE0CF04A50D9262F
:100138004B50DA22050EDF6E0001C26F010E00017E
:100148000001D46F0001C25120EE0EF04A50D926AA
:100158004B50DA22DF2A20EE0DF04A50D9264B50B8
:10016800DA22040EDF6E00D0C7A001D001D00BD078
:10017800C9CFD7F00001C26F010E00010001DB6F8B
:100188000001C25100D000010001D46701D001D0A4
:10019800E7D1D2D1D1D1C7A601D001D0E1D1DBC0FE
:1001A80032F077EC09F020EE0CF04A50D9264B508B
:1001B800DA22080EDF6201D001D0D2D10001C26F6D
:1001C800000E00010001DB6F0001C2510001C26F87
:1001D800010E00010001D96F0001C251C1D1C0D187
:1001E800BFD1C7A801D001D034D020EE0BF04A50BF
:1001F800D9264B50DA22DF2A00010001DB51D8B49E
:1002080001D001D01DD0C7BA01D001D009D000015A
:10021800C26F010E00010001DA6F0001C25110D057
:1002280020EE0EF04A50D9264B50DA22DF2A20EE73
:100238000DF04A50D9264B50DA22060EDF6E00D058
:1002480020EE0CF04A50D9264B50DA22050EDF6E0C
:1002580087D100010001DB51D8B401D001D080D191
:1002680020EE0BF04A50D9264B50DA22DF2AC7BAC3
:1002780001D001D027D0C7B401D001D009D020EED9
:100288000CF04A50D9264B50DA22070EDF6E68D19F
:1002980020EE0CF04A50D9264B50DA22080EDF6EB9
:1002A8000001C26F010E00010001D96F0001C251A7
:1002B8000001C26F000E00010001DB6F0001C25196
:1002C8004FD14ED120EE0EF04A50D9264B50DA22AB
:1002D800DF2A20EE0CF04A50D9264B50DA22050EC0
:1002E800DF6E20EE0DF04A50D9264B50DA22060E6A
:1002F800DF6E36D135D134D133D120EE1AF04A50E1
:10030800D9264B50DA22DF500001C26F20EE19F0D7
:100318004A50D9264B50DA22DF500001C25DD8B0CE
:1003280001D001D028D020EE1AF04A50D9264B50DF
:10033800DA22DF500001C26F0001C251010D0F0E19
:10034800F326000EF422F3504A24D96EF4504B20C1
:10035800DA6EDF50C96E20EE1AF04A50D9264B509B
:10036800DA22DF2A0001C26F010E00010001D36FFB
:100378000001C251F5D020EE0CF04A50D9264B505E
:10038800DA22050EDF6EECD0EBD0C7A801D001D081
:1003980062D020EE0BF04A50D9264B50DA22DF2AE1
:1003A80000010001DB51D8B401D001D042D0C7AA66
:1003B80001D001D025D020EE0AF04A50D9264B5062
:1003C800DA22DF500001C26F0001C251010DF35063
:1003D8004A24D96EF4504B20DA6E0001D7C0DFFFF3
:1003E80020EE0AF04A50D9264B50DA22DF2A0001C3
:1003F800C26F010E00010001DA6F0001C25122D064
:1004080020EE0EF04A50D9264B50DA22DF2A20EE91
:100418000DF04A50D9264B50DA22060EDF6E20EE38
:100428000CF04A50D9264B50DA22050EDF6E0AD05E
:1004380009D00001C26F010E00010001DA6F00014E
:10044800C25100D020EE0CF04A50D9264B50DA2287
:10045800050EDF6E85D000010001DB51D8B401D054
:1004680001D07ED020EE0BF04A50D9264B50DA222C
:10047800DF2AC7AA01D001D01DD020EE0AF04A50C9
:10048800D9264B50DA22DF500001C26F0001C25159
:10049800010DF3504A24D96EF4504B20DA6E000156
:1004A800D7C0DFFF20EE0AF04A50D9264B50DA2297
:1004B800DF2A56D0C7A401D001D021D020EE0CF0FD
:1004C8004A50D9264B50DA22080EDF6E0001C26F5F
:1004D800010E00010001DA6F0001C2510001C26F74
:1004E800010E00010001D96F0001C2510001C26F65
:1004F800000E00010001DB6F0001C25131D020EE77
:100508000EF04A50D9264B50DA22DF2A20EE0DF0A1
:100518004A50D9264B50DA22060EDF6E20EE0CF038
:100528004A50D9264B50DA22050EDF6E19D018D062
:1005380017D016D015D014D020EE0CF04A50D9267A
:100548004B50DA22DF50050AD8B425D6030AD8B4AE
:1005580048D6010AD8B419D70F0AD8B4CED600D0D5
:1005680000010001DB6701D001D007D000010001C4
:10057800D351D8B401D001D007D0C6B801D001D02A
:1005880003D0C68801D000D020EE0AF04A50D92600
:100598004B50DA22080EDF6401D001D01ED00001D2
:1005A8000001DA6701D001D018D020EE0CF04A50D3
:1005B800D9264B50DA22050EDF6E20EE0EF04A5097
:1005C800D9264B50DA22DF2A20EE0DF04A50D926E0
:1005D8004B50DA22070EDF6E00D000010001DA511D
:1005E800D8B401D001D050D00001C26F0A0E00016A
:1005F8000001BD6F0001C2510001000E00010001A1
:10060800BF6F0001D80E0001BE6F0001000E00018F
:100618000001C16F0001C40E0001C06F00015DEC54
:100628000DF000010001D56F0001D66B0001D5BFA8
:10063800D60700010001D651800A800F010ED8B4F8
:10064800D55DD8A001D001D00BD0D5C032F00001C3
:10065800000E346E0001C40E336E09EC08F063D04E
:1006680080C0CEF081C0CFF00001C26F020E326EA2
:100678000001C2510001000E346E0001CE0E336E2F
:1006880009EC08F050D04FD020EE0EF04A50D92691
:100698004B50DA22DF50D8B401D001D044D020EE3C
:1006A8000EF04A50D9264B50DA22DF5000010001E3
:1006B800D06F20EE0DF04A50D9264B50DA22DF5089
:1006C80000010001D16F20EE0BF04A50D9264B50A3
:1006D800DA22DF5000010001D26F0001C26F030E61
:1006E80000010001BD6F0001C2510001C36F290E56
:1006F80000010001BE6F0001C3510001000E00019E
:100708000001C06F0001D00E0001BF6F0001CFECE7
:100718000DF020EE0EF04A50D9264B50DA22000E8A
:10072800DF6E01D000D000010001D951D8B401D04A
:1007380001D009D00001C26F000E00010001D96F7D
:100748000001C25100D01200820ED36E9B9C0101A1
:10075800010E01010101A36F0101D20E0101A26F77
:100768000101EFEC0DF00101010E01010101A36F80
:100778000101D90E0101A26F0101E5EC0BF00101A5
:10078800010E01010101A86F0101D00E0101A76F3F
:10079800010106EC0BF0CFEC0AF0000E936E000E90
:1007A8008A6E000E806E000E896E0F0EC16E0F0EDF
:1007B800926E0101BF6FF50E01010101A26F0101E7
:1007C800BF51010174EC0CF03DEC0EF09F909F9C22
:1007D8009F9A9F860101BF6F9E0E01010101A26FC2
:1007E8000101BF510101ABEC0DF09D860101BF6F06
:1007F8006C0E01010101A26F0101BF51000E010140
:100808000101A46F190E0101A36F0101C4EC08F0E6
:1008180000D03FEC07F00101BF6F0A0E0101010192
:10082800BA6F0101BF510101010E01010101BC6F45
:100838000101D80E0101BB6F0101010E0101010187
:10084800BE6F0101C00E0101BD6F010103EC0DF087
:1008580001010101D76F01010101D7AF01D001D01A
:100868003CD04CD04BD04AD038D00101010E010108
:100878000101A36F0101CD0E0101A26F0101010168
:10088800D8C1A4F101010101A56B01010101D751F2
:1008980001010101A66F0101A76B0101A6BFA7070E
:1008A8000101010E01010101A96F0101C00E010141
:1008B800A86F010138EC0EF021D0C0C1CFF11ED0D5
:1008C80002D01CD01BD001010101CF51AA0AD8B413
:1008D80015D014D013D012D011D001010101D85174
:1008E8000A0AD8B4C2D7220AD8B4E7D7010AD8B4BA
:1008F800E4D7030AD8B4E7D701D000D00101BF6F0D
:100908000A0E01010101BA6F0101BF510101010E77
:1009180001010101BC6F0101D80E0101BB6F01018A
:10092800010E01010101BE6F0101C00E0101BD6F81
:1009380001011BEC0DF001010101D76F010101015B
:10094800D7AF01D001D068D064D763D762D764D05D
:100958000101010E01010101A36F0101D00E010186
:10096800A26F01010101D8C1A4F101010101A56B28
:1009780001010101D75101010101A66F0101A76B16
:100988000101A6BFA7070101010E01010101A96F1D
:100998000101C00E0101A86F010185EC0DF039D7E6
:1009A800D7C1B8F1D8C1B9F10101010E01010101A6
:1009B800BB6F0101C00E0101BA6F010133EC0DF0EC
:1009C80001D000D00101010E01010101A36F010155
:1009D800CB0E0101A26F01010101D8C1A4F10101EF
:1009E8000101A56B01010101D75101010101A66FA8
:1009F8000101A76B0101A6BFA7070101010E0101B3
:100A08000101A96F0101C00E0101A86F0101BEEC2F
:100A18000BF0FFD6FED6FDD601010101D8510B0A15
:100A2800D8B496D7150AD8B4CDD7010AD8B4CAD73E
:100A3800370AD8B4B5D7EDD6ECD6EBD6EAD669EFF7
:100A480000F0010120EE35F00101AC51D926010179
:100A5800AD51DA22DF5001010101B56F0101010139
:100A6800B5510D0DF35001010101AC250101010142
:100A7800B86FF45001010101AD210101B96F010EF8
:100A8800B8C1D9FFB9C1DAFFDF6201D001D075D092
:100A9800010120EE01F00101B851D9260101B95137
:100AA800DA22DF5001010101AE6101D001D003D08B
:100AB800FD0E66D065D0010120EE01F00101B851AC
:100AC800D9260101B951DA22DF500101B36F0101C2
:100AD800B35101010101B66F0101B76BB1C1A2F1B8
:100AE800B2C1A3F1030E01010101B8250101B36FE1
:100AF800000E01010101B9210101B46FB3C1A4F1D4
:100B0800B4C1A5F1B6C1A6F1B7C1A7F1010193EC33
:100B18000BF0010120EE35F00101AC51D92601019D
:100B2800AD51DA22010110EE35F00101AC51E12698
:100B38000101AD51E222E7500101B36F0101B32970
:100B4800030BDF6E010120EE02F00101B851D92636
:100B58000101B951DA22AFC1E1FFB0C1E2FFDFCF35
:100B6800E7FFB8C1D9FFB9C1DAFF000EDF6E010196
:100B78000101B65105D004D003D0FC0E01D000D03D
:100B8800120020EE35F03C50D9263D50DA22DF50D5
:100B980000010001B86F00010001B8510D0DF350BC
:100BA8003C2400010001BB6FF4503D200001BC6FE4
:100BB800010EBBC0D9FFBCC0DAFFDF6201D001D093
:100BC80066D0000120EE01F00001BB51D9260001DA
:100BD800BC51DA22DF503E6001D001D003D0FD0EB7
:100BE80059D058D0000120EE01F00001BB51D926A0
:100BF8000001BC51DA22DF50436E4350000100016E
:100C0800B96F0001BA6B41C032F042C033F0030E35
:100C180000010001BB25436E000E00010001BC214C
:100C2800446E43C034F044C035F0B9C036F0BAC0A1
:100C380037F02EEC0CF020EE35F03C50D9263D5024
:100C4800DA2210EE35F03C50E1263D50E222E75022
:100C5800436E4328030BDF6E000120EE02F0000113
:100C6800BB51D9260001BC51DA223FC0E1FF40C088
:100C7800E2FFDFCFE7FFBBC0D9FFBCC0DAFF000E41
:100C8800DF6E00010001B95105D004D003D0FC0E7D
:100C980001D000D0120001010101AEC1B3F1010180
:100CA8000101B46B010120EE34F00101AC51D926E9
:100CB8000101AD51DA22DF5001010101B56F0101D7
:100CC8000101B5510D0DF35001010101AC250101E0
:100CD8000101B66FF45001010101AD210101B76FA7
:100CE800B6C1D9FFB7C1DAFFDF50D8B401D001D0FF
:100CF80003D0FF0E52D051D0010120EE01F00101C6
:100D0800B651D9260101B751DA220101AEC1DFFF80
:100D1800010120EE02F00101B651D9260101B751B7
:100D2800DA220101AFC1DFFF030E01010101B6257F
:100D380001010101A26F000E01010101B7210101AA
:100D4800A36FB0C1A4F1B1C1A5F1B3C1A6F1B4C1FB
:100D5800A7F1010193EC0BF0010120EE34F0010141
:100D6800AC51D9260101AD51DA22010110EE34F05F
:100D78000101AC51E1260101AD51E222E750010128
:100D8800B26F0101B229030BDF6EB6C1D9FFB7C13B
:100D9800DAFF010EDF6E010E00D0120000013EC026
:100DA800B8F000010001B96B20EE34F03C50D926B0
:100DB8003D50DA22DF5000010001BA6F0001000146
:100DC800BA510D0DF3503C2400010001BB6FF450E3
:100DD8003D200001BC6FBBC0D9FFBCC0DAFFDF50AB
:100DE800D8B401D001D003D0FF0E44D043D00001C5
:100DF80020EE01F00001BB51D9260001BC51DA22D6
:100E08003EC0DFFF000120EE02F00001BB51D926F1
:100E18000001BC51DA223FC0DFFF030E00010001D0
:100E2800BB25326E000E00010001BC21336E40C0AC
:100E380034F041C035F0B8C036F0B9C037F02EEC08
:100E48000CF020EE34F03C50D9263D50DA2210EE5A
:100E580034F03C50E1263D50E222E750426E4228F1
:100E6800030BDF6EBBC0D9FFBCC0DAFF010EDF6E1B
:100E7800010E00D01200010167EC0BF00101010125
:100E8800A7510101A611D8A401D001D002D05CD08D
:100E98005BD08A860101A86F010E486E0101A85136
:100EA80000D00101010E01010101A36F01016C0EC7
:100EB8000101A26F0101B2EC0CF00009D8B401D015
:100EC80001D009D00101A86F000E486E0101A85198
:100ED8008A963AD039D00001000E01010101A36FB2
:100EE8000001820E0101A26F0101B2EC0CF00009B1
:100EF800D8B401D001D009D00101A86F000E486E06
:100F08000101A8518A9620D01FD00101A86F0A0EAE
:100F180001010101A26F0101A851010106EC0EF0C7
:100F28008AA601D002D0010E01D0000E0101A86FDF
:100F38000101A847A847A8478A500101A819F70B3B
:100F4800A8198A6EAED7ADD712008AA001D002D0F8
:100F5800010E01D0000E0001C26F8A500001C219B3
:100F6800FE0BC2198A6E000E336E000E326E22EC32
:100F78000EF00001C26F020E00010001BD6F0001FA
:100F8800C2510001000E00010001BF6F0001C40E34
:100F98000001BE6F0001000E00010001C16F0001D9
:100FA800C80E0001C06F000171EC0DF000010001D6
:100FB800C66F0001C76B0001C6BFC707000100016B
:100FC800C651020AC711D8A401D001D01DD0000112
:100FD800C26F020E00010001BD6F0001C251000185
:100FE800C36F0A0E00010001BE6F0001C35100016A
:100FF800000E00010001C06F0001C80E0001BF6FA4
:101008000001CFEC0DF000D0120020EE19F04A508C
:10101800D9264B50DA22000EDF6E2ED020EE19F0C2
:101028004A50D9264B50DA22DF50356E3550010D23
:10103800F3503324D96EF4503420DA6E10EE19F0E0
:101048004A50E1264B50E222E750366E3650010DE9
:101058000F0EF326000EF422F3504A24E16EF450EA
:101068004B20E26EDFCFE7FF20EE19F04A50D92679
:101078004B50DA22DF2A00D020EE19F04A50D92648
:101088004B50DA22DF50356E3250355CD8A001D093
:1010980001D0C4D700D020EE19F04A50D9264B50C1
:1010A800DA2232C0DFFF20EE1AF04A50D9264B5020
:1010B800DA22010EDF6E20EE0FF04A50D9264B508F
:1010C800DA22DF50C96EC68812009EAA01D001D06C
:1010D80041D020EE04F04C50D9264D50DA22DF5092
:1010E8001B6E1B50010DF3504C24D96EF4504D204B
:1010F800DA6ECEEC0CF0DF6E20EE04F04C50D92600
:101108004D50DA22DF2A20EE04F04C50D9264D50FB
:10111800DA22040EDF6201D001D01CD020EE04F0E8
:101128004C50D9264D50DA22DF50176E1B6E1F0E19
:10113800186E1B504CC019F04DC01AF0BDEC0DF0E4
:1011480020EE04F04C50D9264D50DA22000EDF6E06
:1011580001D000D049A601D001D011D0AB98AB88FE
:101168001B6E000E176E1B501C6E1E0E186E1C5048
:10117800000E1A6E000E196EBDEC0DF000D01200B4
:10118800000EAC6E000EAB6E01010101A2A101D0F0
:1011980001D001D0AC8801010101A2A301D001D086
:1011A80002D0AC8CAB8C01010101A2A501D001D009
:1011B80001D0AC8E01010101A2A701D001D002D05B
:1011C800AB8801D0AB8A01010101A2A901D001D0ED
:1011D80001D0AC849E9801010101A2AB01D001D0DD
:1011E80001D0AB8601010101A2AD01D001D002D02E
:1011F8009D8A01D09D9A9E9A01010101A2AF01D05A
:1012080001D002D09D8801D09D98A3C1AFFF0101F4
:101218000101A451B06EAC8AAB8E949C948EACA89C
:1012280001D001D006D0ACBE01D001D002D0948C40
:1012380000D012000DC012F0136A20EE34F00B50EB
:10124800D9260C50DA22DF50146E14500D0DF350CD
:101258000B24156EF4500C20166E15C0D9FF16C05D
:10126800DAFFDF50D8B401D001D003D0FF0E3AD056
:1012780039D020EE01F01550D9261650DA220DC0CB
:10128800DFFF20EE02F01550D9261650DA220EC0E4
:10129800DFFF030E1524016E000E1620026E0FC02C
:1012A80003F010C004F012C005F013C006F00AECF9
:1012B8000CF020EE34F00B50D9260C50DA2210EE48
:1012C80034F00B50E1260C50E222E750116E112841
:1012D800030BDF6E15C0D9FF16C0DAFF010EDF6EF3
:1012E800010E00D0120020EE0BF04A50D9264B50C8
:1012F800DA22010EDF6E20EE0AF04A50D9264B5052
:10130800DA22000EDF6E3250D8B401D001D034D0CA
:10131800C7AA01D001D018D020EE0CF04A50D92627
:101328004B50DA22050EDF6E20EE0EF04A50D92619
:101338004B50DA22DF2A20EE0DF04A50D9264B50C6
:10134800DA22050EDF6E21D0C7A401D001D009D062
:1013580020EE0CF04A50D9264B50DA22080EDF6EE8
:1013680014D020EE0CF04A50D9264B50DA22070E42
:10137800DF6E0BD00AD009D020EE0CF04A50D926E7
:101388004B50DA22060EDF6E00D01200EACFDFF0F3
:10139800E1CFE0F0E2CFE1F0D9CFE2F0DACFE3F04D
:1013A800F3CFE4F0F4CFE5F0F6CFE6F0F7CFE7F0CF
:1013B800F8CFE8F0F5CFE9F09EA601D001D004D02F
:1013C8009E966BEC00F000D0F2A401D001D004D0BE
:1013D800F294A9EC07F000D094EC0AF0E9C0F5FF0C
:1013E800E8C0F8FFE7C0F7FFE6C0F6FFE5C0F4FF86
:1013F800E4C0F3FFE3C0DAFFE2C0D9FFE1C0E2FFD7
:10140800E0C0E1FFDFC0EAFFDEC0E9FFDDC0FBFFAF
:10141800DCC0FAFF1100010120EE34F00101A251F5
:10142800D9260101A351DA22000EDF6E010120EE58
:1014380035F00101A251D9260101A351DA22000E8B
:10144800DF6E0101A46F000E01010101A56F01010A
:10145800A451030E01010101A56501D001D002D0FC
:101468001CD01BD001010101A5510D0DF350010144
:101478000101A225D96EF45001010101A321DA6E00
:10148800000EDF6E01010101A52B030E0101010110
:10149800A56501D001D0E6D700D01200000EC26EBB
:1014A800000EC06E01010101D890A3313C0BC26E41
:1014B800A3C1A5F10101A53BF00EA517300E01014E
:1014C800A51701010101A4510F0B0101A511C16E5E
:1014D800A2C1A5F10101D890A5370101D890A5377F
:1014E800380E0101A517A2C1A6F10101A63B0F0EF6
:1014F800A617070E0101A61701010101A251800BD1
:101508000101A6110101A511C06E01010101A3AFDE
:1015180001D001D003D09E9C9D8CF28CC280120019
:10152800486601D001D002D035D034D052EC0CF04E
:1015380035503410D8B401D001D002D02BD02AD0E5
:101548002BEC0EF033503210D8A401D001D002D0C9
:1015580021D020D00101010E336E01016C0E326ED4
:1015680098EC0DF00009D8B401D001D002D012D007
:1015780011D00001000E336E0001820E326E98EC1D
:101588000DF00009D8B401D001D002D003D002D0A8
:1015980041EC0EF012000101A66F000E486E010129
:1015A800A6510001000E01010101A36F0001820E86
:1015B8000101A26F01010FEC0AF00101010E010106
:1015C8000101A36F01016C0E0101A26F01010FEC73
:1015D8000AF00101010E01010101A36F0101360E9C
:1015E8000101A26F01010FEC0AF00101010E0101D6
:1015F8000101A36F0101000E0101A26F01010FECAF
:101608000AF012000101A96F910E01010101A26FF8
:101618000101A9510101AA6F040E01010101A36F83
:101628000101AA510101AB6F0B0E01010101A46F69
:101638000101AB51010152EC0AF00101A96F870EBB
:1016480001010101A26F0101A9510101E1EC0DF0B5
:101658009E9CF28C9D8CA7C1D9FFA8C1DAFF000E11
:10166800DE6E000EDD6E1200F2AC01D001D00AD0A1
:10167800000E01010101A56F000E0101A46F22D027
:1016880021D020D00101FCEC0DF001010101A35192
:101698000101A211D8B401D001D00AD0000E010175
:1016A8000101A56F000E0101A46F0CD00BD00AD068
:1016B800000E01010101A56F010E0101A46F02D006
:1016C80001D000D01200010138EC0BF0010101013A
:1016D800A5510101A411D8A401D001D016D001014F
:1016E800FCEC0DF001010101A3510101A211D8A4E4
:1016F80001D001D00AD0000E01010101A76F010E2F
:101708000101A66F0BD00AD009D0000E010101011A
:10171800A76F000E0101A66F01D000D01200A4C16E
:10172800AAF1A5C1ABF1A2C1A8F1A3C1A9F113D037
:10173800AAC1D9FFABC1DAFFA8C1E1FFA9C1E2FF85
:10174800DFCFE7FF01010101AA4BAB2B010101012A
:10175800A84BA92B00D001010101A607D8A0A70713
:101768000101A629D8B4A729D8A401D001D0E0D76F
:1017780000D0120001010101A4511E0AA511D8A42C
:1017880001D001D002D01CD01BD001010101A4510D
:101798001F0AA511D8A401D001D012D0010101015E
:1017A800A65101010101A825D96E01010101A75126
:1017B80001010101A921DA6E000EDF6E01D000D00F
:1017C8001200A2C14AF0A3C14BF020EE0AF04A5021
:1017D800D9264B50DA22000EDF6E20EE0BF04A506D
:1017E800D9264B50DA22000EDF6E20EE0CF04A505C
:1017F800D9264B50DA22050EDF6E20EE0EF04A5045
:10180800D9264B50DA22000EDF6E120003C009F011
:1018180004C00AF001C007F002C008F00FD009C0E8
:10182800D9FF0AC0DAFF07C0E1FF08C0E2FFDFCF37
:10183800E7FF094A0A2A074A082A00D00506D8A05D
:1018480006060528D8B40628D8A401D001D0E7D7C1
:1018580000D0120034C03AF035C03BF032C038F046
:1018680033C039F00FD03AC0D9FF3BC0DAFF38C0D7
:10187800E1FF39C0E2FFDFCFE7FF3A4A3B2A384AA7
:10188800392A00D03606D8A037063628D8B43728E3
:10189800D8A401D001D0E7D700D01200F2AC01D013
:1018A80001D007D0000E356E000E346E18D017D058
:1018B80016D02BEC0EF033503210D8B401D001D032
:1018C80007D0000E356E000E346E09D008D007D050
:1018D800000E356E010E346E02D001D000D0120019
:1018E80001010101A2517E0BCD6E01010101A2ADE2
:1018F80001D001D002D0CD8E02D0CD9E00D0000EF6
:10190800CF6E000ECE6E9E9001010101A2AF01D0F4
:1019180001D002D09D8001D09D90CD80120010ECA6
:101928000EF001C01FF002C020F01B6E020E176EF1
:101938001B501C6E0B0E186E1C50000E1A6E1F0EDC
:10194800196EBDEC0DF0000E1E6E010E1D6E1DC051
:1019580001F01EC002F019EC0EF01200010120EE99
:1019680035F00101A251D9260101A351DA22DF5035
:101978000101A46F0101A4510D0DF35001010101F2
:10198800A225D96EF45001010101A321DA6EDF50BE
:1019980000D01200F20E4916ABAC01D001D007D02E
:1019A8004990ABA001D001D002D0498000D0ABA4AF
:1019B80001D001D001D04984ABA201D001D001D01F
:1019C8004986AECF01F0015000D0120032EC0EF083
:1019D80001C01DF002C01EF0010E1E6E050E1D6E28
:1019E8001B6E020E176E1B501C6E280E186E1C50B4
:1019F800000E1A6E1D0E196EBDEC0DF012000101DD
:101A0800010E01010101AD6F01016C0E0101AC6F06
:101A1800BAC1AEF1BBC1AFF1BCC1B0F1BDC1B1F14A
:101A2800BEC1B2F1010125EC05F000D012000001A1
:101A3800000E01010101AD6F0001820E0101AC6FC2
:101A4800BAC1AEF1BBC1AFF1BCC1B0F1BDC1B1F11A
:101A5800BEC1B2F1010125EC05F000D01200010170
:101A6800010E01010101AD6F0101360E0101AC6FDC
:101A7800B8C1AEF1B9C1AFF1BAC1B0F1BBC1B1F1F2
:101A880001014FEC06F000D0120001EE00F0A20EAA
:101A9800EE6AE806FDE100EE80F0380EEE6AE80630
:101AA800FDE1496A486A476A466A456A0001A8EF43
:101AB80003F00101010E3D6E0101360E3C6EBDC002
:101AC8003EF0BEC03FF0BFC040F0C0C041F0C1C052
:101AD80042F0C5EC05F000D012000101010E3D6E88
:101AE8000101000E3C6EBDC03EF0BEC03FF0BFC05D
:101AF80040F0C0C041F0C1C042F0C5EC05F000D0D4
:101B08001200A8C1D9FFA9C1DAFFDF500101AA6FED
:101B1800AB6BA2C1D9FFA3C1DAFFAAC1DEFFABC17B
:101B2800DDFF44EC0EF0120020EE35F03250D926DD
:101B38003350DA22DF50346E34500D0DF350322416
:101B4800D96EF4503320DA6EDF5000D0120094863C
:101B58009488A2C1C8FF000EC76E000EC66E000EA4
:101B6800C56E0E0EC612C78E94869488C580C68A26
:101B780012000001000E0C6E0001820E0B6E17C0E1
:101B88000DF018C00EF019C00FF01AC010F01EECBE
:101B980009F000D012000101010E3D6E01016C0E2A
:101BA8003C6EBDC03EF0BEC03FF0BFC040F0C0C0FC
:101BB80041F0D2EC06F000D01200C2CFA3F1C30E60
:101BC8000101A31701010101D890A2313C0B0101C9
:101BD800A311C26E1200A2C14CF0A3C14DF020EEB9
:101BE80004F04C50D9264D50DA22000EDF6E120058
:101BF800000EF2AE010E01010101A26F0101A36BFB
:101C080000D01200FA0E00F0E82EFDD70101010104
:101C1800A22FF8D700D01200CECF03F0CFCF04F018
:101C280003C001F004C002F0120001C003F002C0BA
:101C380004F004C0CFFF03C0CEFF120032C034F05E
:101C480033C035F035C0D7FF34C0D6FF1200000EC0
:101C5800F2AE010E326E336A00D01200C450026E2A
:101C6800C350016E00D01200A8C1AAF1A9C1ABF1FE
:101C78001200D08EF28EF28C1200D38E0300120066
:041C8800C282120002
:067FF80080F4C5FFFFF15B
:00000001FF
