:0400000069EF00F0B4
:10000800FACFABF0FBCFACF0E9CFADF0BEEF09F023
:10001800D8CF23F0E8CF24F0E0CF25F0FACF26F0B0
:10002800FBCF27F0E9CF28F0EACF29F0E1CF2AF07B
:10003800E2CF2BF0D9CF2CF0DACF2DF0F3CF2EF082
:10004800F4CF2FF0F6CF30F0F7CF31F0F8CF32F011
:10005800F5CF33F09EA001D001D004D09E90A7EC3C
:100068000CF000D09EAC01D001D004D09E9C68EC6E
:100078000CF000D09EAA01D001D004D09E9A05ECC5
:1000880008F000D033C0F5FF32C0F8FF31C0F7FFE9
:1000980030C0F6FF2FC0F4FF2EC0F3FF2DC0DAFFEB
:1000A8002CC0D9FF2BC0E2FF2AC0E1FF29C0EAFF1C
:1000B80028C0E9FF27C0FBFF26C0FAFF25C0E0FFE4
:1000C80024C0E8FF23C0D8FF10005EEF0DF0406E9B
:1000D800000E00010001AA6F4050406E000E0001A2
:1000E8000001A26F4050406E000E00010001A96F90
:1000F8004050406E000E00010001A86F4050406E55
:10010800000E00010001A36F4050C6AC01D001D021
:100118001FD0C69C20EE0CF04850D9264950DA2250
:10012800050EDF6E406E010E00010001A36F405006
:1001380020EE0EF04850D9264950DA22DF2A20EE68
:100148000DF04850D9264950DA22040EDF6E00D04F
:10015800C7A001D001D009D0C9CFA6F0406E010ECA
:1001680000010001AA6F405000D000010001A36700
:1001780001D001D0C9D1B4D1B3D1C7A601D001D023
:10018800C3D1AAC034F06BEC09F020EE0CF0485053
:10019800D9264950DA22080EDF6201D001D0B4D145
:1001A800406E000E00010001AA6F4050406E010E23
:1001B80000010001A86F4050A7D1A6D1A5D1C7A8BA
:1001C80001D001D032D020EE0BF04850D92649504A
:1001D800DA22DF2A00010001AA51D8B401D001D0E7
:1001E8001BD0C7BA01D001D007D0406E010E000164
:1001F8000001A96F405010D020EE0EF04850D926CB
:100208004950DA22DF2A20EE0DF04850D92649500D
:10021800DA22060EDF6E00D020EE0CF04850D92608
:100228004950DA22050EDF6E6FD100010001AA5194
:10023800D8B401D001D068D120EE0BF04850D926AF
:100248004950DA22DF2AC7BA01D001D023D0C7B477
:1002580001D001D009D020EE0CF04850D9264950E1
:10026800DA22070EDF6E50D120EE0CF04850D92666
:100278004950DA22080EDF6E406E010E00010001BF
:10028800A86F4050406E000E00010001AA6F405058
:100298003BD13AD120EE0EF04850D9264950DA2207
:1002A800DF2A20EE0CF04850D9264950DA22050EF4
:1002B800DF6E20EE0DF04850D9264950DA22060E9E
:1002C800DF6E22D121D120D11FD120EE1AF0485063
:1002D800D9264950DA22DF50406E20EE19F04850F6
:1002E800D9264950DA22DF50405CD8B001D001D07D
:1002F80024D020EE1AF04850D9264950DA22DF508F
:10030800406E4050010D0F0EF326000EF422F350FC
:100318004824D96EF4504920DA6EDF50C96E20EEB9
:100328001AF04850D9264950DA22DF2A406E010EC9
:1003380000010001A26F4050E7D020EE0CF04850B9
:10034800D9264950DA22050EDF6EDED0DDD0C7A8E7
:1003580001D001D05CD020EE0BF04850D92649508E
:10036800DA22DF2A00010001AA51D8B401D001D055
:100378003ED0C7AA01D001D021D020EE0AF04850C3
:10038800D9264950DA22DF50406E4050010DF35013
:100398004824D96EF4504920DA6E0001A6C0DFFF68
:1003A80020EE0AF04850D9264950DA22DF2A406E5A
:1003B800010E00010001A96F405020D020EE0EF080
:1003C8004850D9264950DA22DF2A20EE0DF048504D
:1003D800D9264950DA22060EDF6E20EE0CF048507E
:1003E800D9264950DA22050EDF6E08D007D0406EB4
:1003F800010E00010001A96F405000D020EE0CF062
:100408004850D9264950DA22050EDF6E7DD000010A
:100418000001AA51D8B401D001D076D020EE0BF05B
:100428004850D9264950DA22DF2AC7AA01D001D07C
:100438001BD020EE0AF04850D9264950DA22DF5066
:10044800406E4050010DF3504824D96EF4504920B5
:10045800DA6E0001A6C0DFFF20EE0AF04850D92668
:100468004950DA22DF2A50D0C7A401D001D01BD0CE
:1004780020EE0CF04850D9264950DA22080EDF6EDB
:10048800406E010E00010001A96F4050406E010E40
:1004980000010001A86F4050406E000E00010001ED
:1004A800AA6F405031D020EE0EF04850D92649505E
:1004B800DA22DF2A20EE0DF04850D9264950DA22F8
:1004C800060EDF6E20EE0CF04850D9264950DA228D
:1004D800050EDF6E19D018D017D016D015D014D04D
:1004E80020EE0CF04850D9264950DA22DF50050A90
:1004F800D8B443D6030AD8B462D6010AD8B427D7E9
:100508000F0AD8B4E2D600D000010001AA6701D0D2
:1005180001D007D000010001A251D8B401D001D008
:1005280007D0C6B801D001D003D0C68801D000D00A
:1005380020EE0AF04850D9264950DA22080EDF6426
:1005480001D001D01ED000010001A96701D001D05F
:1005580018D020EE0CF04850D9264950DA22050E62
:10056800DF6E20EE0EF04850D9264950DA22DF2AF5
:1005780020EE0DF04850D9264950DA22070EDF6EDA
:1005880000D000010001A951D8B401D001D05FD03A
:10059800406E0A0E000100018C6F40500001000EF1
:1005A800000100018E6F0001A70E00018D6F000190
:1005B800000E00010001906F0001910E00018F6F85
:1005C80000012EEC0DF000010001A46F0001A56BE5
:1005D8000001A4BFA50700010001A551800A800FF2
:1005E800010ED8B4A45DD8A001D001D00BD0A4C00E
:1005F80034F00001000E366E0001910E356EA5EC48
:1006080007F070D0406E550E000100019B6F4050FE
:10061800C6C09CF0406E000E000100019D6F405066
:10062800406E000E000100019E6F40500001000165
:10063800C62B406E040E346E40500001000E366E1C
:1006480000019B0E356EA5EC07F04CD04BD020EE88
:100658000EF04850D9264950DA22DF50D8B401D0DC
:1006680001D040D020EE0EF04850D9264950DA2269
:10067800DF50000100019F6F20EE0DF04850D92691
:100688004950DA22DF5000010001A06F20EE0BF084
:100698004850D9264950DA22DF5000010001A16FE5
:1006A800406E030E000100018B6F4050416E290E11
:1006B800000100018C6F41500001000E0001000193
:1006C8008E6F00019F0E00018D6F00018BEC0DF005
:1006D80020EE0EF04850D9264950DA22000EDF6E7F
:1006E80001D000D000010001A851D8B401D001D038
:1006F80007D0406E000E00010001A86F405000D0E6
:100708001200820ED36E9B9C0101010E00010001B4
:10071800BA6F0101C50E0001B96F0001F9EC0DF0C7
:100728000101010E00010001BA6F0101CC0E0001A8
:10073800B96F0001D9EC0BF00101010E00010001B5
:10074800BF6F0101C30E0001BE6F0001FAEC0AF091
:10075800C3EC0AF0000E936E000E8A6E000E806ED7
:10076800000E896E0F0EC16E0F0E926E0001C56FDE
:10077800F50E00010001B96F0001C551000188ECB8
:100788000CF047EC0EF09F909F9C9F9A9F8600016B
:10079800C56F9E0E00010001B96F0001C55100012F
:1007A800C7EC0DF09D860001C56F6C0E00010001BD
:1007B800B96F0001C551000E00010001BB6F190E91
:1007C8000001BA6F000160EC08F000D03BEC07F0C4
:1007D8000001C56F0A0E01010101AE6F0001C5518C
:1007E8000101010E01010101B06F0101CB0E0101F0
:1007F800AF6F0101010E01010101B26F0101B30EDA
:100808000101B16F0101FEEC0CF001010101CA6F99
:1008180001010101CAAF01D001D03CD04CD04BD06E
:100828004AD038D00101010E00010001BA6F010160
:10083800C00E0001B96F01010001CBC1BBF000017E
:100848000001BC6B01010101CA5100010001BD6F2B
:100858000001BE6B0001BDBFBE070101010E000112
:100868000001C06F0101B30E0001BF6F000142EC2F
:100878000EF021D0B3C1C2F11ED002D01CD01BD0C3
:1008880001010101C251AA0AD8B415D014D013D05D
:1008980012D011D001010101CB510A0AD8B4C2D734
:1008A800220AD8B4E7D7010AD8B4E4D7030AD8B4DF
:1008B800E7D701D000D00001C56F0A0E0101010180
:1008C800AE6F0001C5510101010E01010101B06FB8
:1008D8000101CB0E0101AF6F0101010E0101010100
:1008E800B26F0101B30E0101B16F010116EC0DF0F9
:1008F80001010101CA6F01010101CAAF01D001D094
:1009080068D064D763D762D764D00101010E0001B3
:100918000001BA6F0101C30E0001B96F01010001A6
:10092800CBC1BBF000010001BC6B01010101CA5140
:1009380000010001BD6F0001BE6B0001BDBFBE0715
:100948000101010E00010001C06F0101B30E000199
:10095800BF6F0001A1EC0DF039D7CAC1ADF1CBC111
:10096800AEF10101010E01010101B06F0101B30EE9
:100978000101AF6F010175EC0DF001D000D001014C
:10098800010E00010001BA6F0101BE0E0001B96F2E
:1009980001010001CBC1BBF000010001BC6B0101EA
:1009A8000101CA5100010001BD6F0001BE6B0001C9
:1009B800BDBFBE070101010E00010001C06F0101AA
:1009C800B30E0001BF6F0001B2EC0BF0FFD6FED6EC
:1009D800FDD601010101CB510B0AD8B496D7150AEF
:1009E800D8B4CDD7010AD8B4CAD7370AD8B4B5D73E
:1009F800EDD6ECD6EBD6EAD669EF00F0010120EE91
:100A080035F00101A251D9260101A351DA22DF50A4
:100A180001010101A96F01010101A9510D0DF35057
:100A280001010101A22501010101AC6FF45001018E
:100A38000101A3210101AD6F010EACC1D9FFADC108
:100A4800DAFFDF6201D001D075D0010120EE01F09C
:100A58000101AC51D9260101AD51DA22DF50010163
:100A68000101A46101D001D003D0FD0E66D065D08C
:100A7800010120EE01F00101AC51D9260101AD516F
:100A8800DA22DF500001C36F0001C35101010101E7
:100A9800AA6F0101AB6BA7C1B9F0A8C1BAF0030EE8
:100AA80001010101AC250001C36F000E0101010124
:100AB800AD210001C46FC3C0BBF0C4C0BCF0AAC163
:100AC800BDF0ABC1BEF0000187EC0BF0010120EED8
:100AD80035F00101A251D9260101A351DA22010101
:100AE80010EE35F00101A251E1260101A351E222E5
:100AF800E7500001C36F0001C329030BDF6E01013A
:100B080020EE02F00101AC51D9260101AD51DA22E3
:100B1800A5C1E1FFA6C1E2FFDFCFE7FFACC1D9FF66
:100B2800ADC1DAFF000EDF6E01010101AA5105D047
:100B380004D003D0FC0E01D000D01200000120EE3A
:100B480035F000018051D92600018151DA22DF50A9
:100B580000010001876F0001000187510D0DF3505E
:100B6800000100018025000100018A6FF450000196
:100B78000001812100018B6F010E8AC0D9FF8BC053
:100B8800DAFFDF6201D001D06ED0000120EE01F063
:100B980000018A51D92600018B51DA22DF50000169
:100BA8000001826101D001D003D0FD0E5FD05ED07C
:100BB800000120EE01F000018A51D92600018B5175
:100BC800DA22DF503E6E3E5000010001886F0001BE
:100BD800896B85C034F086C035F0030E0001000132
:100BE8008A253E6E000E000100018B213F6E3EC03B
:100BF80036F03FC037F088C038F089C039F022ECB1
:100C08000CF0000120EE35F000018051D9260001DA
:100C18008151DA22000110EE35F000018051E12601
:100C280000018151E222E7503E6E3E28030BDF6E41
:100C3800000120EE02F000018A51D92600018B51F3
:100C4800DA2283C0E1FF84C0E2FFDFCFE7FF8AC07A
:100C5800D9FF8BC0DAFF000EDF6E0001000188515A
:100C680005D004D003D0FC0E01D000D01200010141
:100C78000101A4C1A8F101010101A96B010120EE44
:100C880034F00101A251D9260101A351DA22DF5023
:100C980001010101AA6F01010101AA510D0DF350D3
:100CA80001010101A22501010101AB6FF45001010D
:100CB8000101A3210101AC6FABC1D9FFACC1DAFFBF
:100CC800DF50D8B401D001D003D0FF0E52D051D09C
:100CD800010120EE01F00101AB51D9260101AC510F
:100CE800DA220101A4C1DFFF010120EE02F00101B7
:100CF800AB51D9260101AC51DA220101A5C1DFFFB0
:100D0800030E01010101AB2500010001B96F000EBE
:100D180001010101AC210001BA6FA6C1BBF0A7C156
:100D2800BCF0A8C1BDF0A9C1BEF0000187EC0BF072
:100D3800010120EE34F00101A251D9260101A3518D
:100D4800DA22010110EE34F00101A251E12601017D
:100D5800A351E222E7500001C36F0001C329030B2E
:100D6800DF6EABC1D9FFACC1DAFF010EDF6E010E39
:100D780000D012000001000182C086F000010001CD
:100D8800876B000120EE34F000018051D926000164
:100D98008151DA22DF5000010001886F0001000153
:100DA80088510D0DF350000100018025000100015C
:100DB800896FF45000010001812100018A6F89C008
:100DC800D9FF8AC0DAFFDF50D8B401D001D003D0F0
:100DD800FF0E4CD04BD0000120EE01F000018951EC
:100DE800D92600018A51DA22000182C0DFFF000102
:100DF80020EE02F000018951D92600018A51DA2239
:100E0800000183C0DFFF030E000100018925346E55
:100E1800000E000100018A21356E84C036F085C0BD
:100E280037F086C038F087C039F022EC0CF00001AA
:100E380020EE34F000018051D92600018151DA22D8
:100E4800000110EE34F000018051E12600018151CB
:100E5800E222E7503E6E3E28030BDF6E89C0D9FFC1
:100E68008AC0DAFF010EDF6E010E00D01200000109
:100E78005BEC0BF000010001BE510001BD11D8A4CC
:100E880001D001D002D05CD05BD08A860001BF6F50
:100E9800010E456E0001BF5100D00101010E000195
:100EA8000001BA6F0101360E0001B96F0001C6ECEE
:100EB8000CF00009D8B401D001D009D00001BF6FEF
:100EC800000E456E0001BF518A963AD039D0010113
:100ED800010E00010001BA6F01016C0E0001B96F2B
:100EE8000001C6EC0CF00009D8B401D001D009D03B
:100EF8000001BF6F000E456E0001BF518A9620D0D9
:100F08001FD00001BF6F0A0E00010001B96F000178
:100F1800BF51000110EC0EF08AA601D002D0010EDC
:100F280001D0000E0001BF6F0001BF47BF47BF4798
:100F38008A500001BF19F70BBF198A6EAED7ADD71B
:100F4800120020EE19F04850D9264950DA22000E36
:100F5800DF6E2ED020EE19F04850D9264950DA22FB
:100F6800DF50376E3750010DF3503524D96EF450E9
:100F78003620DA6E10EE19F04850E1264950E22288
:100F8800E750386E3850010D0F0EF326000EF4228C
:100F9800F3504824E16EF4504920E26EDFCFE7FFBA
:100FA80020EE19F04850D9264950DA22DF2A00D01D
:100FB80020EE19F04850D9264950DA22DF50376E12
:100FC8003450375CD8A001D001D0C4D700D020EE6F
:100FD80019F04850D9264950DA2234C0DFFF20EEF4
:100FE8001AF04850D9264950DA22010EDF6E20EE59
:100FF8000FF04850D9264950DA22DF50C96EC6880A
:1010080012009EAA01D001D041D020EE04F04A502F
:10101800D9264B50DA22DF501B6E1B50010DF350BE
:101028004A24D96EF4504B20DA6EE2EC0CF0DF6EF5
:1010380020EE04F04A50D9264B50DA22DF2A20EE5F
:1010480004F04A50D9264B50DA22040EDF6201D050
:1010580001D01CD020EE04F04A50D9264B50DA2299
:10106800DF50176E1B6E1F0E186E1B504AC019F00A
:101078004BC01AF0D9EC0DF020EE04F04A50D926F6
:101088004B50DA22000EDF6E01D000D046A601D008
:1010980001D011D0AB98AB881B6E000E176E1B5099
:1010A8001C6E1E0E186E1C50000E1A6E000E196E65
:1010B800D9EC0DF000D01200000EAC6E000EAB6E35
:1010C80000010001B9A101D001D001D0AC88000114
:1010D8000001B9A301D001D002D0AC8CAB8C0001C7
:1010E8000001B9A501D001D001D0AC8E00010001EA
:1010F800B9A701D001D002D0AB8801D0AB8A0001DA
:101108000001B9A901D001D001D0AC849E9800019A
:101118000001B9AB01D001D001D0AB8600010001BC
:10112800B9AD01D001D002D09D8A01D09D9A9E9A76
:1011380000010001B9AF01D001D002D09D8801D0D3
:101148009D98BAC0AFFF00010001BB51B06EAC8AD8
:10115800AB8E949C948EACA801D001D006D0ACBEC6
:1011680001D001D002D0948C00D012000DC012F032
:10117800136A20EE34F00B50D9260C50DA22DF50D7
:10118800146E14500D0DF3500B24156EF4500C20F2
:10119800166E15C0D9FF16C0DAFFDF50D8B401D0DB
:1011A80001D003D0FF0E3AD039D020EE01F015500F
:1011B800D9261650DA220DC0DFFF20EE02F01550B6
:1011C800D9261650DA220EC0DFFF030E1524016E51
:1011D800000E1620026E0FC003F010C004F012C0FB
:1011E80005F013C006F0FEEC0BF020EE34F00B50C7
:1011F800D9260C50DA2210EE34F00B50E1260C50B0
:10120800E222E750116E1128030BDF6E15C0D9FFDB
:1012180016C0DAFF010EDF6E010E00D012008AA0A0
:1012280001D002D0010E01D0000E406E8A50401845
:10123800FE0B40188A6E000E356E000E346E2CECD4
:101248000EF0406E020E000100018C6F405000014C
:10125800000E000100018E6F0001910E00018D6FDC
:101268000001000E00010001906F0001950E0001C1
:101278008F6F000146EC0DF000010001936F000133
:10128800946B000193BF9407000100019351020A77
:101298009411D8A401D001D019D0406E020E0001DB
:1012A80000018B6F4050416E0A0E000100018C6FE7
:1012B80041500001000E000100018E6F0001950EE3
:1012C80000018D6F00018BEC0DF000D0120020EEB4
:1012D8000BF04850D9264950DA22010EDF6E20EE75
:1012E8000AF04850D9264950DA22000EDF6E3450F1
:1012F800D8B401D001D034D0C7AA01D001D018D0B9
:1013080020EE0CF04850D9264950DA22050EDF6E3F
:1013180020EE0EF04850D9264950DA22DF2A20EE76
:101328000DF04850D9264950DA22050EDF6E21D03B
:10133800C7A401D001D009D020EE0CF04850D9261E
:101348004950DA22080EDF6E14D020EE0CF0485017
:10135800D9264950DA22070EDF6E0BD00AD009D001
:1013680020EE0CF04850D9264950DA22060EDF6EDE
:1013780000D01200EACFAEF0E1CFAFF0E2CFB0F08C
:10138800D9CFB1F0DACFB2F0F3CFB3F0F4CFB4F0F5
:10139800F6CFB5F0F7CFB6F0F8CFB7F0F5CFB8F095
:1013A8009EA601D001D004D09E966BEC00F000D030
:1013B800F2A401D001D004D0F29413EC09F000D0CB
:1013C80088EC0AF0B8C0F5FFB7C0F8FFB6C0F7FF61
:1013D800B5C0F6FFB4C0F4FFB3C0F3FFB2C0DAFF84
:1013E800B1C0D9FFB0C0E2FFAFC0E1FFAEC0EAFFB5
:1013F800ADC0E9FFACC0FBFFABC0FAFF11000001B4
:1014080020EE34F00001B951D9260001BA51DA2290
:10141800000EDF6E000120EE35F00001B951D9262B
:101428000001BA51DA22000EDF6E0001BB6F000E18
:1014380000010001BC6F0001BB51030E0001000157
:10144800BC6501D001D002D01CD01BD00001000126
:10145800BC510D0DF35000010001B925D96EF450AF
:1014680000010001BA21DA6E000EDF6E00010001F2
:10147800BC2B030E00010001BC6501D001D0E6D7EA
:1014880000D01200000EC26E000EC06E00010001F6
:10149800D890BA313C0BC26EBAC0BCF00001BC3B5C
:1014A800F00EBC17300E0001BC1700010001BB5143
:1014B8000F0B0001BC11C16EB9C0BCF00001D8907F
:1014C800BC370001D890BC37380E0001BC17B9C032
:1014D800BDF00001BD3B0F0EBD17070E0001BD1783
:1014E80000010001B951800B0001BD110001BC11C0
:1014F800C06E00010001BAAF01D001D003D09E9C9C
:101508009D8CF28CC2801200456601D001D002D0B9
:1015180035D034D046EC0CF037503610D8B401D062
:1015280001D002D02BD02AD035EC0EF03550341033
:10153800D8A401D001D002D021D020D00101010EC1
:10154800356E0101360E346EB4EC0DF00009D8B4D6
:1015580001D001D002D012D011D00101010E356E98
:1015680001016C0E346EB4EC0DF00009D8B401D052
:1015780001D002D003D002D04BEC0EF012000001D3
:10158800BD6F000E456E0001BD510101010E000145
:101598000001BA6F01016C0E0001B96F000103EC84
:1015A8000AF00101010E00010001BA6F0101360EB7
:1015B8000001B96F000103EC0AF00101010E0001FE
:1015C8000001BA6F0101000E0001B96F000103ECC0
:1015D8000AF00201020E00010001BA6F0201000EBA
:1015E8000001B96F000103EC0AF012000001C06F9E
:1015F800910E00010001B96F0001C0510001C16FD7
:10160800040E00010001BA6F0001C1510001C26F50
:101618000B0E00010001BB6F0001C251000146EC36
:101628000AF00001C06F870E00010001B96F0001C8
:10163800C0510001EBEC0DF09E9CF28C9D8CBEC05D
:10164800D9FFBFC0DAFF000EDE6E000EDD6E12009D
:10165800F2AC01D001D00AD0000E00010001BC6F2D
:10166800000E0001BB6F22D021D020D0000106EC73
:101678000EF000010001BA510001B911D8B401D02F
:1016880001D00AD0000E00010001BC6F000E00015D
:10169800BB6F0CD00BD00AD0000E00010001BC6F4C
:1016A800010E0001BB6F02D001D000D01200000172
:1016B8002CEC0BF000010001BC510001BB11D8A4B7
:1016C80001D001D016D0000106EC0EF00001000197
:1016D800BA510001B911D8A401D001D00AD0000E26
:1016E80000010001BE6F010E0001BD6F0BD00AD0D2
:1016F80009D0000E00010001BE6F000E0001BD6F91
:1017080001D000D01200BBC0C1F0BCC0C2F0B9C04B
:10171800BFF0BAC0C0F013D0C1C0D9FFC2C0DAFF51
:10172800BFC0E1FFC0C0E2FFDFCFE7FF000100015B
:10173800C14BC22B00010001BF4BC02B00D00001E0
:101748000001BD07D8A0BE070001BD29D8B4BE2935
:10175800D8A401D001D0E0D700D0120000010001C8
:10176800BB511E0ABC11D8A401D001D002D01CD094
:101778001BD000010001BB511F0ABC11D8A401D025
:1017880001D012D000010001BD5100010001BF25A8
:10179800D96E00010001BE5100010001C021DA6EBE
:1017A800000EDF6E01D000D01200B9C048F0BAC0F8
:1017B80049F020EE0AF04850D9264950DA22000EA6
:1017C800DF6E20EE0BF04850D9264950DA22000E81
:1017D800DF6E20EE0CF04850D9264950DA22050E6B
:1017E800DF6E20EE0EF04850D9264950DA22000E5E
:1017F800DF6E120003C009F004C00AF001C007F050
:1018080002C008F00FD009C0D9FF0AC0DAFF07C02C
:10181800E1FF08C0E2FFDFCFE7FF094A0A2A074ACB
:10182800082A00D00506D8A006060528D8B4062838
:10183800D8A401D001D0E7D700D0120036C03CF0C0
:1018480037C03DF034C03AF035C03BF00FD03CC053
:10185800D9FF3DC0DAFF3AC0E1FF3BC0E2FFDFCF6E
:10186800E7FF3C4A3D2A3A4A3B2A00D03806D8A02E
:1018780039063828D8B43928D8A401D001D0E7D7F8
:1018880000D01200F2AC01D001D007D0000E376EA4
:10189800000E366E18D017D016D035EC0EF0355035
:1018A8003410D8B401D001D007D0000E376E000E26
:1018B800366E09D008D007D0000E376E010E366E8E
:1018C80002D001D000D012003CEC0EF001C021F093
:1018D80002C022F021C01FF02250206E1B6E100E95
:1018E8001D6E1B5047C01EF0472A1B6E040E176E54
:1018F8001B501C6E280E186E1C50000E1A6E1D0E02
:10190800196ED9EC0DF0120000010001B9517E0BDF
:10191800CD6E00010001B9AD01D001D002D0CD8E4D
:1019280002D0CD9E00D0000ECF6E000ECE6E9E90DF
:1019380000010001B9AF01D001D002D09D8001D0D3
:101948009D90CD8012001AEC0EF001C01FF002C06D
:1019580020F01B6E020E176E1B501C6E0B0E186EBD
:101968001C50000E1A6E1F0E196ED9EC0DF0000EE9
:101978001E6E010E1D6E1DC001F01EC002F023EC8C
:101988000EF01200000120EE35F00001B951D92601
:101998000001BA51DA22DF500001BB6F0001BB51D0
:1019A8000D0DF35000010001B925D96EF450000166
:1019B8000001BA21DA6EDF5000D01200F20E46168E
:1019C800ABAC01D001D007D04690ABA001D001D07C
:1019D80002D0468000D0ABA401D001D001D046840B
:1019E800ABA201D001D001D04686AECF01F00150A4
:1019F80000D012000101010E01010101A36F0101D4
:101A0800360E0101A26FAEC1A4F1AFC1A5F1B0C1FC
:101A1800A6F1B1C1A7F1B2C1A8F1010102EC05F02C
:101A280000D012000101010E01010101A36F0101A3
:101A38006C0E0101A26FAEC1A4F1AFC1A5F1B0C196
:101A4800A6F1B1C1A7F1B2C1A8F1010102EC05F0FC
:101A580000D012000101010E00010001816F010197
:101A6800000E0001806F8CC082F08DC083F08EC0A4
:101A780084F08FC085F090C086F00001A2EC05F0DC
:101A880000D012000201020E00010001816F020164
:101A9800000E0001806F8CC082F08DC083F08EC074
:101AA80084F08FC085F090C086F00001A2EC05F0AC
:101AB80000D0120002EE00F0360EEE6AE806FDE1F4
:101AC80001EE00F0A20EEE6AE806FDE10001C66B29
:101AD800476A466A456A446A436A426A000185EF72
:101AE80003F00101010E01010101A36F0101000EC4
:101AF8000101A26FADC1A4F1AEC1A5F1AFC1A6F1BC
:101B0800B0C1A7F101013BEC06F000D012000101C1
:101B1800010E00010001816F0101360E0001806F86
:101B28008BC082F08CC083F08DC084F08EC085F0AD
:101B38000001BEEC06F000D01200BFC0D9FFC0C043
:101B4800DAFFDF500001C16FC26BB9C0D9FFBAC05C
:101B5800DAFFC1C0DEFFC2C0DDFF4EEC0EF012009E
:101B680020EE35F03450D9263550DA22DF50366E63
:101B780036500D0DF3503424D96EF4503520DA6EFA
:101B8800DF5000D0120094869488B9C0C8FF000EB8
:101B9800C76E000EC66E000EC56E0E0EC612C78E3C
:101BA80094869488C580C68A12000101010E0C6EC5
:101BB80001016C0E0B6E17C00DF018C00EF019C0A5
:101BC8000FF01AC010F0BAEC08F000D01200C2CF23
:101BD800BAF0C30E0001BA1700010001D890B9315C
:101BE8003C0B0001BA11C26E1200B9C04AF0BAC06B
:101BF8004BF020EE04F04A50D9264B50DA22000E62
:101C0800DF6E1200000EF2AE010E00010001B96F86
:101C18000001BA6B00D01200FA0E00F0E82EFDD7D2
:101C280000010001B92FF8D700D01200CECF03F081
:101C3800CFCF04F003C001F004C002F0120001C0CD
:101C480003F002C004F004C0CFFF03C0CEFF1200AF
:101C580034C036F035C037F037C0D7FF36C0D6FFAE
:101C68001200000EF2AE010E346E356A00D012007A
:101C7800C450026EC350016E00D01200BFC0C1F044
:101C8800C0C0C2F01200D08EF28EF28C1200D38E39
:081C980003001200C2821200D9
:067FF80080F4C5FFFFF15B
:00000001FF
