:0400000069EF00F0B4
:10000800FACF95F0FBCF96F0E9CF97F0EFED0FF030
:10001800D8CF23F0E8CF24F0E0CF25F0FACF26F0B0
:10002800FBCF27F0E9CF28F0EACF29F0E1CF2AF07B
:10003800E2CF2BF0D9CF2CF0DACF2DF0F3CF2EF082
:10004800F4CF2FF0F6CF30F0F7CF31F0F8CF32F011
:10005800F5CF33F09EA001D001D004D09E9099EC4A
:1000680012F000D09EAC01D001D004D09E9C5AEC76
:1000780012F000D09EAA01D001D004D09E9A46EC7E
:100088000EF000D033C0F5FF32C0F8FF31C0F7FFE3
:1000980030C0F6FF2FC0F4FF2EC0F3FF2DC0DAFFEB
:1000A8002CC0D9FF2BC0E2FF2AC0E1FF29C0EAFF1C
:1000B80028C0E9FF27C0FBFF26C0FAFF25C0E0FFE4
:1000C80024C0E8FF23C0D8FF1000AEEF13F00001F2
:1000D8007D6F000E00010001946F00017D51000149
:1000E8007D6F000E000100018C6F00017D51000141
:1000F8007D6F000E00010001936F00017D5100012A
:100108007D6F000E00010001926F00017D5100011A
:100118007D6F000E000100018D6F00017D51C6AC9E
:1001280001D001D02AD0C69C000120EE0DF00001BC
:10013800DB51D9260001DC51DA22050EDF6E000101
:100148007D6F010E000100018D6F00017D510001DE
:1001580020EE0FF00001DB51D9260001DC51DA2234
:10016800DF2A000120EE0EF00001DB51D926000144
:10017800DC51DA22040EDF6E00D0C7A001D001D016
:100188000BD0C9CF90F000017D6F010E0001000176
:10019800946F00017D5100D0000100018D6701D0EE
:1001A80001D051D239D238D2C7A601D001D04BD212
:1001B80094C060F00001D9EC0DF0000120EE0DF0C4
:1001C8000001DB51D9260001DC51DA22080EDF627A
:1001D80001D001D038D200017D6F000E000100016E
:1001E800946F00017D5100017D6F010E0001000137
:1001F800926F00017D5127D226D225D2C7A801D0FF
:1002080001D040D0000120EE0CF00001DB51D926CE
:100218000001DC51DA22DF2A000100019451D8B430
:1002280001D001D023D0C7BA01D001D009D0000134
:100238007D6F010E00010001936F00017D5116D002
:10024800000120EE0FF00001DB51D9260001DC513E
:10025800DA22DF2A000120EE0EF00001DB51D92658
:100268000001DC51DA22060EDF6E00D0000120EE1C
:100278000DF00001DB51D9260001DC51DA22050E10
:10028800DF6EE1D1000100019451D8B401D001D052
:10029800DAD1000120EE0CF00001DB51D926000173
:1002A800DC51DA22DF2AC7BA01D001D02DD0C7B479
:1002B80001D001D00CD0000120EE0DF00001DB517F
:1002C800D9260001DC51DA22070EDF6EBCD100010D
:1002D80020EE0DF00001DB51D9260001DC51DA22B5
:1002E800080EDF6E00017D6F010E00010001926FA4
:1002F80000017D5100017D6F000E00010001946F27
:1003080000017D51A0D19FD1000120EE0FF0000126
:10031800DB51D9260001DC51DA22DF2A000120EE68
:100328000DF00001DB51D9260001DC51DA22050E5F
:10033800DF6E000120EE0EF00001DB51D92600012E
:10034800DC51DA22060EDF6E7ED17DD17CD17BD1E5
:10035800000120EE1BF00001DB51D9260001DC5121
:10036800DA22DF5000017D6F000120EE1AF0000153
:10037800DB51D9260001DC51DA22DF5000017D5D16
:10038800D8B001D001D032D0000120EE1BF000011E
:10039800DB51D9260001DC51DA22DF5000017D6FE4
:1003A80000017D51010D100EF326000EF422F350CA
:1003B80000010001DB25D96EF45000010001DC21A9
:1003C800DA6EDF50C96E000120EE1BF00001DB5130
:1003D800D9260001DC51DA22DF2A00017D6F010EE7
:1003E800000100018C6F00017D512DD1000120EE2C
:1003F8000DF00001DB51D9260001DC51DA22050E8F
:10040800DF6E21D120D1C7A801D001D07BD0000157
:1004180020EE0CF00001DB51D9260001DC51DA2274
:10042800DF2A000100019451D8B401D001D055D081
:10043800C7AA01D001D02FD0000120EE0AF0000198
:10044800DB51D9260001DC51DA22DF5000017D6F33
:1004580000017D51010DF35000010001DB25D96E2B
:10046800F45000010001DC21DA6E000190C0DFFFCA
:10047800000120EE0AF00001DB51D9260001DC5111
:10048800DA22DF2A00017D6F010E00010001936F5F
:1004980000017D512BD0000120EE0FF00001DB514F
:1004A800D9260001DC51DA22DF2A000120EE0EF005
:1004B8000001DB51D9260001DC51DA22060EDF6E7D
:1004C800000120EE0DF00001DB51D9260001DC51BE
:1004D800DA22050EDF6E0AD009D000017D6F010E09
:1004E80000010001936F00017D5100D0000120EE52
:1004F8000DF00001DB51D9260001DC51DA22050E8E
:10050800DF6EA1D0000100019451D8B401D001D010
:100518009AD0000120EE0CF00001DB51D926000131
:10052800DC51DA22DF2AC7AA01D001D027D0000186
:1005380020EE0AF00001DB51D9260001DC51DA2255
:10054800DF5000017D6F00017D51010DF350000166
:100558000001DB25D96EF45000010001DC21DA6EC0
:10056800000190C0DFFF000120EE0AF00001DB511E
:10057800D9260001DC51DA22DF2A65D0C7A401D0D0
:1005880001D024D0000120EE0DF00001DB51D92666
:100598000001DC51DA22080EDF6E00017D6F010ECA
:1005A80000010001936F00017D5100017D6F010E74
:1005B80000010001926F00017D5100017D6F000E66
:1005C80000010001946F00017D513DD0000120EE33
:1005D8000FF00001DB51D9260001DC51DA22DF2AB5
:1005E800000120EE0EF00001DB51D9260001DC519C
:1005F800DA22060EDF6E000120EE0DF00001DB515D
:10060800D9260001DC51DA22050EDF6E1CD01BD082
:100618001AD019D018D017D0000120EE0DF0000123
:10062800DB51D9260001DC51DA22DF50050AD8B4A3
:10063800BBD5030AD8B4E2D5010AD8B4E4D60F0A68
:10064800D8B486D600D000010001946701D001D04B
:1006580007D0000100018C51D8B401D001D007D0D7
:10066800C6B801D001D003D0C68801D000D000019F
:1006780020EE0AF00001DB51D9260001DC51DA2214
:10068800080EDF6401D001D027D000010001936774
:1006980001D001D021D0000120EE0DF00001DB5186
:1006A800D9260001DC51DA22050EDF6E000120EEAA
:1006B8000FF00001DB51D9260001DC51DA22DF2AD4
:1006C800000120EE0EF00001DB51D9260001DC51BB
:1006D800DA22070EDF6E00D0000100019351D8B472
:1006E80001D001D002D05FD05ED0000120EE0FF023
:1006F8000001DB51D9260001DC51DA22DF50D8B4E1
:1007080001D001D050D0000120EE0FF00001DB51E4
:10071800D9260001DC51DA22DF5000010001896F7F
:10072800000120EE0EF00001DB51D9260001DC515A
:10073800DA22DF50000100018A6F000120EE0CF080
:100748000001DB51D9260001DC51DA22DF5000011B
:1007580000018B6F00017D6F030E00010001766FB1
:1007680000017D5100017E6F290E00010001776FA5
:1007780000017E510001000E00010001796F0001A7
:10078800890E0001786F000198EC13F0000120EE4B
:100798000FF00001DB51D9260001DC51DA22000EEE
:1007A800DF6E01D000D0000100019251D8B401D011
:1007B80001D04AD000017D6F0A0E00010001786F58
:1007C80000017D510001000E000100017A6F000157
:1007D800910E0001796F0001000E000100017C6F8D
:1007E80000017F0E00017B6F000154EC13F0000143
:1007F80000018E6F00018F6B00018EBF8F07000113
:1008080000018F51800A800F010ED8B48E5DD8A0E8
:1008180001D001D010D08EC060F00001000E0001A0
:100828000001626F00017F0E0001616F000165EC3D
:100838000BF001D000D000017D6F000E0001000117
:10084800926F00017D5100D01200EED2000120EE1F
:100858000DF00001DB51D9260001DC51DA22090E26
:10086800DF6E000120EE1CF00001DB51D9260001EB
:10087800DC51DA22DF50FE0BC96EFCD2C5BC01D0B8
:1008880001D079D0000120EE1BF00001DB51D92600
:100898000001DC51DA22DF5000017A6F000120EEFE
:1008A8001AF00001DB51D9260001DC51DA22DF50B1
:1008B80000017A5DD8B001D001D02AD0000120EE25
:1008C8001BF00001DB51D9260001DC51DA22DF5090
:1008D80000017A6F00017A51010D100EF326000E07
:1008E800F422F35000010001DB25D96EF450000119
:1008F8000001DC21DA6EDF50C96E000120EE1BF02A
:100908000001DB51D9260001DC51DA22DF2AB2D2FC
:1009180000017A6F000E00010001766F00017A5124
:1009280000017B6F2B0E00010001776F00017B51E6
:10093800000E00010001796F000E0001786F0001C0
:1009480098EC13F0000120EE1AF00001DB51D926D3
:100958000001DC51DA22000EDF6E000120EE0DF0FE
:100968000001DB51D9260001DC51DA22050EDF6EC9
:10097800C58480D27FD200017A6F000E0001000189
:10098800766F00017A5100017B6F2C0E0001000187
:10099800776F00017B51000E00010001796F000E96
:1009A8000001786F000198EC13F0000120EE0FF0C1
:1009B8000001DB51D9260001DC51DA22DF2A0001CF
:1009C80020EE0EF00001DB51D9260001DC51DA22BD
:1009D800090EDF6E000120EE0DF00001DB51D92673
:1009E8000001DC51DA22050EDF6EC58443D242D203
:1009F800C5BC01D001D018D0000120EE0DF00001D7
:100A0800DB51D9260001DC51DA22140EDF6E000119
:100A180020EE1CF00001DB51D9260001DC51DA225E
:100A2800DF50FE0BC96E26D200017A6F000E00015E
:100A38000001766F00017A5100017B6F2E0E0001D4
:100A48000001776F00017B51000E00010001796FF2
:100A5800000E0001786F000198EC13F0000120EE01
:100A68000FF00001DB51D9260001DC51DA22DF2A20
:100A7800000120EE0EF00001DB51D9260001DC5107
:100A8800DA22090EDF6E000120EE0DF00001DB51C5
:100A9800D9260001DC51DA22050EDF6EC584EAD1C1
:100AA800E9D1C5BC01D001D022D0000120EE0DF063
:100AB8000001DB51D9260001DC51DA22150EDF6E68
:100AC800000120EE1AF00001DB51D9260001DC51AB
:100AD800DA22000EDF6E000120EE10F00001DB517B
:100AE800D9260001DC51DA22DF50C96EC3D10001DA
:100AF8007A6F000E00010001766F00017A51000143
:100B08007B6F2E0E00010001776F00017B51000EF4
:100B180000010001796F000E0001786F000198EC68
:100B280013F0000120EE0FF00001DB51D92600017F
:100B3800DC51DA22DF2A000120EE0EF00001DB5141
:100B4800D9260001DC51DA22090EDF6E000120EE01
:100B58000DF00001DB51D9260001DC51DA22050E27
:100B6800DF6EC58487D186D1C5BC01D001D00DD038
:100B7800000120EE0DF00001DB51D9260001DC5107
:100B8800DA22160EDF6EC58275D100017A6F000E6B
:100B980000010001766F00017A5100017B6F2E0E73
:100BA80000010001776F00017B51000E0001000178
:100BB800796F000E0001786F000198EC13F00001C6
:100BC80020EE0FF00001DB51D9260001DC51DA22BA
:100BD800DF2A000120EE0EF00001DB51D9260001CA
:100BE800DC51DA22090EDF6E000120EE0DF0000163
:100BF800DB51D9260001DC51DA22050EDF6EC584EF
:100C080039D138D1000120EE0DF00001DB51D92691
:100C18000001DC51DA22170EDF6E000120EE1CF015
:100C28000001DB51D9260001DC51DA22DF5001092D
:100C3800C96E20D1C5BC01D001D00DD0000120EE75
:100C48000DF00001DB51D9260001DC51DA22180E23
:100C5800DF6EC5860FD100017A6F000E000100011A
:100C6800766F00017A5100017B6F2E0E00010001A2
:100C7800776F00017B51000E00010001796F000EB3
:100C88000001786F000198EC13F0000120EE0FF0DE
:100C98000001DB51D9260001DC51DA22DF2A0001EC
:100CA80020EE0EF00001DB51D9260001DC51DA22DA
:100CB800090EDF6E000120EE0DF00001DB51D92690
:100CC8000001DC51DA22050EDF6EC584D3D0D2D004
:100CD800C7A001D001D0CED0000120EE0DF0000158
:100CE800DB51D9260001DC51DA22190EDF6E000132
:100CF80020EE0BF00001DB51D9260001DC51DA228D
:100D0800DF5000017A6F00017A51010DF3500001A4
:100D18000001DB25D96EF45000010001DC21DA6EF8
:100D2800C9CFDFFF000120EE0BF00001DB51D9260F
:100D38000001DC51DA22DF2A000120EE0BF000016D
:100D4800DB51D9260001DC51DA22DF5000017A6F2D
:100D5800000120EE0AF00001DB51D9260001DC5128
:100D6800DA22DF5000017A5DD8B001D001D003D07B
:100D7800C59AC5887FD0C58AC5887CD07BD07AD0F3
:100D8800000120EE0BF00001DB51D9260001DC51F7
:100D9800DA22DF5000017A6F000120EE0AF000012C
:100DA800DB51D9260001DC51DA22DF5000017A5DDF
:100DB800D8B001D001D00DD0000120EE0DF0000117
:100DC800DB51D9260001DC51DA22180EDF6EC58608
:100DD80051D0000120EE0AF00001DB51D9260001B4
:100DE800DC51DA22DF5000010001766F00017A6FD2
:100DF8002D0E00010001776F00017A51DBC078F0F9
:100E0800DCC079F0000198EC13F0000120EE0DF041
:100E18000001DB51D9260001DC51DA22050EDF6E14
:100E2800C58428D027D026D0000120EE0DF000017F
:100E3800DB51D9260001DC51DA22DF50090AD8B487
:100E48001DD5180AD8B402D5030AD8B4D1D5060AD4
:100E5800D8B427D6010AD8B487D6030AD8B4D2D6CC
:100E6800010AD8B4E7D60F0AD8B432D7010AD8B4E1
:100E780087D700D01200FC0ED36E9B8C0201020EA5
:100E880001010101A46F0201120E0101A36F01010A
:100E98000DEC14F00201020E01010101A46F020120
:100EA800190E0101A36F0101B1EC10F00201020E4D
:100EB80001010101A46F0201100E0101A36F0101DC
:100EC80038EC14F00201020E01010101A46F0201C5
:100ED8000E0E0101A36F0101FDEC13F078EC10F088
:100EE800000E936E000E8A6E000E806E000E896EE4
:100EF8000F0EC16E0F0E926E0101CB6FF50E010140
:100F08000101A36F0101CB5101017AEC12F001013B
:100F1800CB6F920E01010101A36F0101CB510101B9
:100F2800C3EC13F06BEC14F09F909F9C9F9A9F86E4
:100F38009D860101CB6F6C0E01010101A36F0101B8
:100F4800CB51000E01010101A56F190E0101A46F1B
:100F58000101A1EC0EF000D069EC0DF00101CB6F9E
:100F68000A0E01010101BB6F0101CB510201020E02
:100F780001010101BD6F0201180E0101BC6F0201E0
:100F8800020E01010101BF6F0201010E0101BE6FD6
:100F980001010CEC13F002010201176F02010201BA
:100FA80017AF01D001D05CD075D074D073D058D0B1
:100FB80071D070D00201020E01010101A76F020178
:100FC8000C0E0101A66F0201010118C2A8F101016E
:100FD8000101A96B02010201175101010101AA6F68
:100FE8000101AB6B0101AABFAB070201020E0101AF
:100FF8000101AD6F0201010E0101AC6F01013AEC74
:1010080012F048D00201020E01010101BE6F020177
:101018000E0E0101BD6F0201010118C2BFF10101ED
:101028000101C06B02010201175101010101C16FE9
:101038000101C26B0101C1BFC2070201020E010119
:101048000101C46F0201010E0101C36F0101D9EC56
:1010580008F020D001C200F21DD01CD01BD01AD03D
:101068000201020118510A0AD8B4CCD7220AD8B40E
:10107800F1D7010AD8B4EED7030AD8B40BD0010AC5
:10108800D8B408D0070AD8B405D0010AD8B492D782
:1010980001D000D00101CB6F0A0E01010101BB6F25
:1010A8000101CB510201020E01010101BD6F0201D4
:1010B800180E0101BC6F0201020E01010101BF6F90
:1010C8000201010E0101BE6F010124EC13F00201BF
:1010D8000201176F0201020117AF01D001D050D0F1
:1010E8003BD73AD739D74CD00201020E0101010192
:1010F800C16F0201100E0101C06F0201010118C287
:10110800C2F101010101C36B020102011751010182
:101118000101C46F0101C56B0101C4BFC50702010C
:10112800020E01010101C76F0201010E0101C66F24
:101138000101F4EC0CF010D717C2B9F118C2BAF1DA
:101148000201020E01010101BC6F0201010E010141
:10115800BB6F01016CEC13F000D017C2B9F118C2D3
:10116800BAF10201020E01010101BC6F0201010E78
:101178000101BB6F01016CEC13F0EED6EDD6ECD695
:101188000201020118510B0AD8B4AED7150AD8B417
:10119800E4D7010AD8B4E1D7370AD8B4CDD7DCD61A
:1011A800DBD6DAD6D9D669EF00F0A1D00101C56F38
:1011B8009A0E01010101A36F0101C5510101F2EC71
:1011C80011F001010101002B0101C56F100E010191
:1011D8000101C76F0101C55100C1C8F10101C56F07
:1011E800000E01010101C96F0101C5510101C56F5F
:1011F800000E01010101CA6F0101C5510101C56F4E
:10120800040E01010101B96F0101C5510101C66F49
:101218002D0E01010101BA6F0101C6510101010E34
:1012280001010101BC6F0101C70E0101BB6F010182
:1012380082EC13F0000E01010101CD6F020E0101D5
:10124800CC6F6DD00101C56F9C0E01010101A36F28
:101258000101C5510101F2EC11F00101C56F000E49
:1012680001010101B96F0101C5510101C66F2A0EC3
:1012780001010101BA6F0101C651C3C1BBF1C4C16B
:10128800BCF101016CEC13F0000E01010101CD6FFE
:10129800030E0101CC6F43D00101C56F9E0E010101
:1012A8000101A36F0101C5510101F2EC11F0010127
:1012B800C56F000E01010101B96F0101C55101019E
:1012C800C66F2A0E01010101BA6F0101C651C3C1DF
:1012D800BBF1C4C1BCF101016CEC13F0000E0101BB
:1012E8000101CD6F010E0101CC6F19D018D0010199
:1012F800CCC1C5F10101CDC1C6F10101C651000A39
:10130800D8B401D00CD00101C551010AD8B44ED7C8
:10131800030AD8B497D7010AD8B4BED700D01200B0
:10132800010120EE35F00101AD51D9260101AE5180
:10133800DA22DF5001010101B66F01010101B65146
:101348000D0DF35001010101AD2501010101B96F36
:10135800F45001010101AE210101BA6F010EB9C1BA
:10136800D9FFBAC1DAFFDF6201D001D075D001011F
:1013780020EE01F00101B951D9260101BA51DA2252
:10138800DF5001010101AF6101D001D003D0FD0E92
:1013980066D065D0010120EE01F00101B951D926CE
:1013A8000101BA51DA22DF500101B46F0101B451D1
:1013B80001010101B76F0101B86BB2C1A3F1B3C15B
:1013C800A4F1030E01010101B9250101B46F000E5A
:1013D80001010101BA210101B56FB4C1A5F1B5C17F
:1013E800A6F1B7C1A7F1B8C1A8F101019CEC11F0B1
:1013F800010120EE35F00101AD51D9260101AE51B0
:10140800DA22010110EE35F00101AD51E1260101AA
:10141800AE51E222E7500101B46F0101B429030B78
:10142800DF6E010120EE02F00101B951D926010158
:10143800BA51DA22B0C1E1FFB1C1E2FFDFCFE7FF65
:10144800B9C1D9FFBAC1DAFF000EDF6E010101018F
:10145800B75105D004D003D0FC0E01D000D0120043
:10146800000120EE35F000016A51D92600016B51C8
:10147800DA22DF5000010001736F0001000173518F
:101488000D0DF350000100016A2500010001766F7F
:10149800F450000100016B210001776F010E76C046
:1014A800D9FF77C0DAFFDF6201D001D075D0000123
:1014B80020EE01F000017651D92600017751DA2299
:1014C800DF50000100016C6101D001D003D0FD0E96
:1014D80066D065D0000120EE01F000017651D926D2
:1014E80000017751DA22DF500001716F000171515C
:1014F80000010001746F0001756B6FC060F070C06F
:1015080061F0030E0001000176250001716F000EE5
:101518000001000177210001726F71C062F072C092
:1015280063F074C064F075C065F00001C7EC11F099
:10153800000120EE35F000016A51D92600016B51F7
:10154800DA22000110EE35F000016A51E1260001AF
:101558006B51E222E7500001716F00017129030B02
:10156800DF6E000120EE02F000017651D92600015D
:101578007751DA226DC0E1FF6EC0E2FFDFCFE7FFEF
:1015880076C0D9FF77C0DAFF000EDF6E00010001D8
:10159800745105D004D003D0FC0E01D000D0120045
:1015A800C7A401D001D002D08BD08AD0000120EE90
:1015B8001AF00001DB51D9260001DC51DA22000EB5
:1015C800DF6E43D0000120EE1AF00001DB51D9266E
:1015D8000001DC51DA22DF500101A66F0101A6519A
:1015E800010DF35001010101A425D96EF450010148
:1015F8000101A521DA6E000110EE1AF00001DB519D
:10160800E1260001DC51E222E7500101A76F010148
:10161800A751010D100EF326000EF422F35000011D
:101628000001DB25E16EF45000010001DC21E26ECF
:10163800DFCFE7FF000120EE1AF00001DB51D926C9
:101648000001DC51DA22DF2A00D0000120EE1AF076
:101658000001DB51D9260001DC51DA22DF500101FB
:10166800A66F01010101A3510101A65DD8A001D017
:1016780001D0A8D700D0000120EE1AF00001DB51FC
:10168800D9260001DC51DA220101A3C1DFFF0001E4
:1016980020EE1BF00001DB51D9260001DC51DA22D3
:1016A800000EDF6E000120EE0DF00001DB51D9269F
:1016B8000001DC51DA22110EDF6EC596C58000D01C
:1016C8001200000120EE1AF00001DB51D9260001BA
:1016D800DC51DA22000EDF6E43D0000120EE1AF052
:1016E8000001DB51D9260001DC51DA22DF5000016C
:1016F800636F00016351010DF35000010001612582
:10170800D96EF450000100016221DA6E000110EE7A
:101718001AF00001DB51E1260001DC51E222E7501A
:101728000001646F00016451010D100EF326000ED4
:10173800F422F35000010001DB25E16EF4500001B2
:101748000001DC21E26EDFCFE7FF000120EE1AF096
:101758000001DB51D9260001DC51DA22DF2A00D052
:10176800000120EE1AF00001DB51D9260001DC51FE
:10177800DA22DF500001636F0001000160510001AF
:10178800635DD8A001D001D0A8D700D0000120EE19
:101798001AF00001DB51D9260001DC51DA220001E0
:1017A80060C0DFFF000120EE1BF00001DB51D926ED
:1017B8000001DC51DA22010EDF6E000120EE10F08C
:1017C8000001DB51D9260001DC51DA22DF50C96E55
:1017D800C688120001010101AFC1B4F10101010184
:1017E800B56B010120EE34F00101AD51D92601019C
:1017F800AE51DA22DF5001010101B66F010101018A
:10180800B6510D0DF35001010101AD250101010192
:10181800B76FF45001010101AE210101B86FB7C1E2
:10182800D9FFB8C1DAFFDF50D8B401D001D003D056
:10183800FF0E52D051D0010120EE01F00101B75145
:10184800D9260101B851DA220101AFC1DFFF010138
:1018580020EE02F00101B751D9260101B851DA2270
:101868000101B0C1DFFF030E01010101B72501012C
:101878000101A36F000E01010101B8210101A46F4C
:10188800B1C1A5F1B2C1A6F1B4C1A7F1B5C1A8F122
:1018980001019CEC11F0010120EE34F00101AD5181
:1018A800D9260101AE51DA22010110EE34F001010E
:1018B800AD51E1260101AE51E222E7500101B36FBB
:1018C8000101B329030BDF6EB7C1D9FFB8C1DAFF35
:1018D800010EDF6E010E00D01200000100016CC085
:1018E80071F000010001726B000120EE34F000017C
:1018F8006A51D92600016B51DA22DF50000100013C
:10190800736F0001000173510D0DF35000010001C8
:101918006A2500010001746FF450000100016B2179
:101928000001756F74C0D9FF75C0DAFFDF50D8B4F5
:1019380001D001D003D0FF0E52D051D0000120EECB
:1019480001F000017451D92600017551DA22000115
:101958006CC0DFFF000120EE02F000017451D926AF
:1019680000017551DA2200016DC0DFFF030E00018E
:101978000001742500010001606F000E00010001E4
:1019880075210001616F6EC062F06FC063F071C0B5
:1019980064F072C065F00001C7EC11F0000120EEA0
:1019A80034F000016A51D92600016B51DA22000196
:1019B80010EE34F000016A51E12600016B51E22279
:1019C800E7500001706F00017029030BDF6E74C0CF
:1019D800D9FF75C0DAFF010EDF6E010E00D01200CC
:1019E800C6C1D9FFC7C1DAFFDF500101C86FC96B93
:1019F800C0C1D9FFC1C1DAFFC8C1DEFFC9C1DDFF5F
:101A08000101C86F0A0E01010101BB6F0101C85134
:101A18000101010E01010101BD6F0101CA0E0101A1
:101A2800BC6FC6C1BEF1C7C1BFF101013CEC13F0E8
:101A380001010101C46F0101C56B0101C4BFC507E4
:101A480001010101C551800A800F010ED8B4C45D9F
:101A5800D8A001D001D038D02BD02AD00101C86F2E
:101A6800AA0E01010101A36F0101C8510101C96F4B
:101A7800040E01010101A46F0101C951010154ECD7
:101A88000FF022D00101C86F9E0E01010101A36F62
:101A98000101C8510101F2EC11F0C4C1A3F1C6C1A2
:101AA800A4F1C7C1A5F10101D4EC0AF00DD00CD006
:101AB80001010101CA511F0AD8B4E4D7350AD8B4C4
:101AC800CDD702D001D000D01200010170EC11F086
:101AD80001010101A8510101A711D8A401D001D029
:101AE80002D062D061D08A860101A96F010E00017F
:101AF8000001A36F0101A95100D00001000E0101EE
:101B08000101A46F0001A50E0101A36F0101B8EC4A
:101B180012F00009D8B401D001D00BD00101A96F8F
:101B2800000E00010001A36F0101A9518A963CD063
:101B38003BD00101010E01010101A46F01016D0EED
:101B48000101A36F0101B8EC12F00009D8B401D06B
:101B580001D00BD00101A96F000E00010001A36F95
:101B68000101A9518A9620D01FD00101A96F0A0E40
:101B780001010101A36F0101A951010124EC14F035
:101B88008AA601D002D0010E01D0000E0101A96F72
:101B98000101A947A947A9478A500101A919F70BCB
:101BA800A9198A6EAAD7A9D71200000120EE0CF055
:101BB8000001DB51D9260001DC51DA22010EDF6E6B
:101BC800000120EE0AF00001DB51D9260001DC51AA
:101BD800DA22000EDF6E000100016051D8B401D096
:101BE80001D043D0C7AA01D001D021D0000120EEF6
:101BF8000DF00001DB51D9260001DC51DA22050E77
:101C0800DF6E000120EE0FF00001DB51D926000144
:101C1800DC51DA22DF2A000120EE0EF00001DB5150
:101C2800D9260001DC51DA22050EDF6E2AD0C7A4BE
:101C380001D001D00CD0000120EE0DF00001DB51E5
:101C4800D9260001DC51DA22080EDF6E1AD0000115
:101C580020EE0DF00001DB51D9260001DC51DA221B
:101C6800070EDF6E0ED00DD00CD0000120EE0DF067
:101C78000001DB51D9260001DC51DA22060EDF6EA5
:101C880000D012009EAA01D001D041D020EE04F06D
:101C98003D50D9263E50DA22DF501B6E1B50010DF5
:101CA800F3503D24D96EF4503E20DA6ED4EC12F095
:101CB800DF6E20EE04F03D50D9263E50DA22DF2AAE
:101CC80020EE04F03D50D9263E50DA22040EDF62A1
:101CD80001D001D01CD020EE04F03D50D9263E5052
:101CE800DA22DF50176E1B6E1F0E186E1B503DC098
:101CF80019F03EC01AF0EBEC13F020EE04F03D5062
:101D0800D9263E50DA22000EDF6E01D000D037A669
:101D180001D001D011D0AB98AB881B6E000E176EA6
:101D28001B501C6E1E0E186E1C50000E1A6E000EF4
:101D3800196EEBEC13F000D01200000EAC6E000E22
:101D4800AB6E01010101A3A101D001D001D0AC8883
:101D580001010101A3A301D001D002D0AC8CAB8C4E
:101D680001010101A3A501D001D001D0AC8E010170
:101D78000101A3A701D001D002D0AB8801D0AB8A62
:101D880001010101A3A901D001D001D0AC849E9822
:101D980001010101A3AB01D001D001D0AB86010143
:101DA8000101A3AD01D001D002D09D8A01D09D9A36
:101DB8009E9A01010101A3AF01D001D002D09D88F4
:101DC80001D09D98A4C1AFFF01010101A551B06EDA
:101DD800AC8AAB8E949C948EACA801D001D006D06E
:101DE800ACBE01D001D002D0948C00D012000DC03E
:101DF80012F0136A20EE34F00B50D9260C50DA2278
:101E0800DF50146E14500D0DF3500B24156EF45062
:101E18000C20166E15C0D9FF16C0DAFFDF50D8B4F3
:101E280001D001D003D0FF0E3AD039D020EE01F016
:101E38001550D9261650DA220DC0DFFF20EE02F029
:101E48001550D9261650DA220EC0DFFF030E1524CE
:101E5800016E000E1620026E0FC003F010C004F0D1
:101E680012C005F013C006F016EC12F020EE34F0A4
:101E78000B50D9260C50DA2210EE34F00B50E12624
:101E88000C50E222E750116E1128030BDF6E15C0CB
:101E9800D9FF16C0DAFF010EDF6E010E00D0120066
:101EA800C7A401D001D002D048D047D0000120EE0D
:101EB8000AF00001DB51D9260001DC51DA220101C8
:101EC800A4C1DFFF000120EE0BF00001DB51D92691
:101ED8000001DC51DA22000EDF6E000120EE1AF05C
:101EE8000001DB51D9260001DC51DA22010EDF6E38
:101EF800000120EE10F00001DB51D9260001DC5171
:101F0800DA220101A3C1DFFF000120EE1BF000016E
:101F1800DB51D9260001DC51DA22000EDF6E000108
:101F280020EE0DF00001DB51D9260001DC51DA2248
:101F3800120EDF6EC586C58000D0120000010001B8
:101F4800A36701D001D002D045D044D0000141ECB4
:101F580011F000010001635100016211D8B401D0F1
:101F680001D002D037D036D000012EEC14F0000199
:101F78000001615100016011D8A401D001D002D044
:101F880029D028D00001000E00010001616F000176
:101F9800A50E0001606F0001F0EC12F00009D8B442
:101FA80001D001D002D016D015D00101010E0001D8
:101FB8000001616F01016D0E0001606F0001F0EC1E
:101FC80012F00009D8B401D001D002D003D002D059
:101FD8006FEC14F012000600EACF98F0E1CF99F008
:101FE800E2CF9AF0D9CF9BF0DACF9CF0F3CF9DF0F7
:101FF800F4CF9EF0F6CF9FF0F7CFA0F0F8CFA1F086
:10200800F5CFA2F09EA601D001D004D09E96D8ECC0
:1020180013F000D0F2A401D001D004D0F294E2EC85
:1020280010F000D0A2EC0FF0A2C0F5FFA1C0F8FF9D
:10203800A0C0F7FF9FC0F6FF9EC0F4FF9DC0F3FF4E
:102048009CC0DAFF9BC0D9FF9AC0E2FF99C0E1FFAC
:1020580098C0EAFF97C0E9FF96C0FBFF95C0FAFF5A
:102068001100010120EE34F00101A351D92601012C
:10207800A451DA22000EDF6E010120EE35F00101D5
:10208800A351D9260101A451DA22000EDF6E010105
:10209800A56F000E01010101A66F0101A551030EF4
:1020A80001010101A66501D001D002D01CD01BD0CE
:1020B80001010101A6510D0DF35001010101A325F4
:1020C800D96EF45001010101A421DA6E000EDF6E11
:1020D80001010101A62B030E01010101A66501D032
:1020E80001D0E6D700D012000101A76F000E000151
:1020F8000001A36F0101A7510101010E01010101B6
:10210800A46F01016D0E0101A36F010135EC10F000
:102118000001000E01010101A46F0001A50E0101DB
:10212800A36F010135EC10F00101010E010101015D
:10213800A46F0101370E0101A36F010135EC10F006
:102148000101010E01010101A46F0101010E01014C
:10215800A36F010135EC10F01200A3C1DBF0A4C19C
:10216800DCF0000120EE0AF00001DB51D926000165
:10217800DC51DA22000EDF6E000120EE0CF00001C7
:10218800DB51D9260001DC51DA22000EDF6E000196
:1021980020EE0DF00001DB51D9260001DC51DA22D6
:1021A800050EDF6E000120EE0FF00001DB51D9268D
:1021B8000001DC51DA22000EDF6E1200000E000171
:1021C8000001616F000E0001606F000153EC14F014
:1021D80000015CEC14F0000160C07CF0000161C0FB
:1021E8007DF000017A6F020E00010001766F000198
:1021F8007A5100017B6F0A0E00010001776F000120
:102208007B510001000E00010001796F00017C0E76
:102218000001786F000198EC13F01200F2AC01D0C5
:1022280001D00AD0000E01010101A66F000E0101C4
:10223800A56F22D021D020D001011AEC14F00101A1
:102248000101A4510101A311D8B401D001D00AD0D1
:10225800000E01010101A66F000E0101A56F0CD04F
:102268000BD00AD0000E01010101A66F010E010179
:10227800A56F02D001D000D01200F2AC01D001D07D
:102288000AD0000E00010001636F000E0001626FAA
:1022980022D021D020D000012EEC14F00001000142
:1022A800615100016011D8B401D001D00AD0000EEC
:1022B80000010001636F000E0001626F0CD00BD0AB
:1022C8000AD0000E00010001636F010E0001626F69
:1022D80002D001D000D01200010112EC11F001016E
:1022E8000101A6510101A511D8A401D001D016D031
:1022F80001011AEC14F001010101A4510101A3111B
:10230800D8A401D001D00AD0000E01010101A86FA4
:10231800010E0101A76F0BD00AD009D0000E0101F0
:102328000101A86F000E0101A76F01D000D01200B3
:10233800A5C1ABF1A6C1ACF1A3C1A9F1A4C1AAF191
:1023480013D0ABC1D9FFACC1DAFFA9C1E1FFAAC163
:10235800E2FFDFCFE7FF01010101AB4BAC2B01012D
:102368000101A94BAA2B00D001010101A707D8A0A0
:10237800A8070101A729D8B4A829D8A401D001D059
:10238800E0D700D0120062C068F063C069F060C096
:1023980066F061C067F013D068C0D9FF69C0DAFF82
:1023A80066C0E1FF67C0E2FFDFCFE7FF0001000181
:1023B800684B692B00010001664B672B00D00001B8
:1023C80000016407D8A0650700016429D8B465290D
:1023D800D8A401D001D0E0D700D012000101A46F29
:1023E800020E00010001A46F0101A4511D0EC86E68
:1023F800000EC76E000EC66E000EC56EC686C78E6E
:10240800C68A948694888B868B88000120EE1CF0FF
:102418000001DB51D9260001DC51DA220101A3C1F8
:10242800DFFF120003C009F004C00AF001C007F082
:1024380002C008F00FD009C0D9FF0AC0DAFF07C0F0
:10244800E1FF08C0E2FFDFCFE7FF094A0A2A074A8F
:10245800082A00D00506D8A006060528D8B40628FC
:10246800D8A401D001D0E7D700D0120001010101A2
:10247800A8511E0AA911D8A401D001D002D015D0A4
:1024880014D001010101A8511F0AA911D8A401D033
:1024980001D00BD0AAC1A3F1ACC1A4F1ADC1A5F183
:1024A800010172EC14F001D000D0120065EC14F0B8
:1024B80001C021F002C022F0010E226E230E216E0F
:1024C80021C01FF02250206E38C01EF0382A1B6E23
:1024D800040E176E1B501C6E280E186E1C50000E32
:1024E8001A6E1D0E196EEBEC13F0120001010101BA
:1024F800A3517E0BCD6E01010101A3AD01D001D026
:1025080002D0CD8E02D0CD9E00D0000ECF6E000E30
:10251800CE6E9E9001010101A3AF01D001D002D07F
:102528009D8001D09D90CD80120041EC14F001C037
:102538001FF002C020F0000E1E6E010E1D6E1DC0A1
:1025480001F01EC002F04AEC14F01B6E020E176E6A
:102558001B501C6E0B0E186E1C50000E1A6E1F0EB0
:10256800196EEBEC13F01200010120EE35F00101B9
:10257800A351D9260101A451DA22DF500101A56F28
:102588000101A5510D0DF35001010101A325D96EDB
:10259800F45001010101A421DA6EDF5000D01200CD
:1025A800F20E3716ABAC01D001D007D03790ABA0F4
:1025B80001D001D002D0378000D0ABA401D001D027
:1025C80001D03784ABA201D001D001D03786AECF7D
:1025D80001F0015000D01200000120EE35F000019A
:1025E8006051D92600016151DA22DF500001626F83
:1025F800000162510D0DF350000100016025D96EF4
:10260800F450000100016121DA6EDF5000D01200A1
:102618000001000E01010101AE6F0001A50E0101CC
:10262800AD6FBBC1AFF1BCC1B0F1BDC1B1F1BEC1AD
:10263800B2F1BFC1B3F1010194EC09F000D012006E
:102648000101010E01010101AE6F01016D0E0101D1
:10265800AD6FBBC1AFF1BCC1B0F1BDC1B1F1BEC17D
:10266800B2F1BFC1B3F1010194EC09F000D012003E
:102678000101010E01010101AE6F0101370E0101D7
:10268800AD6FBBC1AFF1BCC1B0F1BDC1B1F1BEC14D
:10269800B2F1BFC1B3F1010194EC09F000D012000E
:1026A8000101010E000100016B6F0101370E0001ED
:1026B8006A6F78C06CF079C06DF07AC06EF07BC03C
:1026C8006FF07CC070F0000134EC0AF000D012000A
:1026D8000101010E01010101AE6F0101370E010177
:1026E800AD6FB9C1AFF1BAC1B0F1BBC1B1F1BCC1F5
:1026F800B2F10101EEEC0BF000D012000001000E67
:1027080001010101AE6F0001A50E0101AD6FB9C154
:10271800AFF1BAC1B0F1BBC1B1F1BCC1B2F10101B5
:10272800EEEC0BF000D012000001000E00010001D9
:102738006B6F0001A50E00016A6F76C06CF077C060
:102748006DF078C06EF079C06FF0000171EC0CF09C
:1027580000D0120001EE00F0A30EEE6AE806FDE1DB
:1027680000EEA3F0380EEE6AE806FDE100EE34F064
:10277800090EEE6AE806FDE100013FEF07F00101EE
:102788000101A3517F0BD56E000ED76E000ED66ED9
:10279800F29401010101A3AF01D001D002D0F28A65
:1027A80001D0F29AD58E120007D06BEC00F00ED053
:1027B80029EC04F00BD00AD000010001A451010A51
:1027C800D8B4F3D7030AD8B4F3D700D01200010164
:1027D800010E0C6E01016D0E0B6E17C00DF018C0C6
:1027E8000EF019C00FF01AC010F0FBEC0EF000D07C
:1027F8001200000E01010101CD6F010E0101CC6F25
:102808000101A56F000E01010101006F0101A55131
:102818001200A3C13DF0A4C13EF020EE04F03D50EB
:10282800D9263E50DA22000EDF6E1200000EF2AEFC
:10283800010E01010101A36F0101A46B00D0120078
:10284800FA0E00F0E82EFDD701010101A32FF8D7F9
:1028580000D01200000EF2AE010E00010001606F00
:102868000001616B00D01200A3C1D9FFA4C1DAFF37
:10287800000EDE6E000EDD6E1200CECF03F0CFCF5D
:1028880004F003C001F004C002F0120001C003F01C
:1028980002C004F004C0CFFF03C0CEFF120060C026
:1028A80062F061C063F063C0D7FF62C0D6FF120058
:1028B800D6CF62F0D7CF63F062C060F063C061F03A
:1028C8001200C450026EC350016E00D01200D08EA8
:0E28D800F28EF28C1200D38E0300120012005A
:020000040020DA
:08000000FFFFFFFFFFFFFFFF00
:020000040030CA
:0E000000FF08191EFF8080FF0FC00FE00F40A9
:00000001FF
