:0400000069EF00F0B4
:10000800FACFA8F0FBCFA9F0E9CFAAF0E1EF0BF007
:10001800D8CF23F0E8CF24F0E0CF25F0FACF26F0B0
:10002800FBCF27F0E9CF28F0EACF29F0E1CF2AF07B
:10003800E2CF2BF0D9CF2CF0DACF2DF0F3CF2EF082
:10004800F4CF2FF0F6CF30F0F7CF31F0F8CF32F011
:10005800F5CF33F09EA001D001D004D09E9023ECC0
:100068000FF000D09EAC01D001D004D09E9CE4ECEF
:100078000EF000D09EAA01D001D004D09E9AD3ECF5
:100088000AF000D033C0F5FF32C0F8FF31C0F7FFE7
:1000980030C0F6FF2FC0F4FF2EC0F3FF2DC0DAFFEB
:1000A8002CC0D9FF2BC0E2FF2AC0E1FF29C0EAFF1C
:1000B80028C0E9FF27C0FBFF26C0FAFF25C0E0FFE4
:1000C80024C0E8FF23C0D8FF100056EF0EF000014F
:1000D8008C6F000E00010001A76F00018C51000118
:1000E8008C6F000E000100019F6F00018C51000110
:1000F8008C6F000E00010001A66F00018C510001F9
:100108008C6F000E00010001A56F00018C510001E9
:100118008C6F000E00010001A06F00018C51C6AC6D
:1001280001D001D02AD0C69C000120EE0CF00001BD
:10013800C451D9260001C551DA22050EDF6E00012F
:100148008C6F010E00010001A06F00018C510001AD
:1001580020EE0EF00001C451D9260001C551DA2263
:10016800DF2A000120EE0DF00001C451D92600015C
:10017800C551DA22040EDF6E00D0C7A001D001D02D
:100188000BD0C9CFA3F000018C6F010E0001000154
:10019800A76F00018C5100D000010001A06701D0B9
:1001A80001D050D238D237D2C7A601D001D04AD216
:1001B800A7C034F09EEC09F0000120EE0CF000011D
:1001C800C451D9260001C551DA22080EDF6201D0D8
:1001D80001D038D200018C6F000E00010001A76F1A
:1001E80000018C5100018C6F010E00010001A56F08
:1001F80000018C5127D226D225D2C7A801D001D020
:1002080040D0000120EE0BF00001C451D9260001B6
:10021800C551DA22DF2A00010001A751D8B401D064
:1002280001D023D0C7BA01D001D009D000018C6F0A
:10023800010E00010001A66F00018C5116D00001CB
:1002480020EE0EF00001C451D9260001C551DA2272
:10025800DF2A000120EE0DF00001C451D92600016B
:10026800C551DA22060EDF6E00D0000120EE0CF038
:100278000001C451D9260001C551DA22050EDF6EEE
:10028800E1D100010001A751D8B401D001D0DAD1E1
:10029800000120EE0BF00001C451D9260001C55120
:1002A800DA22DF2AC7BA01D001D02DD0C7B401D0D5
:1002B80001D00CD0000120EE0CF00001C451D92669
:1002C8000001C551DA22070EDF6EBCD1000120EE15
:1002D8000CF00001C451D9260001C551DA22080EDC
:1002E800DF6E00018C6F010E00010001A56F000197
:1002F8008C5100018C6F000E00010001A76F0001F6
:100308008C51A0D19FD1000120EE0EF00001C45104
:10031800D9260001C551DA22DF2A000120EE0CF0AF
:100328000001C451D9260001C551DA22050EDF6E3D
:10033800000120EE0DF00001C451D9260001C5517D
:10034800DA22060EDF6E7ED17DD17CD17BD1000111
:1003580020EE1AF00001C451D9260001C551DA2255
:10036800DF5000018C6F000120EE19F00001C4512C
:10037800D9260001C551DA22DF5000018C5DD8B0C2
:1003880001D001D032D0000120EE1AF00001C45192
:10039800D9260001C551DA22DF5000018C6F000117
:1003A8008C51010D0F0EF326000EF422F3500001BC
:1003B8000001C425D96EF45000010001C521DA6E90
:1003C800DF50C96E000120EE1AF00001C451D92691
:1003D8000001C551DA22DF2A00018C6F010E0001ED
:1003E80000019F6F00018C512DD1000120EE0CF00F
:1003F8000001C451D9260001C551DA22050EDF6E6D
:1004080021D120D1C7A801D001D07BD0000120EE96
:100418000BF00001C451D9260001C551DA22DF2AA8
:1004280000010001A751D8B401D001D055D0C7AA06
:1004380001D001D02FD0000120EE0AF00001C451F4
:10044800D9260001C551DA22DF5000018C6F000166
:100458008C51010DF35000010001C425D96EF450F0
:1004680000010001C521DA6E0001A3C0DFFF000111
:1004780020EE0AF00001C451D9260001C551DA2244
:10048800DF2A00018C6F010E00010001A66F000138
:100498008C512BD0000120EE0EF00001C451D9265A
:1004A8000001C551DA22DF2A000120EE0DF000011B
:1004B800C451D9260001C551DA22060EDF6E0001AB
:1004C80020EE0CF00001C451D9260001C551DA22F2
:1004D800050EDF6E0AD009D000018C6F010E0001F5
:1004E8000001A66F00018C5100D0000120EE0CF035
:1004F8000001C451D9260001C551DA22050EDF6E6C
:10050800A1D000010001A751D8B401D001D09AD0E0
:10051800000120EE0BF00001C451D9260001C5519D
:10052800DA22DF2AC7AA01D001D027D0000120EEA5
:100538000AF00001C451D9260001C551DA22DF5062
:1005480000018C6F00018C51010DF3500001000176
:10055800C425D96EF45000010001C521DA6E0001EE
:10056800A3C0DFFF000120EE0AF00001C451D92624
:100578000001C551DA22DF2A65D0C7A401D001D015
:1005880024D0000120EE0CF00001C451D92600014E
:10059800C551DA22080EDF6E00018C6F010E0001D2
:1005A8000001A66F00018C5100018C6F010E000143
:1005B8000001A56F00018C5100018C6F000E000135
:1005C8000001A76F00018C513DD0000120EE0EF014
:1005D8000001C451D9260001C551DA22DF2A0001E1
:1005E80020EE0DF00001C451D9260001C551DA22D0
:1005F800060EDF6E000120EE0CF00001C451D92672
:100608000001C551DA22050EDF6E1CD01BD01AD0AE
:1006180019D018D017D0000120EE0CF00001C451F9
:10062800D9260001C551DA22DF50050AD8B4BCD555
:10063800030AD8B4E2D5010AD8B4E4D60F0AD8B46C
:1006480086D600D000010001A76701D001D007D0ED
:10065800000100019F51D8B401D001D007D0C6B81D
:1006680001D001D003D0C68801D000D0000120EE0F
:100678000AF00001C451D9260001C551DA22080E3A
:10068800DF6401D001D027D000010001A66701D0A6
:1006980001D021D0000120EE0CF00001C451D92670
:1006A8000001C551DA22050EDF6E000120EE0EF0C2
:1006B8000001C451D9260001C551DA22DF2A000100
:1006C80020EE0DF00001C451D9260001C551DA22EF
:1006D800070EDF6E00D000010001A651D8B401D08A
:1006E80001D069D000018C6F0A0E00010001876FEC
:1006F80000018C510001000E00010001896F00010A
:10070800A40E0001886F0001000E000100018B6F2C
:1007180000018E0E00018A6F0001EEEC0FF000015F
:100728000001A16F0001A26B0001A1BFA207000197
:100738000001A251800A800F010ED8B4A15DD8A093
:1007480001D001D00BD0A1C034F00001000E366EEC
:1007580000018E0E356EB5EC08F08BD000018C6F61
:10076800510E00010001986F00018C51C6C099F02C
:1007780000018C6F000E000100019A6F00018C517E
:1007880000018C6F000E000100019B6F00018C516D
:1007980000010001C62B00018C6F040E346E0001AD
:1007A8008C510001000E366E0001980E356EB5ECC6
:1007B80008F05FD05ED0000120EE0EF00001C451B9
:1007C800D9260001C551DA22DF50D8B401D001D0B2
:1007D80050D0000120EE0EF00001C451D9260001CE
:1007E800C551DA22DF50000100019C6F000120EEA4
:1007F8000DF00001C451D9260001C551DA22DF509D
:10080800000100019D6F000120EE0BF00001C451B2
:10081800D9260001C551DA22DF50000100019E6F80
:1008280000018C6F030E00010001856F00018C51DF
:1008380000018D6F290E00010001866F00018D51A6
:100848000001000E00010001886F00019C0E0001EC
:10085800876F00013AEC10F0000120EE0EF0000165
:10086800C451D9260001C551DA22000EDF6E01D02D
:1008780000D000010001A551D8B401D001D009D0A1
:1008880000018C6F000E00010001A56F00018C5162
:1008980000D01200820ED36E9B9C0101010E000154
:1008A8000001B76F0101C50E0001B66F00015AECD7
:1008B80010F00101010E00010001B76F0101CC0E1B
:1008C8000001B66F00014FEC0DF00101010E0001AF
:1008D8000001BC6F0101C30E0001BB6F00011DECDC
:1008E8000DF0E6EC0CF0000E936E000E8A6E000E12
:1008F800806E000E896E0F0EC16E0F0E926E000193
:10090800C36FF50E00010001B66F0001C35100016D
:1009180004EC0FF0A8EC10F09F909F9C9F9A9F8684
:100928000001C36F9C0E00010001B66F0001C351A6
:1009380000017AEC0FF09D860001C36F6C0E000178
:100948000001B66F0001C351000E00010001B86F2D
:10095800190E0001B76F00012EEC0BF000D009EC66
:100968000AF00001C36F0A0E01010101AE6F000118
:10097800C3510101010E01010101B06F0101CB0E4C
:100988000101AF6F0101010E01010101B26F010107
:10099800B30E0101B16F010194EC0FF001010101E7
:1009A800CA6F01010101CAAF01D001D03CD04CD0BF
:1009B8004BD04AD038D00101010E00010001B76FB9
:1009C8000101C00E0001B66F01010001CBC1B8F0F2
:1009D80000010001B96B01010101CA5100010001C8
:1009E800BA6F0001BB6B0001BABFBB070101010E62
:1009F80000010001BD6F0101B30E0001BC6F0001D1
:100A0800A3EC10F021D0B3C1C2F11ED002D01CD08B
:100A18001BD001010101C251AA0AD8B415D014D0C3
:100A280013D012D011D001010101CB510A0AD8B458
:100A3800C2D7220AD8B4E7D7010AD8B4E4D7030A40
:100A4800D8B4E7D701D000D00001C36F0A0E010166
:100A58000101AE6F0001C3510101010E0101010145
:100A6800B06F0101CB0E0101AF6F0101010E010151
:100A78000101B26F0101B30E0101B16F0101ACECCC
:100A88000FF001010101CA6F01010101CAAF01D0D4
:100A980001D068D064D763D762D764D00101010E52
:100AA80000010001BC6F0101C30E0001BB6F010111
:100AB8000001CBC1BDF000010001BE6B01010101C5
:100AC800CA5100010001BF6F0001C06B0001BFBF28
:100AD800C0070101010E00010001C26F0101B30E40
:100AE8000001C16F000106EC0EF039D7CAC1ADF1A3
:100AF800CBC1AEF10101010E01010101B06F01018D
:100B0800B30E0101AF6F0101C4EC0FF001D000D0AA
:100B18000101010E00010001B76F0101BE0E0001C5
:100B2800B66F01010001CBC1B8F000010001B96B3B
:100B380001010101CA5100010001BA6F0001BB6B3C
:100B48000001BABFBB070101010E00010001BD6F22
:100B58000101B30E0001BC6F00012FEC0EF0FFD6AF
:100B6800FED6FDD601010101CB510B0AD8B496D7A8
:100B7800150AD8B4CDD7010AD8B4CAD7370AD8B419
:100B8800B5D7EDD6ECD6EBD6EAD669EF00F09CD017
:100B9800000120EE1BF00001C451D9260001C55107
:100BA800DA22DF50FE0BC96E000120EE0CF00001C6
:100BB800C451D9260001C551DA22090EDF6E98D03A
:100BC800C5BC01D001D05AD0000120EE1AF00001B6
:100BD800C451D9260001C551DA22DF50346E000114
:100BE80020EE19F00001C451D9260001C551DA22BE
:100BF800DF50345CD8B001D001D028D0000120EEFD
:100C08001AF00001C451D9260001C551DA22DF507B
:100C1800346E3450010D0F0EF326000EF422F350FB
:100C280000010001C425D96EF45000010001C5215E
:100C3800DA6EDF50C96E000120EE1AF00001C451CF
:100C4800D9260001C551DA22DF2A52D0000120EE50
:100C58000CF00001C451D9260001C551DA22100E4A
:100C6800DF6E000120EE1AF00001C451D926000100
:100C7800C551DA22000EDF6E3BD03AD0000120EEDB
:100C88000CF00001C451D9260001C551DA22050E25
:100C9800DF6E000120EE1AF00001C451D9260001D0
:100CA800C551DA22000EDF6E23D022D0C5840001A0
:100CB80020EE0CF00001C451D9260001C551DA22FA
:100CC800050EDF6E15D014D0000120EE0CF00001E7
:100CD800C451D9260001C551DA22DF50060AD8B41A
:100CE80057D70F0AD8B46CD7190AD8B4DFD700D0B1
:100CF8001200010120EE35F00101A251D9260101AF
:100D0800A351DA22DF5001010101A96F010101019C
:100D1800A9510D0DF35001010101A22501010101A5
:100D2800AC6FF45001010101A3210101AD6F010E67
:100D3800ACC1D9FFADC1DAFFDF6201D001D075D0F7
:100D4800010120EE01F00101AC51D9260101AD519C
:100D5800DA22DF5001010101A46101D001D003D0E2
:100D6800FD0E66D065D0010120EE01F00101AC5105
:100D7800D9260101AD51DA22DF500001C06F000110
:100D8800C05101010101AA6F0101AB6BA7C1B6F007
:100D9800A8C1B7F0030E01010101AC250001C06F25
:100DA800000E01010101AD210001C16FC0C0B8F002
:100DB800C1C0B9F0AAC1BAF0ABC1BBF00001DBEC0D
:100DC8000DF0010120EE35F00101A251D9260101F3
:100DD800A351DA22010110EE35F00101A251E126FA
:100DE8000101A351E222E7500001C06F0001C029B0
:100DF800030BDF6E010120EE02F00101AC51D92690
:100E08000101AD51DA22A5C1E1FFA6C1E2FFDFCFA2
:100E1800E7FFACC1D9FFADC1DAFF000EDF6E0101FB
:100E28000101AA5105D004D003D0FC0E01D000D096
:100E3800120020EE35F03E50D9263F50DA22DF501E
:100E480000010001826F0001000182510D0DF35075
:100E58003E2400010001856FF4503F200001866F99
:100E6800010E85C0D9FF86C0DAFFDF6201D001D04C
:100E78006CD0000120EE01F000018551D926000157
:100E88008651DA22DF50406001D001D003D0FD0E38
:100E98005FD05ED0000120EE01F000018551D92617
:100EA80000018651DA22DF500001806F0001805175
:100EB80000010001836F0001846B43C034F044C01B
:100EC80035F0030E0001000185250001806F000E3A
:100ED8000001000186210001816F80C036F081C0C9
:100EE80037F083C038F084C039F09EEC0EF020EE65
:100EF80035F03E50D9263F50DA2210EE35F03E50FC
:100F0800E1263F50E222E7500001806F000180296E
:100F1800030BDF6E000120EE02F000018551D92697
:100F280000018651DA2241C0E1FF42C0E2FFDFCF73
:100F3800E7FF85C0D9FF86C0DAFF000EDF6E00012B
:100F48000001835105D004D003D0FC0E01D000D09D
:100F58001200C7A401D001D002D07FD07ED00001FA
:100F680020EE19F00001C451D9260001C551DA223A
:100F7800000EDF6E43D0000120EE19F00001C451CD
:100F8800D9260001C551DA22DF500001B96F0001EE
:100F9800B951010DF35000010001B725D96EF45085
:100FA80000010001B821DA6E000110EE19F000010D
:100FB800C451E1260001C551E222E7500001BA6F91
:100FC8000001BA51010D0F0EF326000EF422F35062
:100FD80000010001C425E16EF45000010001C521A3
:100FE800E26EDFCFE7FF000120EE19F00001C451E7
:100FF800D9260001C551DA22DF2A00D0000120EEEF
:1010080019F00001C451D9260001C551DA22DF5078
:101018000001B96F00010001B6510001B95DD8A007
:1010280001D001D0A8D700D0000120EE1AF00001AD
:10103800C451D9260001C551DA22000EDF6E000125
:1010480020EE0CF00001C451D9260001C551DA2266
:10105800060EDF6EC596C58000D0120001010101A1
:10106800A4C1A8F101010101A96B010120EE34F02E
:101078000101A251D9260101A351DA22DF50010151
:101088000101AA6F01010101AA510D0DF3500101DF
:101098000101A22501010101AB6FF4500101010119
:1010A800A3210101AC6FABC1D9FFACC1DAFFDF509E
:1010B800D8B401D001D003D0FF0E52D051D00101D5
:1010C80020EE01F00101AB51D9260101AC51DA2221
:1010D8000101A4C1DFFF010120EE02F00101AB51C3
:1010E800D9260101AC51DA220101A5C1DFFF030EA7
:1010F80001010101AB2500010001B66F000E0101DD
:101108000101AC210001B76FA6C1B8F0A7C1B9F0C1
:10111800A8C1BAF0A9C1BBF00001DBEC0DF00101D8
:1011280020EE34F00101A251D9260101A351DA229F
:10113800010110EE34F00101A251E1260101A35191
:10114800E222E7500001C06F0001C029030BDF6EE7
:10115800ABC1D9FFACC1DAFF010EDF6E010E00D0C2
:101168001200000120EE19F00001C451D926000137
:10117800C551DA22000EDF6E3BD0000120EE19F0D7
:101188000001C451D9260001C551DA22DF50376E5B
:101198003750010DF3503524D96EF4503620DA6EED
:1011A800000110EE19F00001C451E1260001C551FB
:1011B800E222E750386E3850010D0F0EF326000E6C
:1011C800F422F35000010001C425E16EF45000013F
:1011D8000001C521E26EDFCFE7FF000120EE19F024
:1011E8000001C451D9260001C551DA22DF2A00D0F6
:1011F800000120EE19F00001C451D9260001C551A3
:10120800DA22DF50376E3450375CD8A001D001D0D5
:10121800B4D700D0000120EE19F00001C451D9263E
:101228000001C551DA2234C0DFFF000120EE1AF0B8
:101238000001C451D9260001C551DA22010EDF6E22
:10124800000120EE0FF00001C451D9260001C5515C
:10125800DA22DF50C96EC6881200000140C080F053
:1012680000010001816B20EE34F03E50D9263F503A
:10127800DA22DF5000010001826F00010001825173
:101288000D0DF3503E2400010001836FF4503F2000
:101298000001846F83C0D9FF84C0DAFFDF50D8B45F
:1012A80001D001D003D0FF0E44D043D0000120EE7E
:1012B80001F000018351D92600018451DA2240C08F
:1012C800DFFF000120EE02F000018351D926000162
:1012D8008451DA2241C0DFFF030E0001000183259B
:1012E800346E000E000100018421356E42C036F0D4
:1012F80043C037F080C038F081C039F09EEC0EF062
:1013080020EE34F03E50D9263F50DA2210EE34F069
:101318003E50E1263F50E222E750446E4428030B3A
:10132800DF6E83C0D9FF84C0DAFF010EDF6E010EC5
:1013380000D01200000120EE0BF00001C451D926A4
:101348000001C551DA22010EDF6E000120EE0AF01D
:101358000001C451D9260001C551DA22000EDF6E02
:101368003450D8B401D001D043D0C7AA01D001D09D
:1013780021D0000120EE0CF00001C451D926000153
:10138800C551DA22050EDF6E000120EE0EF00001D5
:10139800C451D9260001C551DA22DF2A000120EE06
:1013A8000DF00001C451D9260001C551DA22050EFD
:1013B800DF6E2AD0C7A401D001D00CD0000120EEE6
:1013C8000CF00001C451D9260001C551DA22080EDB
:1013D800DF6E1AD0000120EE0CF00001C451D926AE
:1013E8000001C551DA22070EDF6E0ED00DD00CD0E9
:1013F800000120EE0CF00001C451D9260001C551AE
:10140800DA22060EDF6E00D012000001AFEC0DF0FC
:1014180000010001BB510001BA11D8A401D001D0CC
:1014280002D05CD05BD08A860001BC6F010E486E8A
:101438000001BC5100D00101010E00010001B76F8D
:101448000101360E0001B66F000142EC0FF00009F1
:10145800D8B401D001D009D00001BC6F000E486E8D
:101468000001BC518A963AD039D00101010E000121
:101478000001B76F01016C0E0001B66F000142EC6C
:101488000FF00009D8B401D001D009D00001BC6F19
:10149800000E486E0001BC518A9620D01FD0000172
:1014A800BC6F0A0E00010001B66F0001BC510001BB
:1014B80071EC10F08AA601D002D0010E01D0000E06
:1014C8000001BC6F0001BC47BC47BC478A50000103
:1014D800BC19F70BBC198A6EAED7ADD712008AA01B
:1014E80001D002D0010E01D0000E00018C6F8A508D
:1014F80000018C19FE0B8C198A6E000E356E000ED9
:10150800346E8DEC10F000018C6F020E00010001AA
:10151800876F00018C510001000E00010001896FE6
:1015280000018E0E0001886F0001000E000100010D
:101538008B6F0001920E00018A6F0001DAEC0FF048
:1015480000010001906F0001916B000190BF9107AD
:10155800000100019051020A9111D8A401D001D0D4
:101568001DD000018C6F020E00010001856F000183
:101578008C5100018D6F0A0E00010001866F000179
:101588008D510001000E00010001886F0001920ECC
:101598000001876F00013AEC10F000D012009EAAFB
:1015A80001D001D041D020EE04F04B50D9264C5048
:1015B800DA22DF501B6E1B50010DF3504B24D96EFD
:1015C800F4504C20DA6E5EEC0FF0DF6E20EE04F083
:1015D8004B50D9264C50DA22DF2A20EE04F04B502B
:1015E800D9264C50DA22040EDF6201D001D01CD07B
:1015F80020EE04F04B50D9264C50DA22DF50176EFB
:101608001B6E1F0E186E1B504BC019F04CC01AF001
:1016180028EC10F020EE04F04B50D9264C50DA227A
:10162800000EDF6E01D000D049A601D001D011D044
:10163800AB98AB881B6E000E176E1B501C6E1E0EEF
:10164800186E1C50000E1A6E000E196E28EC10F061
:1016580000D01200000EAC6E000EAB6E000100014F
:10166800B6A101D001D001D0AC8800010001B6A319
:1016780001D001D002D0AC8CAB8C00010001B6A522
:1016880001D001D001D0AC8E00010001B6A701D075
:1016980001D002D0AB8801D0AB8A00010001B6A905
:1016A80001D001D001D0AC849E9800010001B6ABF6
:1016B80001D001D001D0AB8600010001B6AD01D048
:1016C80001D002D09D8A01D09D9A9E9A0001000106
:1016D800B6AF01D001D002D09D8801D09D98B7C087
:1016E800AFFF00010001B851B06EAC8AAB8E949C7C
:1016F800948EACA801D001D006D0ACBE01D001D0E8
:1017080002D0948C00D012000DC012F0136A20EEA3
:1017180034F00B50D9260C50DA22DF50146E1450D6
:101728000D0DF3500B24156EF4500C20166E15C0D9
:10173800D9FF16C0DAFFDF50D8B401D001D003D0EA
:10174800FF0E3AD039D020EE01F01550D9261650A8
:10175800DA220DC0DFFF20EE02F01550D926165010
:10176800DA220EC0DFFF030E1524016E000E1620CC
:10177800026E0FC003F010C004F012C005F013C0D1
:1017880006F07AEC0EF020EE34F00B50D9260C500F
:10179800DA2210EE34F00B50E1260C50E222E7502A
:1017A800116E1128030BDF6E15C0D9FF16C0DAFFC2
:1017B800010EDF6E010E00D01200EACFABF0E1CFD0
:1017C800ACF0E2CFADF0D9CFAEF0DACFAFF0F3CFD7
:1017D800B0F0F4CFB1F0F6CFB2F0F7CFB3F0F8CF66
:1017E800B4F0F5CFB5F09EA601D001D004D09E96F6
:1017F80002EC10F000D0F2A401D001D004D0F29491
:1018080073EC0AF000D0ABEC0CF0B5C0F5FFB4C037
:10181800F8FFB3C0F7FFB2C0F6FFB1C0F4FFB0C025
:10182800F3FFAFC0DAFFAEC0D9FFADC0E2FFACC076
:10183800E1FFABC0EAFFAAC0E9FFA9C0FBFFA8C04F
:10184800FAFF1100000120EE34F00001B651D9264C
:101858000001B751DA22000EDF6E000120EE35F0EC
:101868000001B651D9260001B751DA22000EDF6E09
:101878000001B86F000E00010001B96F0001B851F6
:10188800030E00010001B96501D001D002D01CD0BF
:101898001BD000010001B9510D0DF35000010001EA
:1018A800B625D96EF45000010001B721DA6E000E9A
:1018B800DF6E00010001B92B030E00010001B965BC
:1018C80001D001D0E6D700D01200000EC26E000E83
:1018D800C06E00010001D890B7313C0BC26EB7C092
:1018E800B9F00001B93BF00EB917300E0001B91775
:1018F80000010001B8510F0B0001B911C16EB6C04B
:10190800B9F00001D890B9370001D890B937380E2E
:101918000001B917B6C0BAF00001BA3B0F0EBA17EA
:10192800070E0001BA1700010001B651800B000133
:10193800BA110001B911C06E00010001B7AF01D0A2
:1019480001D003D09E9C9D8CF28CC2801200486608
:1019580001D001D002D035D034D0C2EC0EF03750CF
:101968003610D8B401D001D002D02BD02AD096ECB2
:1019780010F035503410D8A401D001D002D021D0B5
:1019880020D00101010E356E0101360E346E15ECC2
:1019980010F00009D8B401D001D002D012D011D073
:1019A8000101010E356E01016C0E346E15EC10F05C
:1019B8000009D8B401D001D002D003D002D0ACECD9
:1019C80010F012000001BA6F000E486E0001BA5103
:1019D8000101010E00010001B76F01016C0E000149
:1019E800B66F000126EC0CF00101010E00010001A8
:1019F800B76F0101360E0001B66F000126EC0CF03E
:101A08000101010E00010001B76F0101000E000184
:101A1800B66F000126EC0CF00201020E0001000175
:101A2800B76F0201000E0001B66F000126EC0CF042
:101A380012000001BD6F910E00010001B66F000198
:101A4800BD510001BE6F040E00010001B76F000117
:101A5800BE510001BF6F0B0E00010001B86F0001FD
:101A6800BF51000169EC0CF00001BD6F870E000149
:101A78000001B66F0001BD5100014CEC10F09E9CB6
:101A8800F28C9D8CBBC0D9FFBCC0DAFF000EDE6EA5
:101A9800000EDD6E1200B6C0C4F0B7C0C5F000017C
:101AA80020EE0AF00001C451D9260001C551DA22FE
:101AB800000EDF6E000120EE0BF00001C451D926A4
:101AC8000001C551DA22000EDF6E000120EE0CF095
:101AD8000001C451D9260001C551DA22050EDF6E76
:101AE800000120EE0EF00001C451D9260001C551B5
:101AF800DA22000EDF6E1200F2AC01D001D00AD05B
:101B0800000E00010001B96F000E0001B86F22D06D
:101B180021D020D0000167EC10F000010001B7517E
:101B28000001B611D8B401D001D00AD0000E0001CE
:101B38000001B96F000E0001B86F0CD00BD00AD0AD
:101B4800000E00010001B96F010E0001B86F02D04C
:101B580001D000D01200000180EC0DF0000100015E
:101B6800B9510001B811D8A401D001D016D0000194
:101B780067EC10F000010001B7510001B611D8A4BC
:101B880001D001D00AD0000E00010001BB6F010E88
:101B98000001BA6F0BD00AD009D0000E0001000175
:101BA800BB6F000E0001BA6F01D000D01200B8C0A0
:101BB800BEF0B9C0BFF0B6C0BCF0B7C0BDF013D01E
:101BC800BEC0D9FFBFC0DAFFBCC0E1FFBDC0E2FFA5
:101BD800DFCFE7FF00010001BE4BBF2B0001000172
:101BE800BC4BBD2B00D000010001BA07D8A0BB0731
:101BF8000001BA29D8B4BB29D8A401D001D0E0D7B4
:101C080000D01200C1C0D9FFC2C0DAFFDF50010105
:101C1800A26FA36BBBC0D9FFBCC0DAFFA2C1DEFFB5
:101C2800A3C1DDFFC8C0A4F1C9C0A5F10101A26F1D
:101C3800020E00010001B66F0101A2510101010E5F
:101C480000010001B86F0101A40E0001B76F000187
:101C5800ADEC07F0120000010001B8511E0AB911DD
:101C6800D8A401D001D002D01CD01BD000010001A3
:101C7800B8511F0AB911D8A401D001D012D000015F
:101C88000001BA5100010001BC25D96E0001000114
:101C9800BB5100010001BD21DA6E000EDF6E01D0DC
:101CA80000D0120002EE00F0360EEE6AE806FDE102
:101CB80001EE00F0A20EEE6AE806FDE10001C76B36
:101CC800C66B4A6A496A486A476A466A456A5E0E46
:101CD800F66E210EF76E000EF86E0900F5CFC8F00B
:101CE8000900F5CFC9F000014EEF04F003C009F078
:101CF80004C00AF001C007F002C008F00FD009C004
:101D0800D9FF0AC0DAFF07C0E1FF08C0E2FFDFCF52
:101D1800E7FF094A0A2A074A082A00D00506D8A078
:101D280006060528D8B40628D8A401D001D0E7D7DC
:101D380000D0120036C03CF037C03DF034C03AF055
:101D480035C03BF00FD03CC0D9FF3DC0DAFF3AC0E8
:101D5800E1FF3BC0E2FFDFCFE7FF3C4A3D2A3A4ABA
:101D68003B2A00D03806D8A039063828D8B43928F4
:101D7800D8A401D001D0E7D700D01200F2AC01D02E
:101D880001D007D0000E376E000E366E18D017D06F
:101D980016D096EC10F035503410D8B401D001D0DC
:101DA80007D0000E376E000E366E09D008D007D067
:101DB800000E376E010E366E02D001D000D0120030
:101DC8009DEC10F001C021F002C022F021C01FF0EC
:101DD8002250206E1B6E110E1D6E1B504AC01EF045
:101DE8004A2A1B6E040E176E1B501C6E280E186EA6
:101DF8001C50000E1A6E1D0E196E28EC10F0120001
:101E080000010001B6517E0BCD6E00010001B6AD98
:101E180001D001D002D0CD8E02D0CD9E00D0000ED0
:101E2800CF6E000ECE6E9E9000010001B6AF01D0BD
:101E380001D002D09D8001D09D90CD8012007BEC16
:101E480010F001C01FF002C020F01B6E020E176ECA
:101E58001B501C6E0B0E186E1C50000E1A6E1F0EB7
:101E6800196E28EC10F0000E1E6E010E1D6E1DC0BE
:101E780001F01EC002F084EC10F01200000120EE08
:101E880035F00001B651D9260001B751DA22DF50EA
:101E98000001B86F0001B8510D0DF35000010001A9
:101EA800B625D96EF45000010001B721DA6EDF5073
:101EB80000D01200F20E4916ABAC01D001D007D009
:101EC8004990ABA001D001D002D0498000D0ABA48A
:101ED80001D001D001D04984ABA201D001D001D0FA
:101EE8004986AECF01F0015000D012000001B76F53
:101EF800010E00010001C76F0001B7519486948854
:101F0800B6C0C8FF000EC76E000EC66E000EC56EC6
:101F18000E0EC612C78E94869488C580C68A120093
:101F28000101010E01010101A36F0101360E01013A
:101F3800A26FAEC1A4F1AFC1A5F1B0C1A6F1B1C104
:101F4800A7F1B2C1A8F101017DEC06F000D01200A2
:101F58000101010E01010101A36F01016C0E0101D4
:101F6800A26FAEC1A4F1AFC1A5F1B0C1A6F1B1C1D4
:101F7800A7F1B2C1A8F101017DEC06F000D0120072
:101F88000101010E01010101A36F0101000E010110
:101F9800A26FADC1A4F1AEC1A5F1AFC1A6F1B0C1A8
:101FA800A7F1010132EC08F000D012000201020E84
:101FB8003F6E0201000E3E6E87C040F088C041F0BF
:101FC80089C042F08AC043F08BC044F01DEC07F092
:101FD80000D012000101010E3F6E0101000E3E6E9D
:101FE80087C040F088C041F089C042F08AC043F001
:101FF8008BC044F01DEC07F000D0120007D06BEC4A
:1020080000F00ED0CBEC05F00BD00AD00001000197
:10201800C751010AD8B4F3D7030AD8B4F3D700D00C
:10202800120020EE35F03450D9263550DA22DF5030
:10203800366E36500D0DF3503424D96EF4503520D9
:10204800DA6EDF5000D012000101010E0C6E0101A2
:102058006C0E0B6E17C00DF018C00EF019C00FF003
:102068001AC010F088EC0BF000D012000101010E2C
:102078003F6E0101360E3E6E85C040F086C041F0CD
:1020880087C042F088C043F031EC09F000D012005C
:10209800C2CFB7F0C30E0001B71700010001D890F6
:1020A800B6313C0B0001B711C26E1200B6C04BF03E
:1020B800B7C04CF020EE04F04B50D9264C50DA2231
:1020C800000EDF6E1200000EF2AE010E00010001DC
:1020D800B66F0001B76B00D01200FA0E00F0E82EC0
:1020E800FDD700010001B62FF8D700D01200CECFDF
:1020F80003F0CFCF04F003C001F004C002F01200D7
:1021080001C003F002C004F004C0CFFF03C0CEFF3B
:10211800120034C036F035C037F037C0D7FF36C0AC
:10212800D6FF1200000EF2AE010E346E356A00D0F2
:102138001200C450026EC350016E00D01200BCC021
:10214800BEF0BDC0BFF01200D08EF28EF28C12002D
:08215800D38E03001200AB5509
:067FF80080F4C5FFFFF15B
:00000001FF
