:0400000069EF00F0B4
:10000800FACFA7F0FBCFA8F0E9CFA9F0D2EF09F01B
:10001800D8CF22F0E8CF23F0E0CF24F0FACF25F0B4
:10002800FBCF26F0E9CF27F0EACF28F0E1CF29F07F
:10003800E2CF2AF0D9CF2BF0DACF2CF0F3CF2DF086
:10004800F4CF2EF0F6CF2FF0F7CF30F0F8CF31F015
:10005800F5CF32F09EA001D001D004D09E90DFEC05
:100068000CF000D09EAC01D001D004D09E9C9FEC37
:100078000CF000D09EAA01D001D004D09E9A71EC59
:1000880008F000D032C0F5FF31C0F8FF30C0F7FFEC
:100098002FC0F6FF2EC0F4FF2DC0F3FF2CC0DAFFEF
:1000A8002BC0D9FF2AC0E2FF29C0E1FF28C0EAFF20
:1000B80027C0E9FF26C0FBFF25C0FAFF24C0E0FFE8
:1000C80023C0E8FF22C0D8FF10005AEF0CF000014F
:1000D8008C6F000E00010001A66F00018C51000119
:1000E8008C6F000E000100019E6F00018C51000111
:1000F8008C6F000E00010001A56F00018C510001FA
:100108008C6F000E00010001A46F00018C510001EA
:100118008C6F000E000100019F6F00018C51C6AC6E
:1001280001D001D021D0C69C20EE0CF04950D92630
:100138004A50DA22050EDF6E00018C6F010E0001B5
:1001480000019F6F00018C5120EE0EF04950D92616
:100158004A50DA22DF2A20EE0DF04950D9264A50BB
:10016800DA22040EDF6E00D0C7A001D001D00BD078
:10017800C9CFA2F000018C6F010E00010001A66F2B
:1001880000018C5100D0000100019F6701D001D00F
:10019800E7D1D2D1D1D1C7A601D001D0E1D1A6C033
:1001A80033F07FEC09F020EE0CF04950D9264A5084
:1001B800DA22080EDF6201D001D0D2D100018C6FA3
:1001C800000E00010001A66F00018C5100018C6F28
:1001D800010E00010001A46F00018C51C1D1C0D1F2
:1001E800BFD1C7A801D001D034D020EE0BF04950C0
:1001F800D9264A50DA22DF2A00010001A651D8B4D4
:1002080001D001D01DD0C7BA01D001D009D000015A
:100218008C6F010E00010001A56F00018C5110D0F8
:1002280020EE0EF04950D9264A50DA22DF2A20EE75
:100238000DF04950D9264A50DA22060EDF6E00D05A
:1002480020EE0CF04950D9264A50DA22050EDF6E0E
:1002580087D100010001A651D8B401D001D080D1C6
:1002680020EE0BF04950D9264A50DA22DF2AC7BAC5
:1002780001D001D027D0C7B401D001D009D020EED9
:100288000CF04950D9264A50DA22070EDF6E68D1A1
:1002980020EE0CF04950D9264A50DA22080EDF6EBB
:1002A80000018C6F010E00010001A46F00018C5148
:1002B80000018C6F000E00010001A66F00018C5137
:1002C8004FD14ED120EE0EF04950D9264A50DA22AD
:1002D800DF2A20EE0CF04950D9264A50DA22050EC2
:1002E800DF6E20EE0DF04950D9264A50DA22060E6C
:1002F800DF6E36D135D134D133D120EE1AF04950E2
:10030800D9264A50DA22DF5000018C6F20EE19F00E
:100318004950D9264A50DA22DF5000018C5DD8B006
:1003280001D001D028D020EE1AF04950D9264A50E1
:10033800DA22DF5000018C6F00018C51010D0F0E85
:10034800F326000EF422F3504924D96EF4504A20C3
:10035800DA6EDF50C96E20EE1AF04950D9264A509D
:10036800DA22DF2A00018C6F010E000100019E6F66
:1003780000018C51F5D020EE0CF04950D9264A5096
:10038800DA22050EDF6EECD0EBD0C7A801D001D081
:1003980062D020EE0BF04950D9264A50DA22DF2AE3
:1003A80000010001A651D8B401D001D042D0C7AA9B
:1003B80001D001D025D020EE0AF04950D9264A5064
:1003C800DA22DF5000018C6F00018C51010DF350CF
:1003D8004924D96EF4504A20DA6E0001A2C0DFFF2A
:1003E80020EE0AF04950D9264A50DA22DF2A0001C5
:1003F8008C6F010E00010001A56F00018C5122D005
:1004080020EE0EF04950D9264A50DA22DF2A20EE93
:100418000DF04950D9264A50DA22060EDF6E20EE3A
:100428000CF04950D9264A50DA22050EDF6E0AD060
:1004380009D000018C6F010E00010001A56F0001B9
:100448008C5100D020EE0CF04950D9264A50DA22BF
:10045800050EDF6E85D000010001A651D8B401D089
:1004680001D07ED020EE0BF04950D9264A50DA222E
:10047800DF2AC7AA01D001D01DD020EE0AF04950CA
:10048800D9264A50DA22DF5000018C6F00018C51C6
:10049800010DF3504924D96EF4504A20DA6E000158
:1004A800A2C0DFFF20EE0AF04950D9264A50DA22CE
:1004B800DF2A56D0C7A401D001D021D020EE0CF0FD
:1004C8004950D9264A50DA22080EDF6E00018C6F97
:1004D800010E00010001A56F00018C5100018C6F15
:1004E800010E00010001A46F00018C5100018C6F06
:1004F800000E00010001A66F00018C5131D020EEE2
:100508000EF04950D9264A50DA22DF2A20EE0DF0A3
:100518004950D9264A50DA22060EDF6E20EE0CF03A
:100528004950D9264A50DA22050EDF6E19D018D064
:1005380017D016D015D014D020EE0CF04950D9267B
:100548004A50DA22DF50050AD8B425D6030AD8B4AF
:1005580048D6010AD8B419D70F0AD8B4CED600D0D5
:1005680000010001A66701D001D007D000010001F9
:100578009E51D8B401D001D007D0C6B801D001D05F
:1005880003D0C68801D000D020EE0AF04950D92601
:100598004A50DA22080EDF6401D001D01ED00001D3
:1005A8000001A56701D001D018D020EE0CF0495009
:1005B800D9264A50DA22050EDF6E20EE0EF0495099
:1005C800D9264A50DA22DF2A20EE0DF04950D926E2
:1005D8004A50DA22070EDF6E00D000010001A55153
:1005E800D8B401D001D052D000018C6F0A0E00019E
:1005F8000001876F00018C510001000E000100010D
:10060800896F0001A30E0001886F0001000E000130
:1006180000018B6F00018E0E00018A6F00017CECD7
:100628000DF000010001A06F0001A16B0001A0BF47
:10063800A10700010001A151800A800F010ED8B462
:10064800A05DD8A001D001D00BD0A0C033F000012C
:10065800000E356E00018E0E346E11EC08F065D078
:10066800C8C098F0C9C099F0CAC09AF000018C6F50
:10067800030E336E00018C510001000E356E00012F
:10068800980E346E11EC08F050D04FD020EE0EF0DA
:100698004950D9264A50DA22DF50D8B401D001D0C7
:1006A80044D020EE0EF04950D9264A50DA22DF50C5
:1006B800000100019B6F20EE0DF04950D9264A50E9
:1006C800DA22DF50000100019C6F20EE0BF0495048
:1006D800D9264A50DA22DF50000100019D6F00013F
:1006E8008C6F030E00010001856F00018C51000121
:1006F8008D6F290E00010001866F00018D510001E8
:10070800000E00010001886F00019B0E0001876F39
:100718000001EEEC0DF020EE0EF04950D9264A50BB
:10072800DA22000EDF6E01D000D000010001A451D2
:10073800D8B401D001D009D000018C6F000E00019F
:100748000001A46F00018C5100D01200820ED36EFC
:100758009B9C0101010E00010001B66F0101BF0E53
:100768000001B56F00010EEC0EF00101010E000151
:100778000001B66F0101C60E0001B56F0001EDEC76
:100788000BF00101010E00010001BB6F0101BD0E5C
:100798000001BA6F00010EEC0BF0D7EC0AF0000E66
:1007A800936E000E8A6E000E806E000E896E0F0E1C
:1007B800C16E0F0E926E0101AC6FF50E00010001C3
:1007C800B56F0101AC510001C0EC0CF05CEC0EF00F
:1007D8009F909F9C9F9A9F860101AC6F9E0E00017F
:1007E8000001B56F0101AC510001CAEC0DF09D8606
:1007F8000101AC6F6C0E00010001B56F0101AC5135
:10080800000E00010001B76F190E0001B66F00015C
:10081800CCEC08F000D047EC07F00101AC6F0A0EF1
:1008280001010101A76F0101AC510101010E010194
:100838000101A96F0101C50E0101A86F0101010E97
:1008480001010101AB6F0101AD0E0101AA6F0101A8
:1008580036EC0DF001010101C46F01010101C4AFC3
:1008680001D001D03CD04CD04BD04AD038D0010177
:10087800010E00010001B66F0101BA0E0001B56F4B
:1008880001010001C5C1B7F000010001B86B010109
:100898000101C45100010001B96F0001BA6B0001E8
:1008A800B9BFBA070101010E00010001BC6F0101C7
:1008B800AD0E0001BB6F000157EC0EF021D0ADC1A9
:1008C800BCF11ED002D01CD01BD001010101BC51CB
:1008D800AA0AD8B415D014D013D012D011D001015F
:1008E8000101C5510A0AD8B4C2D7220AD8B4E7D739
:1008F800010AD8B4E4D7030AD8B4E7D701D000D0A6
:100908000101AC6F0A0E01010101A76F0101AC5191
:100918000101010E01010101A96F0101C50E0101CB
:10092800A86F0101010E01010101AB6F0101AD0EBC
:100938000101AA6F01014EEC0DF001010101C46F24
:1009480001010101C4AF01D001D068D064D763D7D9
:1009580062D764D00101010E00010001B66F0101E8
:10096800BD0E0001B56F01010001C5C1B7F000015E
:100978000001B86B01010101C45100010001B96F08
:100988000001BA6B0001B9BFBA070101010E0001ED
:100998000001BC6F0101AD0E0001BB6F0001A4ECAA
:1009A8000DF039D7C4C1A7F1C5C1A8F10101010EE5
:1009B80001010101AA6F0101AD0E0101A96F010139
:1009C80066EC0DF001D000D00101010E000100011C
:1009D800B66F0101B80E0001B56F01010001C5C174
:1009E800B7F000010001B86B01010101C451000119
:1009F8000001B96F0001BA6B0001B9BFBA07010164
:100A0800010E00010001BC6F0101AD0E0001BB6FBA
:100A18000001C6EC0BF0FFD6FED6FDD601010101A0
:100A2800C5510B0AD8B496D7150AD8B4CDD7010A40
:100A3800D8B4CAD7370AD8B4B5D7EDD6ECD6EBD6E2
:100A4800EAD669EF00F0000120EE35F00001BF5151
:100A5800D9260001C051DA22DF5001010101A26F3D
:100A680001010101A2510D0DF35000010001BF2544
:100A780001010101A56FF45000010001C02101012D
:100A8800A66F010EA5C1D9FFA6C1DAFFDF6201D0AA
:100A980001D075D0010120EE01F00101A551D92640
:100AA8000101A651DA22DF5000010001C16101D025
:100AB80001D003D0FD0E66D065D0010120EE01F013
:100AC8000101A551D9260101A651DA22DF50000102
:100AD800C66F0001C65101010101A36F0101A46B9A
:100AE800C4C0B5F0C5C0B6F0030E01010101A525CB
:100AF8000001C66F000E01010101A6210001C76FA8
:100B0800C6C0B7F0C7C0B8F0A3C1B9F0A4C1BAF065
:100B180000019BEC0BF0000120EE35F00001BF5105
:100B2800D9260001C051DA22000110EE35F000018B
:100B3800BF51E1260001C051E222E7500001C66F13
:100B48000001C629030BDF6E010120EE02F001014E
:100B5800A551D9260101A651DA22C2C0E1FFC3C0BE
:100B6800E2FFDFCFE7FFA5C1D9FFA6C1DAFF000E7C
:100B7800DF6E01010101A35105D004D003D0FC0EA2
:100B880001D000D0120020EE35F03D50D9263E505D
:100B9800DA22DF5000010001826F0001000182515A
:100BA8000D0DF3503D2400010001856FF4503E20E7
:100BB8000001866F010E85C0D9FF86C0DAFFDF62AB
:100BC80001D001D06CD0000120EE01F00001855168
:100BD800D92600018651DA22DF503F6001D001D0CA
:100BE80003D0FD0E5FD05ED0000120EE01F00001C1
:100BF8008551D92600018651DA22DF500001806F25
:100C08000001805100010001836F0001846B42C024
:100C180033F043C034F0030E0001000185250001C4
:100C2800806F000E0001000186210001816F80C0E5
:100C380035F081C036F083C037F084C038F036EC28
:100C48000CF020EE35F03D50D9263E50DA2210EE59
:100C580035F03D50E1263E50E222E7500001806F1A
:100C680000018029030BDF6E000120EE02F0000175
:100C78008551D92600018651DA2240C0E1FF41C0E2
:100C8800E2FFDFCFE7FF85C0D9FF86C0DAFF000E9D
:100C9800DF6E00010001835105D004D003D0FC0EA3
:100CA80001D000D0120000010101C1C0A2F1010170
:100CB8000101A36B000120EE34F00001BF51D926D9
:100CC8000001C051DA22DF5001010101A46F0101C6
:100CD8000101A4510D0DF35000010001BF250101D0
:100CE8000101A56FF45000010001C0210101A66FA8
:100CF800A5C1D9FFA6C1DAFFDF50D8B401D001D011
:100D080003D0FF0E52D051D0010120EE01F00101B5
:100D1800A551D9260101A651DA220001C1C0DFFF81
:100D2800010120EE02F00101A551D9260101A651C9
:100D3800DA220001C2C0DFFF030E01010101A5256F
:100D480000010001B56F000E01010101A62100019B
:100D5800B66FC3C0B7F0C4C0B8F0A2C1B9F0A3C1A0
:100D6800BAF000019BEC0BF0000120EE34F000011A
:100D7800BF51D9260001C051DA22000110EE34F02B
:100D88000001BF51E1260001C051E222E7500001F5
:100D9800C56F0001C529030BDF6EA5C1D9FFA6C128
:100DA800DAFF010EDF6E010E00D0120000013FC015
:100DB80080F000010001816B20EE34F03D50D9260F
:100DC8003E50DA22DF5000010001826F000100016D
:100DD80082510D0DF3503D2400010001836FF45042
:100DE8003E200001846F83C0D9FF84C0DAFFDF5042
:100DF800D8B401D001D003D0FF0E44D043D00001B5
:100E080020EE01F000018351D92600018451DA2235
:100E18003FC0DFFF000120EE02F000018351D92618
:100E280000018451DA2240C0DFFF030E00010001F7
:100E38008325336E000E000100018421346E41C009
:100E480035F042C036F080C037F081C038F036EC5B
:100E58000CF020EE34F03D50D9263E50DA2210EE48
:100E680034F03D50E1263E50E222E750436E4328DD
:100E7800030BDF6E83C0D9FF84C0DAFF010EDF6E7B
:100E8800010E00D0120000016FEC0BF00001000110
:100E9800BA510001B911D8A401D001D002D05CD058
:100EA8005BD08A860001BB6F010E476E0001BB5103
:100EB80000D00101010E00010001B66F0101360EDC
:100EC8000001B56F0001FEEC0CF00009D8B401D0A8
:100ED80001D009D00001BB6F000E476E0001BB5165
:100EE8008A963AD039D00101010E00010001B66F8F
:100EF80001016C0E0001B56F0001FEEC0CF0000959
:100F0800D8B401D001D009D00001BB6F000E476EE4
:100F18000001BB518A9620D01FD00001BB6F0A0E7A
:100F280000010001B56F0001BB51000125EC0EF076
:100F38008AA601D002D0010E01D0000E0001BB6FBD
:100F48000001BB47BB47BB478A500001BB19F70BE1
:100F5800BB198A6EAED7ADD712008AA001D002D0D5
:100F6800010E01D0000E00018C6F8A5000018C190F
:100F7800FE0B8C198A6E000E346E000E336E41EC37
:100F88000EF000018C6F020E00010001876F000156
:100F98008C510001000E00010001896F00018E0EC6
:100FA8000001886F0001000E000100018B6F000135
:100FB800920E00018A6F000190EC0DF00001000113
:100FC800906F0001916B000190BF91070001000133
:100FD8009051020A9111D8A401D001D01DD000016E
:100FE8008C6F020E00010001856F00018C51000119
:100FF8008D6F0A0E00010001866F00018D510001FE
:10100800000E00010001886F0001920E0001876F39
:101018000001EEEC0DF000D0120020EE19F049505E
:10102800D9264A50DA22000EDF6E2ED020EE19F0B3
:101038004950D9264A50DA22DF50366E3650010D13
:10104800F3503424D96EF4503520DA6E10EE19F0CE
:101058004950E1264A50E222E750376E3750010DD9
:101068000F0EF326000EF422F3504924E16EF450DB
:101078004A20E26EDFCFE7FF20EE19F04950D9266B
:101088004A50DA22DF2A00D020EE19F04950D9263A
:101098004A50DA22DF50366E3350365CD8A001D081
:1010A80001D0C4D700D020EE19F04950D9264A50B3
:1010B800DA2233C0DFFF20EE1AF04950D9264A5011
:1010C800DA22010EDF6E20EE0FF04950D9264A5081
:1010D800DA22DF50C96EC68812009EAA01D001D05C
:1010E80041D020EE04F04B50D9264C50DA22DF5084
:1010F8001B6E1B50010DF3504B24D96EF4504C203D
:10110800DA6E1AEC0DF0DF6E20EE04F04B50D926A3
:101118004C50DA22DF2A20EE04F04B50D9264C50EE
:10112800DA22040EDF6201D001D01CD020EE04F0D8
:101138004B50D9264C50DA22DF50176E1B6E1F0E0B
:10114800186E1B504BC019F04CC01AF0DCEC0DF0B7
:1011580020EE04F04B50D9264C50DA22000EDF6EF8
:1011680001D000D048A601D001D011D0AB98AB88EF
:101178001B6E000E176E1B501C6E1E0E186E1C5038
:10118800000E1A6E000E196EDCEC0DF000D0120085
:10119800000EAC6E000EAB6E00010001B5A101D0CF
:1011A80001D001D0AC8800010001B5A301D001D065
:1011B80002D0AC8CAB8C00010001B5A501D001D0E8
:1011C80001D0AC8E00010001B5A701D001D002D03A
:1011D800AB8801D0AB8A00010001B5A901D001D0CC
:1011E80001D0AC849E9800010001B5AB01D001D0BC
:1011F80001D0AB8600010001B5AD01D001D002D00D
:101208009D8A01D09D9A9E9A00010001B5AF01D038
:1012180001D002D09D8801D09D98B6C0AFFF0001D3
:101228000001B751B06EAC8AAB8E949C948EACA87A
:1012380001D001D006D0ACBE01D001D002D0948C30
:1012480000D012000DC012F0136A20EE34F00B50DB
:10125800D9260C50DA22DF50146E14500D0DF350BD
:101268000B24156EF4500C20166E15C0D9FF16C04D
:10127800DAFFDF50D8B401D001D003D0FF0E3AD046
:1012880039D020EE01F01550D9261650DA220DC0BB
:10129800DFFF20EE02F01550D9261650DA220EC0D4
:1012A800DFFF030E1524016E000E1620026E0FC01C
:1012B80003F010C004F012C005F013C006F012ECE1
:1012C8000CF020EE34F00B50D9260C50DA2210EE38
:1012D80034F00B50E1260C50E222E750116E112831
:1012E800030BDF6E15C0D9FF16C0DAFF010EDF6EE3
:1012F800010E00D0120020EE0BF04950D9264A50BA
:10130800DA22010EDF6E20EE0AF04950D9264A5043
:10131800DA22000EDF6E3350D8B401D001D034D0B9
:10132800C7AA01D001D018D020EE0CF04950D92618
:101338004A50DA22050EDF6E20EE0EF04950D9260B
:101348004A50DA22DF2A20EE0DF04950D9264A50B9
:10135800DA22050EDF6E21D0C7A401D001D009D052
:1013680020EE0CF04950D9264A50DA22080EDF6EDA
:1013780014D020EE0CF04950D9264A50DA22070E34
:10138800DF6E0BD00AD009D020EE0CF04950D926D8
:101398004A50DA22060EDF6E00D01200EACFAAF019
:1013A800E1CFABF0E2CFACF0D9CFADF0DACFAEF011
:1013B800F3CFAFF0F4CFB0F0F6CFB1F0F7CFB2F093
:1013C800F8CFB3F0F5CFB4F09EA601D001D004D089
:1013D8009E966BEC00F000D0F2A401D001D004D0AE
:1013E800F294B1EC07F000D09CEC0AF0B4C0F5FF21
:1013F800B3C0F8FFB2C0F7FFB1C0F6FFB0C0F4FF4A
:10140800AFC0F3FFAEC0DAFFADC0D9FFACC0E2FF9A
:10141800ABC0E1FFAAC0EAFFA9C0E9FFA8C0FBFF73
:10142800A7C0FAFF1100000120EE34F00001B55109
:10143800D9260001B651DA22000EDF6E000120EE37
:1014480035F00001B551D9260001B651DA22000E57
:10145800DF6E0001B76F000E00010001B86F0001D8
:10146800B751030E00010001B86501D001D002D0C8
:101478001CD01BD000010001B8510D0DF350000124
:101488000001B525D96EF45000010001B621DA6ECD
:10149800000EDF6E00010001B82B030E00010001F1
:1014A800B86501D001D0E6D700D01200000EC26E98
:1014B800000EC06E00010001D890B6313C0BC26E20
:1014C800B6C0B8F00001B83BF00EB817300E0001F6
:1014D800B81700010001B7510F0B0001B811C16E18
:1014E800B5C0B8F00001D890B8370001D890B83727
:1014F800380E0001B817B5C0B9F00001B93B0F0E9E
:10150800B917070E0001B91700010001B551800B8A
:101518000001B9110001B811C06E00010001B6AF99
:1015280001D001D003D09E9C9D8CF28CC280120009
:10153800476601D001D002D035D034D07DEC0CF014
:1015480036503510D8B401D001D002D02BD02AD0D3
:101558004AEC0EF034503310D8A401D001D002D098
:1015680021D020D00101010E346E0101360E336EF8
:10157800B7EC0DF00009D8B401D001D002D012D0D8
:1015880011D00101010E346E01016C0E336EB7ECFF
:101598000DF00009D8B401D001D002D003D002D098
:1015A80060EC0EF012000001B96F000E476E0001EA
:1015B800B9510101010E00010001B66F01016C0E65
:1015C8000001B56F000117EC0AF00101010E0001DE
:1015D8000001B66F0101360E0001B56F000117EC6E
:1015E8000AF00101010E00010001B66F0101000EB1
:1015F8000001B56F000117EC0AF00201020E0001AC
:101608000001B66F0201000E0001B56F000117EC72
:101618000AF012000001BC6F910E00010001B56FC5
:101628000001BC510001BD6F040E00010001B66F3E
:101638000001BD510001BE6F0B0E00010001B76F24
:101648000001BE5100015AEC0AF00001BC6F870E80
:1016580000010001B56F0001BC51000100EC0EF063
:101668009E9CF28C9D8CBAC0D9FFBBC0DAFF000EDD
:10167800DE6E000EDD6E1200F2AC01D001D00AD091
:10168800000E00010001B86F000E0001B76F22D0F4
:1016980021D020D000011BEC0EF000010001B65152
:1016A8000001B511D8B401D001D00AD0000E000154
:1016B8000001B86F000E0001B76F0CD00BD00AD034
:1016C800000E00010001B86F010E0001B76F02D0D3
:1016D80001D000D01200000140EC0BF00001000125
:1016E800B8510001B711D8A401D001D016D000011B
:1016F8001BEC0EF000010001B6510001B511D8A491
:1017080001D001D00AD0000E00010001BA6F010E0D
:101718000001B96F0BD00AD009D0000E00010001FA
:10172800BA6F000E0001B96F01D000D01200B7C027
:10173800BDF0B8C0BEF0B5C0BBF0B6C0BCF013D0A9
:10174800BDC0D9FFBEC0DAFFBBC0E1FFBCC0E2FF2D
:10175800DFCFE7FF00010001BD4BBE2B00010001F8
:10176800BB4BBC2B00D000010001B907D8A0BA07B9
:101778000001B929D8B4BA29D8A401D001D0E0D73A
:1017880000D0120000010001B7511E0AB811D8A4F8
:1017980001D001D002D01CD01BD000010001B751EC
:1017A8001F0AB811D8A401D001D012D0000100013D
:1017B800B95100010001BB25D96E00010001BA51E1
:1017C80000010001BC21DA6E000EDF6E01D000D0EE
:1017D8001200B5C049F0B6C04AF020EE0AF04950F0
:1017E800D9264A50DA22000EDF6E20EE0BF049505F
:1017F800D9264A50DA22000EDF6E20EE0CF049504E
:10180800D9264A50DA22050EDF6E20EE0EF0495036
:10181800D9264A50DA22000EDF6E120003C009F002
:1018280004C00AF001C007F002C008F00FD009C0D8
:10183800D9FF0AC0DAFF07C0E1FF08C0E2FFDFCF27
:10184800E7FF094A0A2A074A082A00D00506D8A04D
:1018580006060528D8B40628D8A401D001D0E7D7B1
:1018680000D0120035C03BF036C03CF033C039F030
:1018780034C03AF00FD03BC0D9FF3CC0DAFF39C0C2
:10188800E1FF3AC0E2FFDFCFE7FF3B4A3C2A394A93
:101898003A2A00D03706D8A038063728D8B43828CE
:1018A800D8A401D001D0E7D700D0120002EE00F092
:1018B800360EEE6AE806FDE101EE00F0A20EEE6AD1
:1018C800E806FDE1486A476A466A456A446ACA0EFC
:1018D800F66E1C0EF76E000EF86E0900F5CFC8F014
:1018E8000900F5CFC9F00900F5CFCAF00001AAEF49
:1018F80003F0F2AC01D001D007D0000E366E000E16
:10190800356E18D017D016D04AEC0EF0345033107C
:10191800D8B401D001D007D0000E366E000E356E57
:1019280009D008D007D0000E366E010E356E02D0F1
:1019380001D000D0120051EC0EF001C020F002C01E
:1019480021F0010E216E050E206E20C01DF02150E1
:101958001E6E1B6E100E1F6E1B501B6E030E176E35
:101968001B501C6E280E186E1C50000E1A6E1D0E91
:10197800196EDCEC0DF0120000010001B5517E0B70
:10198800CD6E00010001B5AD01D001D002D0CD8EE1
:1019980002D0CD9E00D0000ECF6E000ECE6E9E906F
:1019A80000010001B5AF01D001D002D09D8001D067
:1019B8009D90CD8012002FEC0EF001C01FF002C0E8
:1019C80020F01B6E020E176E1B501C6E0B0E186E4D
:1019D8001C50000E1A6E1F0E196EDCEC0DF0000E76
:1019E8001E6E010E1D6E1DC001F01EC002F038EC07
:1019F8000EF01200000120EE35F00001B551D92695
:101A08000001B651DA22DF500001B76F0001B7516B
:101A18000D0DF35000010001B525D96EF4500001F9
:101A28000001B621DA6EDF5000D01200F20E48161F
:101A3800ABAC01D001D007D04890ABA001D001D009
:101A480002D0488000D0ABA401D001D001D0488496
:101A5800ABA201D001D001D04886AECF01F0015031
:101A680000D012000101010E00010001C06F010148
:101A7800360E0001BF6FA7C1C1F0A8C1C2F0A9C14D
:101A8800C3F0AAC1C4F0ABC1C5F0000127EC05F052
:101A980000D012000101010E00010001C06F010118
:101AA8006C0E0001BF6FA7C1C1F0A8C1C2F0A9C1E7
:101AB800C3F0AAC1C4F0ABC1C5F0000127EC05F022
:101AC80000D012000101010E00010001C06F0101E8
:101AD800000E0001BF6FA7C1C1F0A8C1C2F0A9C123
:101AE800C3F0AAC1C4F0000157EC06F000D0120000
:101AF8000101010E3E6E0101000E3D6E87C03FF0F0
:101B080088C040F089C041F08AC042F08BC043F0E1
:101B1800C7EC05F000D012000201020E3E6E020171
:101B2800000E3D6E87C03FF088C040F089C041F08C
:101B38008AC042F08BC043F0C7EC05F000D0120019
:101B4800BBC0D9FFBCC0DAFFDF500001BD6FBE6B60
:101B5800B5C0D9FFB6C0DAFFBDC0DEFFBEC0DDFF2D
:101B680063EC0EF0120020EE35F03350D9263450D5
:101B7800DA22DF50356E35500D0DF3503324D96E0F
:101B8800F4503420DA6EDF5000D012009486948826
:101B9800B5C0C8FF000EC76E000EC66E000EC56E3B
:101BA8000E0EC612C78E94869488C580C68A120007
:101BB8000101010E0C6E01016C0E0B6E17C00DF0C9
:101BC80018C00EF019C00FF01AC010F026EC09F07A
:101BD80000D012000101010E3E6E0101360E3D6E6D
:101BE80085C03FF086C040F087C041F088C042F011
:101BF800DAEC06F000D01200C2CFB6F0C30E000136
:101C0800B61700010001D890B5313C0B0001B611A0
:101C1800C26E1200B5C04BF0B6C04CF020EE04F016
:101C28004B50D9264C50DA22000EDF6E1200000EFF
:101C3800F2AE010E00010001B56F0001B66B00D0D5
:101C48001200FA0E00F0E82EFDD700010001B52FB2
:101C5800F8D700D01200CECF03F0CFCF04F003C0E6
:101C680001F004C002F0120001C003F002C004F049
:101C780004C0CFFF03C0CEFF120033C035F034C01C
:101C880036F036C0D7FF35C0D6FF1200000EF2AED0
:101C9800010E336E346A00D01200C450026EC35075
:101CA800016E00D01200BBC0BDF0BCC0BEF0120077
:101CB800D08EF28EF28C1200D38E03001200C282F4
:061CC800120000005500AF
:067FF80080F4C5FFFFF15B
:00000001FF
